:100000000C9455000C9472000C9472000C947200C5
:100010000C9472000C9472000C9472000C94720098
:100020000C9472000C9472000C9472000C94720088
:100030000C9472000C9472000C9472000C943504B1
:100040000C9472000C9472000C9472000C94720068
:100050000C94B2070C9472000C9472000C94720011
:100060000C94BF000C9472000C9472000C947200FB
:100070000C9472000C9472000C947200084AD73BE6
:100080003BCE016E84BCBFFDC12F3D6C74319ABD67
:1000900056833DDA3D00C77F11BED9E4BB4C3E918B
:1000A0006BAAAABE000000803F0011241FBECFEF44
:1000B000D0E1DEBFCDBF12E0A0E0B1E0E4E4F9E2C0
:1000C00002C005900D92AC3DB107D9F713E0ACED3D
:1000D000B2E001C01D92A039B107E1F70E943B03D5
:1000E0000C94A0140C9400009B0177FF04C02227FD
:1000F0003327261B370B2F3F310519F014F09FEFE4
:1001000001C0922F813071F0813028F0823089F067
:10011000833001F517C077FF02C0299A01C02998E2
:1001200097BD089577FF02C02A9A01C02A9898BD0A
:1001300008951616170614F45C9A01C05C98909303
:10014000B30008951616170614F45D9A01C05D9861
:100150009093B400089590917C00906490937C00FB
:1001600097E890937A00882321F080917A00886440
:1001700003C080917A00877F80937A0008951F9250
:100180000F920FB60F9211242F933F934F935F93CB
:100190006F938F939F93AF93BF93EF93FF932091B0
:1001A0007800309179006091DC02E62FF0E0EE0FEC
:1001B000FF1FDF01A350BD4F8D919C91281B390B70
:1001C000DF01A352BD4F2D933C93E351FD4F40817E
:1001D0005181CA01A6E0880F991FAA95E1F7841BF7
:1001E000950B280F391F86E0369527958A95E1F7FC
:1001F000318320836F5F6093DC02683010F01092CF
:10020000DC028091DC02806480937C0080917A0023
:10021000806480937A00FF91EF91BF91AF919F919D
:100220008F916F915F914F913F912F910F900FBEE2
:100230000F901F901895EDEDF2E020E030E0808106
:1002400091812817390708F49C01329682E0ED3E2F
:10025000F807A9F7C901089580910F039091100341
:100260002091670330916803821B930B059718F167
:100270008091690390916A03909368038093670368
:1002800080917E0380937D0380916B0390916C033A
:1002900090936A038093690380917F0380937E0328
:1002A00080910F039091100390936C0380936B03E4
:1002B00010927F03D1CF20917D03233089F12093C9
:1002C0004F0390E0E92FF0E0E358FC4F80818F5F0F
:1002D00080839F5F2917B0F780910F0390911003DF
:1002E000E22FF0E0E358FC4F808380910F03909160
:1002F00010032091500330915103821B930B8536DC
:10030000910570F0289A80E593EC0197F1F7289811
:1003100080910F03909110039093510380935003A9
:10032000089580910F039091100320915203309112
:100330005303821B930B8953924000F180910F036A
:10034000909110032091520330915303821B930B21
:1003500006C0809164039091650388539240909306
:1003600065038093640380916403909165038953CE
:1003700092407CF710921203109211038091640353
:10038000909165038953924094F480911103909168
:100390001203833091055CF4289AE0E5F3EC319781
:1003A000F1F728980196909312038093110380919E
:1003B0000F03909110039093530380935203089579
:1003C000AF92BF92CF92DF92EF92FF920F931F9363
:1003D000CF93DF93EB0120910D0330910E03280F93
:1003E000391F253B31051CF02856314006C08FEFE0
:1003F0002C34380714F428593E4FB901882777FD6B
:100400008095982F0E94EC127B018C0122E539E443
:100410004DE15CE30E94CC1320E030E040E050E08E
:100420000E9487115B016C0120E030E04AEF53E449
:100430000E94C11318165CF40F2EF0E0AF2EF0E00E
:10044000BF2EFAEFCF2EF3E4DF2EF02D14C0C6013D
:10045000B50120E030E04AEF53EC0E944D128823B2
:1004600054F40F2EF0E0AF2EF0E0BF2EFAEFCF2EB7
:10047000F3ECDF2EF02DC801B70120E030E040E0C2
:100480005FE30E94CC137B018C01C601B50120E023
:1004900030E040E050E00E94CC1323E333E343EF2D
:1004A0005FEB0E94CC139B01AC01C801B7010E9415
:1004B00087117B018C01BE01882777FD8095982FDD
:1004C0000E94EC122AE939E949E95EEB0E94CC135B
:1004D0009B01AC01C801B7010E9487117B018C010F
:1004E00020E030E048EC52E40E94C11318165CF49E
:1004F0000F2EF0E0EF2EF0E0FF2EF8EC0F2FF2E4DD
:100500001F2FF02D14C0C801B70120E030E048ECE7
:1005100052EC0E944D12882354F40F2EF0E0EF2E7F
:10052000F0E0FF2EF8EC0F2FF2EC1F2FF02DC8019A
:10053000B7010E94B912CB01DF91CF911F910F91AA
:10054000FF90EF90DF90CF90BF90AF900895CF9243
:10055000DF92EF92FF920F931F93CF93DF936B0184
:100560009A012C543F4F91E0283639071CF09A012C
:10057000245B3040E82FF0E0EE0FFF1FED56FD4FFB
:10058000CAE5D0E080819181C81BD90BC90168E61A
:1005900071E00E943214C80FD91F02C0C859DE4F43
:1005A000D7FDFCCF02C0C856D14081E0C936D8077C
:1005B000D4F7CA35D1055CF4CC0FDD1FCC0FDD1F9D
:1005C000C95DDE4FE880F9800A811B8135C0C43BDC
:1005D000D1057CF4E4EBF0E0EC1BFD0BEE0FFF1F0C
:1005E000EE0FFF1FE95DFE4FE080F1800281138175
:1005F00023C091E0CE30D9075CF4CC0FDD1FCC0FC7
:10060000DD1FC95AD14088819981AA81BB810EC062
:10061000E8E6F1E0EC1BFD0BEE0FFF1FEE0FFF1FF6
:10062000E95DFE4F80819181A281B3817C018D01C2
:1006300017FB109517F91095C60160E071E00E9454
:100640003214AA2797FDA095BA2FBC01CD010E94B4
:10065000EC129B01AC01C801B7010E94CC130E94AF
:10066000B912CB01DF91CF911F910F91FF90EF90C5
:10067000DF90CF900895A8952FE088E190E00FB625
:10068000F894A895809360000FBE209360008FEFD0
:100690008AB95398529884B9429A439A459A469A8D
:1006A000479A5B9A5A9A0E947A1093EA94BD83E023
:1006B00085BD9093B00084E08093B10081E0809389
:1006C0006F00809381000E94AB008EE090E00E945A
:1006D0007A149093700380936F0304B603FC2F9AEF
:1006E00084B7877F84BF0E94CC0D789420E030E0EF
:1006F00040E85FEB209371033093720340937303E0
:100700005093740383E393E3A3E3BFE38093750300
:1007100090937603A0937703B09378038093790343
:1007200090937A03A0937B03B0937C0380E090E0E6
:10073000A0E0B0E08093800390938103A0938203B4
:10074000B093830380E090E0A0E8BFE3809384034C
:1007500090938503A0938603B09387032093880327
:100760003093890340938A0350938B0310927D0347
:10077000109268031092670310927E0310926A032E
:100780001092690310927F0310926C0310926B0316
:1007900080910F0390911003909353038093520321
:1007A000329902C02F9A2F98379902C00E94910166
:1007B000EDEDF2E080E090E0208131818217930737
:1007C00008F4C901329622E0ED3EF207A9F78955F7
:1007D0009240D4F1809120039091210320916F03E6
:1007E00030917003281B390B30932303209322038D
:1007F0008091220390912303885F984F3CF480916D
:10080000220390912303805F914F0DC080912203BA
:10081000909123038950974054F080912203909146
:10082000230380519E409093230380932203809161
:100830002203909123036AE070E00E9432147093C7
:100840002303609322030FC080E060E070E00E9409
:10085000740081E060E070E00E94740082E060E07B
:1008600070E00E947400A8959BCF1F920F920FB664
:100870000F9211242F933F934F935F936F937F9326
:100880008F939F93AF93BF93EF93FF9380910F0349
:100890009091100301969093100380930F03809121
:1008A000A902813069F580EE0E94FA0F882351F089
:1008B00080EE0E94531090931F0380931E0380EEDE
:1008C0000E94061082EE0E94FA0F882351F082EEF9
:1008D0000E94531090931B0380931A0382EE0E9490
:1008E000061086EE0E94FA0F882351F086EE0E94D1
:1008F000531090931D0380931C0386EE0E940610F4
:100900008091A902823091F40E944F0D0E94860CC2
:10091000909321038093200380916F039091700343
:100920000E94A50C90932303809322038091A90237
:10093000833009F05AC1369958C180911503882334
:1009400031F40E94C50E8AE08093150302C0109214
:10095000150381E090E061E070E040E051E00E942A
:10096000D20E40911A0350911B0381E090E06AE09F
:1009700070E00E94610F40911C0350911D0381E0C3
:1009800090E06EE070E00E94610F40911E03509174
:100990001F0381E090E062E170E00E94610F83E05C
:1009A00090E061E070E049E051E00E94D20E409199
:1009B00020035091210383E090E065E070E00E9405
:1009C000610F409122035091230383E090E06AE09D
:1009D00070E00E94610FEDEDF2E040E050E08081B8
:1009E00091814817590708F4AC01329682E0ED3E38
:1009F000F807A9F783E090E06FE070E00E94610FD4
:100A00008091160390911703843691050CF06DC008
:100A100084E090E061E070E04DE051E00E94D20E91
:100A20004091DD025091DE0284E090E062E070E0EF
:100A30000E94610F84E090E066E070E04FE051E0DA
:100A40000E94D20E4091DF025091E00284E090E0DB
:100A500067E070E00E94610F84E090E06BE070E07E
:100A600041E151E00E94D20E4091E1025091E20238
:100A700084E090E06CE070E00E94610F84E090E020
:100A800060E170E043E151E00E94D20E4091E30248
:100A90005091E40284E090E061E170E00E94610F17
:100AA00082E090E061E070E045E151E00E94D20E0A
:100AB000409143035091440382E090E066E070E08F
:100AC0000E94610F409145035091460382E090E0FF
:100AD0006AE070E00E94610F409147035091480323
:100AE00082E090E06EE070E070C0883C91050CF010
:100AF00078C084E090E061E070E04AE151E00E945B
:100B0000D20E4091E5025091E60284E090E062E06E
:100B100070E00E94610F84E090E066E070E04CE1DC
:100B200051E00E94D20E4091E7025091E80284E029
:100B300090E067E070E00E94610F84E090E06BE07D
:100B400070E04EE151E00E94D20E4091E9025091D6
:100B5000EA0284E090E06CE070E00E94610F84E0C3
:100B600090E060E170E040E251E00E94D20E4091DE
:100B7000EB025091EC0284E090E061E170E00E94B1
:100B8000610F82E090E061E070E042E251E00E949B
:100B9000D20E40910F035091100382E090E067E085
:100BA00070E00E94610F409152035091530382E024
:100BB00090E06CE070E00E94610F409164035091FE
:100BC000650382E090E061E170E00E94610F809136
:100BD00016039091170301969093170380931603C1
:100BE00004C010921703109216038091A90283305B
:100BF00011F481E001C08F5F8093A902FF91EF9112
:100C0000BF91AF919F918F917F916F915F914F9124
:100C10003F912F910F900FBE0F901F9018952F921C
:100C20003F924F925F926F927F928F929F92AF927C
:100C3000BF92CF92DF92EF92FF920F931F93DF93B9
:100C4000CF9300D000D000D0CDB7DEB71A82198282
:100C50002224332444245524F201E352FD4F6081C1
:100C600071816536710508F4D2C080E090E00E9481
:100C7000EA126B837C838D839E83F201E756FD4FDE
:100C800020813181F901E65AFF4F02C0E859FE4F39
:100C9000F7FDFCCF02C0E856F14081E0E936F807E5
:100CA000D4F7EA35F10544F0E43BF10584F484EB34
:100CB00090E08E1B9F0BFC01EE0FFF1FEE0FFF1F3E
:100CC000E95DFE4F608071808280938023C091E057
:100CD000EE30F9073CF4EE0FFF1FEE0FFF1FE95A4D
:100CE000F1400BC088E691E08E1B9F0BFC01EE0FDC
:100CF000FF1FEE0FFF1FE95DFE4F80819181A281F2
:100D0000B3813C014D0197FA909497F8909402C0FA
:100D100028593E4F37FDFCCF02C02856314091E0A4
:100D200029363907D4F72A35310544F4220F331F09
:100D3000220F331F295D3E4FF9010DC0243B3105C1
:100D40007CF4E4EBF0E0E21BF30BEE0FFF1FEE0F81
:100D5000FF1FE95DFE4FA080B180C280D38020C01C
:100D6000F1E02E303F0744F4220F331F220F331FD0
:100D7000295A3140F9010AC0E8E6F1E0E21BF30B21
:100D8000EE0FFF1FEE0FFF1FE95DFE4F8081918187
:100D9000A281B3815C016D01D7FAD094D7F8D094C9
:100DA00029813A81B901882777FD8095982F0E9483
:100DB000EC127B018C016B817C818D819E81A40171
:100DC00093010E94CC139B01AC01C801B7010E94A2
:100DD00087110E94B9127A836983B101882777FD50
:100DE0008095982F0E94EC127B018C016B817C8195
:100DF0008D819E81A60195010E94CC139B01AC01BF
:100E0000C801B7010E9487110E94B9121B0182E03C
:100E100090E0480E591E90E14916510409F01CCF8C
:100E2000B101882777FD8095982F0E94EC127B01F5
:100E30008C01E981FA81BF01882777FD8095982F81
:100E40000E94EC129B01AC01C801B7010E94FA118B
:100E500020E030E044E353E40E94CC132BED3FE06C
:100E600049E450E40E9451120E94B9129B0177FF9D
:100E700002C028593E4FC90126960FB6F894DEBF2E
:100E80000FBECDBFCF91DF911F910F91FF90EF90DB
:100E9000DF90CF90BF90AF909F908F907F906F909A
:100EA0005F904F903F902F9008950E940F069C01F5
:100EB000853B910514F028563140EDEDF2E080E0DD
:100EC00090E0408151818417950708F4CA01329659
:100ED00042E0ED3EF407A9F78855924094F0C9012D
:100EE000875A9F4F833B910518F4220F331F09C087
:100EF00037FD03C082E390E002C08EEC9FEF280F25
:100F0000391FC9010895CF92DF92EF92FF921F938C
:100F1000CF93DF936A010E94E0017C010E94550794
:100F2000EC0110E0812FB601AE010E94A702BC01C6
:100F30006E0D7F1D113019F4709561957F4F812FD3
:100F40000E9474001F5F133069F7DF91CF911F91EA
:100F5000FF90EF90DF90CF90089590938F03809350
:100F60008E0308951F920F920FB60F9211246F9265
:100F70007F928F929F92AF92BF92CF92DF92EF9229
:100F8000FF920F931F932F933F934F935F936F9312
:100F90007F938F939F93AF93BF93CF93DF93EF9301
:100FA000FF934091C600842F817080932E03242FDD
:100FB00030E0C901827090709595879580932D03DC
:100FC000C9018470907095958795959587958093C4
:100FD0002C03C90188709070E3E095958795EA9598
:100FE000E1F780932B03C9018071907074E09595AF
:100FF00087957A95E1F780932A03C90180729070F2
:1010000065E0959587956A95E1F7809329032074AB
:10101000307056E0359527955A95E1F720932803CF
:10102000441F4427441F409327034091BA02509124
:10103000BB026091BC027091BD02CAEAD2E0A0E09E
:10104000B0E0FD01E95DFC4F8081882321F128811A
:10105000398180918C0390918D03F901E81BF90B84
:101060004E175F073CF480918C0390918D03A9018A
:10107000481B590B80918C0390918D03F901E81B5B
:10108000F90BE617F7073CF480918C0390918D03E0
:10109000B901681B790B11962296A830B10589F623
:1010A000FFEF4F3F5F07D9F480913E03882339F06B
:1010B00080913803882319F481E080933F03809165
:1010C00039038A3020F48F5F8093390354C08091B4
:1010D0003F03882309F04FC08FEF9FEF48C064178C
:1010E0007507A1F410923F0310923903CB01845B82
:1010F00090409093300380932F0397FF3CC06C5433
:101100007F4F7093300360932F0335C010923F03DD
:10111000109239039A01261B370B243B310534F416
:1011200088E691E0FC01E21BF30B9F01C901959554
:101130008795F1E04F305F0754F06A3571053CF454
:10114000481B590B5093300340932F0306C0840F64
:10115000951F9093300380932F0380912F039091DC
:10116000300321E08936920734F0885691409093FD
:10117000300380932F038091C0029091C1028F5F52
:101180009F4F51F480912F0390913003845B9040E6
:101190009093C1028093C0028091C0029091C102DD
:1011A00097FF0AC08091C0029091C10288599E4F5A
:1011B0009093C1028093C002C0912F03D09130035D
:1011C0008CE4682E8FEF782E6C0E7D1E7092C30219
:1011D0006092C2028091C2029091C30297FF0AC03E
:1011E0008091C2029091C30288599E4F9093C3028E
:1011F0008093C20280913F03882319F081E080939D
:101200003803FFEFCF3FDF07D9F410923803D093B4
:10121000C102C093C002D093C302C093C202109215
:10122000420388E19CEF9093C5028093C402D0935F
:10123000BF02C093BE02109236031092350309C359
:1012400080913F03882311F010923E032091BE024B
:101250003091BF028FEF2F3F380769F180913F0334
:10126000882349F5FE01E21BF30B9F01F7FF03C042
:10127000309521953F4F3093360320933503253B1E
:10128000310544F088E691E0821B930B909336037E
:10129000809335038091350390913603853691050F
:1012A00034F081E080933E038093370304C01092B2
:1012B0003E031092370380913703882309F09AC0C8
:1012C00080913F03882309F095C08091C4029091DA
:1012D000C50297FF41C0F1E0CF30DF07A4F02091B5
:1012E000C0023091C102CE018E50914028173907BB
:1012F0000CF47AC08091C0029091C102895691404D
:101300000CF076C024C0CA35D105B4F42091C002D7
:101310003091C102CE01825F9E4F821793070CF479
:1013200063C08091C0029091C10297FD61C020917D
:10133000C0023091C1023DC02091C0023091C10273
:10134000CE01875A9F4F821793070CF451C020910A
:10135000C0023091C10242C081E0CF30D80794F082
:101360002091C4023091C502CE018E5091402817C1
:101370003907D4F18091C4029091C50289569140F9
:10138000BCF528C0CA35D105DCF42091C4023091E7
:10139000C502CE01825F9E4F821793072CF1809188
:1013A000C4029091C50297FD23C02091C4023091E0
:1013B000C502CE01875A9F4F82179307CCF014C005
:1013C0002091C4023091C502CE01875A9F4F8217E7
:1013D000930774F02091C4023091C502CE01895563
:1013E00090402817390724F081E080933E0302C023
:1013F00010923E0380913E03882329F0D093C502CA
:10140000C093C402E4C12091C0023091C102809116
:10141000C2029091C302281B390B37FF03C03095DD
:1014200021953F4F283231050CF4D1C180913E0304
:10143000882309F0CCC180913F03882309F0C7C1FC
:101440008091C0029091C1028F5F9F4F09F4BFC18C
:101450002091C0023091C1028091C2029091C302DA
:10146000821793070CF0D1C08091C0029091C10205
:101470002091C2023091C302821B930B853B9105E0
:101480000CF466C080914203823009F461C081E0AF
:10149000809342036091C2027091C3022091C00206
:1014A0003091C10268597E4F621B730B882777FD0C
:1014B0008095982F0E94EC1220E030E040E05FE33E
:1014C0000E94CC1320E030E048E452E40E94C113B3
:1014D000181654F48091C0029091C102C296909364
:1014E000C5028093C40234C06091C0027091C102F1
:1014F000E090C202F090C3028090C0029090C102BE
:10150000882777FD8095982F0E94EC125B016C0173
:1015100088E691E0E80EF91EE818F9080027F7FCC4
:101520000095102FC801B7010E94EC1220E030E0B6
:1015300040E05FE30E94CC139B01AC01C601B50102
:101540000E9487110E94B9127093C5026093C40271
:101550008091C0029091C1022091C2023091C302D9
:10156000821B930B843B91050CF031C180914203A7
:10157000813009F42CC182E0809342036091C00263
:101580007091C1022091C2023091C302621B730BA1
:10159000882777FD8095982F0E94EC1220E030E09C
:1015A00040E05FE30E94CC1320E030E048E452E4E6
:1015B0000E94C113181634F48091C0029091C102A8
:1015C000C297D0C06091C0027091C102E090C00289
:1015D000F090C102C090C202D090C302882777FD6C
:1015E0008095982F0E94EC124B015C01EC18FD08CD
:1015F0000027F7FC0095102FC801B7010E94EC12DC
:1016000020E030E040E05FEBD4C08091C2029091D6
:10161000C3022091C0023091C102821B930B853B13
:1016200091050CF466C080914203813009F461C0D9
:1016300082E0809342036091C0027091C1022091C8
:10164000C2023091C30268597E4F621B730B882718
:1016500077FD8095982F0E94EC1220E030E040E06A
:101660005FE30E94CC1320E030E048E452E40E94A3
:10167000C113181654F48091C0029091C102C29710
:101680009093C5028093C40234C06091C0027091EF
:10169000C102E090C002F090C1028090C20290901E
:1016A000C302882777FD8095982F0E94EC125B017A
:1016B0006C01E8E6F1E0EE0EFF1EE818F9080027DD
:1016C000F7FC0095102FC801B7010E94EC1220E032
:1016D00030E040E05FEB0E94CC139B01AC01C601FF
:1016E000B5010E9487110E94B9127093C5026093E0
:1016F000C4028091C2029091C3022091C002309135
:10170000C102821B930B843B91050CF060C0809159
:101710004203823009F45BC081E080934203609110
:10172000C2027091C3022091C0023091C102621BBB
:10173000730B882777FD8095982F0E94EC1220E08C
:1017400030E040E05FE30E94CC1320E030E048E46A
:1017500052E40E94C113181654F48091C002909173
:10176000C102C2969093C5028093C40230C06091BA
:10177000C0027091C102E090C202F090C302C0901A
:10178000C002D090C102882777FD8095982F0E94D3
:10179000EC124B015C01EC18FD080027F7FC0095EA
:1017A000102FC801B7010E94EC1220E030E040E0A9
:1017B0005FE30E94CC139B01AC01C501B4010E9400
:1017C00087110E94B9127093C5026093C402809180
:1017D000C4029091C50288519C4F09F18091C402C6
:1017E0009091C5028956914054F08091C402909125
:1017F000C502885691409093C5028093C40280919F
:10180000C4029091C50297FF0AC08091C4029091D2
:10181000C50288599E4F9093C5028093C40280915F
:101820003E03882371F0CE018C549F4F9093300378
:1018300080932F038956914024F070923003609278
:101840002F0380912F03909130039093BF028093D8
:10185000BE0280912F03909130039093CD0280932C
:10186000CC028FEF9FEF9093BB028093BA0288E681
:1018700091E09093BD028093BC02FF91EF91DF91C4
:10188000CF91BF91AF919F918F917F916F915F9118
:101890004F913F912F911F910F91FF90EF90DF900B
:1018A000CF90BF90AF909F908F907F906F900F9050
:1018B0000FBE0F901F901895AEE2B3E010922E036A
:1018C00020912E03FD0122932081FD013297208378
:1018D0002081FD01339720832081FD0134972083EF
:1018E0002081FD01359720832081FD0136972083DB
:1018F000208117972C939093C5008093C40080E9B2
:101900008093C10086E08093C20008950F931F93D7
:1019100080EC0E94801082E00E94D9100E94D110B9
:1019200081EC0E9480108823C9F70E94EB10182FC9
:101930000E94F510082F0E94D110312F20E0200FB7
:10194000311DC9011F910F9108950F931F938C01B1
:101950000E94860C9C01201B310B88EF283F380722
:101960001CF4205F314F06C087E02830380714F0A0
:1019700020513E40C9011F910F9108951F9380ECA3
:101980000E94801081E00E94D9100E94D11081EC49
:101990000E9480108823C9F70E94F510182F0E941A
:1019A000D110812F1F910895EF92FF920F931F93F3
:1019B00080ED0E948010882319F48BE30E94D910D7
:1019C00081ED0E94CE10882309F062C00E94EB10C6
:1019D000F82EEE24F0924A03E09249030E94EB10A5
:1019E000E80EF11C0027F7FC0095102FC801B70185
:1019F0000E94EC1220E030E04AE75DE30E94CC1345
:101A00000E94B9126751704070934A036093490372
:101A10000E94EB10F82EEE24F0924C03E0924B0360
:101A20000E94EB10E80EF11C0027F7FC0095102F28
:101A3000C801B7010E94EC1220E030E04AE75DE304
:101A40000E94CC130E94B91270934C0360934B0315
:101A50000E94EB10F82EEE24F0924E03E0924D031C
:101A60000E94F510E80EF11C0027F7FC0095102FDE
:101A7000C801B7010E94EC1220E030E04AE75DE3C4
:101A80000E94CC130E94B91270934E0360934D03D1
:101A90000E94D1101F910F91FF90EF900895EF9247
:101AA000FF920F931F9380ED0E948010882319F4FA
:101AB00083E40E94D91081ED0E94CE10882309F0A2
:101AC00064C00E94EB10F82EEE24F0924403E092E2
:101AD00043030E94EB10E80EF11C0027F7FC009571
:101AE000102FC801B7010E94EC1220E030E04AE755
:101AF0005DE30E94CC130E94B9126B517040709349
:101B00004403609343030E94EB10F82EEE24F092FE
:101B10004603E09245030E94EB10E80EF11C0027FB
:101B2000F7FC0095102FC801B7010E94EC1220E0CD
:101B300030E04AE75DE30E94CC130E94B912615085
:101B4000704070934603609345030E94EB10F82E9B
:101B5000EE24F0924803E09247030E94F510E80E4D
:101B6000F11C0027F7FC0095102FC801B7010E9457
:101B7000EC1220E030E04AE75DE30E94CC130E94C3
:101B8000B91270934803609347030E94D1101F91CC
:101B90000F91FF90EF90089580ED0E9480108BE6EA
:101BA0000E94D91080E80E94D9100E94D11088ECC0
:101BB00090E024EF31E0F9013197F1F70197D9F77F
:101BC00080ED0E9480108BE60E94D91080E00E9478
:101BD000D9100E94D11080ED0E9480108AE10E94ED
:101BE000D91086E00E94D91088E10E94D91080E0C7
:101BF0000E94D9100E94D11080ED0E9480108CE1CB
:101C00000E94D91080E10E94D9100E94D11008953D
:101C10000F931F9386EC0E948010882319F02FEFFA
:101C20003FEF13C081E00E94D91087EC0E94801022
:101C30000E94EB10082F0E94F510182F0E94D1105F
:101C4000912F80E09C01200F311DC9011F910F9140
:101C500008950F931F93CF93DF93182F092F86ECCE
:101C60000E948010882371F40E94D910812F902F38
:101C70009C01E90102C00E94D91089918823D9F7FB
:101C80000E94D110DF91CF911F910F910895FF9283
:101C90000F931F93CF93DF93F82E8B0186EC0E9456
:101CA00080108823B1F40E94D9108BE10E94D910D2
:101CB0008F2D0E94D910C0E0D0E0F801EC0FFD1F7D
:101CC00080810E94D9102196C830D105B1F70E94B9
:101CD000D110DF91CF911F910F91FF9008951F9325
:101CE000182F86EC0E94801080E00E94D910812F6E
:101CF0000E94D9100E94D1101F910895CF93DF93B5
:101D0000EC0186EC0E948010882359F40E94D910BF
:101D1000CD2B11F083E101C084E10E94D9100E9413
:101D2000D110DF91CF9108951F93182F86EC0E9458
:101D30008010882379F40E94D910112311F484E0D3
:101D400005C0123011F485E001C086E00E94D91070
:101D50000E94D1101F9108950F931F93182F062FE3
:101D600086EC0E948010882369F40E94D91083E0D9
:101D70000E94D910812F0E94D910802F0E94D91063
:101D80000E94D1101F910F91089586EC0E9480103F
:101D9000882339F40E94D9108CE00E94D9100E9447
:101DA000D1100895EF92FF920F931F93CF93DF937B
:101DB000182F062FF42EE52E86EC0E948010882323
:101DC000B9F40E94D91083E00E94D910812F0E949B
:101DD000D910802F0E94D9108F2D9E2D9C01E901D2
:101DE00002C00E94D91089918823D9F70E94D1108E
:101DF000DF91CF911F910F91FF90EF9008950F9376
:101E00001F93CF93DF9381E090E061E070E04EECB0
:101E100052E00E94D20E82E090E061E070E00E9409
:101E2000AC0EC0E0D0E001E010E00E94080E980186
:101E30000C2E02C0220F331F0A94E2F72823392305
:101E40000C2E02C0369527950A94E2F7822F805D0A
:101E50000E946F0E2196C031D10539F7DF91CF91E5
:101E60001F910F910895CF92DF92EF92FF920F93FF
:101E70001F93DF93CF93CDB7DEB764970FB6F89477
:101E8000DEBF0FBECDBF7C016B01CA018E010F5FAB
:101E90001F4FB801A9010E945914C701B601A8013A
:101EA0000E94D20E64960FB6F894DEBF0FBECDBF6F
:101EB000CF91DF911F910F91FF90EF90DF90CF9026
:101EC0000895CF92DF92EF92FF920F931F93DF93CB
:101ED000CF9300D000D000D0CDB7DEB77C016B012E
:101EE000CA018E010F5F1F4FB8014AE050E00E9407
:101EF0005914C701B601A8010E94D20E26960FB64A
:101F0000F894DEBF0FBECDBFCF91DF911F910F912F
:101F1000FF90EF90DF90CF9008950F931F93182FAD
:101F2000062F0E94801080E00E94D91080EA0E9453
:101F3000D9100E94D11084EF91E024EF31E0F90133
:101F40003197F1F70197D9F7812F0E94801080E037
:101F50000E94D9108AEA0E94D9100E94D11084EF01
:101F600091E024EF31E0F9013197F1F70197D9F7CA
:101F7000812F0E94801080E00E94D91085EA0E9483
:101F8000D9100E94D11084EF91E024EF31E0F901E3
:101F90003197F1F70197D9F7812F0E94801080E0E7
:101FA0000E94D910802F0E94D9100E94D1101F9139
:101FB0000F9108951F93182F0E9480108823B9F461
:101FC00081E00E94D91087E10E94D9100E94D110AF
:101FD000812F0E948010882351F482E00E94D91042
:101FE00080E30E94D9100E94D11081E001C080E0FE
:101FF0001F9108950E948010882321F40E94D1101F
:1020000081E008950E94D11080E008951F93182F59
:102010000E948010882311F080E015C081E00E94AA
:10202000D91080E00E94D91080E30E94D910812F3E
:102030000E94CE1080E00E94D91081E50E94D91044
:102040000E94D11081E01F910895FF920F931F937A
:10205000082F0E940610802F0E94FA0F8823D9F7BC
:1020600002C00E94D110802F0E9480108823C9F7DF
:1020700082E00E94D9100E94D1100F5F802F0E9431
:10208000CE108823D9F70E94EB10182F00E00E9491
:10209000F510F82E0E94D1100F0D111DC8011F91CF
:1020A0000F91FF900895FF920F931F93082F02C086
:1020B0000E94D110802F0E9480108823C9F782E0EF
:1020C0000E94D9100E94D1100F5F802F0E94CE1065
:1020D0008823D9F70E94EB10182F00E00E94F5101A
:1020E000F82E0E94D1100F0D111DC8011F910F91E4
:1020F000FF9008951092B9008CE58093B800089580
:10210000982F84EA8093BC008091BC0087FFFCCFAD
:102110008091B900887F883021F0803111F081E012
:1021200008959093BB0084E88093BC008091BC002C
:1021300087FFFCCF9091B900987F983111F480E02F
:10214000089580E0903409F081E00895982F44EAE2
:1021500034E824E94093BC008091BC0087FFFCCFA9
:102160008091B900887F883011F0803199F7909381
:10217000BB003093BC008091BC0087FFFCCF8091F6
:10218000B900887F803211F0883539F42093BC0083
:102190008091BC0084FDFCCFDDCF08950E948010AB
:1021A000089584E98093BC008091BC0084FDFCCF3D
:1021B00008958093BB0084E88093BC008091BC00AC
:1021C00087FFFCCF8091B90090E0887F883209F0CA
:1021D00091E0892F089584EC8093BC008091BC002D
:1021E00087FFFCCF8091BB00089584E88093BC00FA
:1021F0008091BC0087FFFCCF8091BB00089580E5F3
:102200000E9480108FE30E94D91080E20E94D910B2
:102210000E94D11008951F93182F80E50E9480100E
:10222000882319F4812F0E94D91081E50E94CE10D5
:10223000882311F01FEF03C00E94F510182F0E9491
:10224000D110812F1F9108958DE30E940B118C30C6
:10225000B1F080E50E9480108DE30E94D9108CE0DF
:102260000E94D9100E94D11080E50E9480108FE357
:102270000E94D91081E00E94D9100E94D1100895C7
:102280001F93CF93DF93182F80E50E94801088233F
:1022900019F4812F0E94D91081E50E94CE10882365
:1022A00019F0CFEFDFEF0AC00E94EB10C82FD0E08B
:1022B0000E94F510382F20E0C20FD31F0E94D110CA
:1022C000CE01DF91CF911F9108950E9440116AE0E5
:1022D00070E00E943214CB0108950E944011AA2799
:1022E00097FDA095BA2FBC01CD010E94EC1220E011
:1022F00030E048EC52E40E94511208950E944011CF
:1023000060E170E00E943214CB0108955058BB2761
:10231000AA270ED0FCC1EDD130F0F2D120F031F47B
:102320009F3F11F41EF4BDC10EF4E095E7FBB3C16D
:10233000E92FFED180F3BA17620773078407950768
:1023400018F071F49EF516C20EF4E0950B2EBA2F1C
:10235000A02D0B01B90190010C01CA01A0011124AB
:10236000FF27591B99F0593F50F4503E68F11A1657
:10237000F040A22F232F342F4427585FF3CF4695E8
:1023800037952795A795F0405395C9F77EF41F160A
:10239000BA0B620B730B840BBAF09150A1F0FF0FD4
:1023A000BB1F661F771F881FC2F70EC0BA0F621FC0
:1023B000731F841F48F4879577956795B795F795B0
:1023C0009E3F08F0B3CF9395880F08F09927EE0F42
:1023D0009795879508958DD158F080E891E009F49C
:1023E0009EEF8ED128F040E851E059F45EEF09C02D
:1023F00058C1C0C1E92FE0789BD168F3092E052AA6
:10240000C1F3261737074807590738F00E2E07F88B
:10241000E02569F0E025E0640AC0EF6307F8009466
:1024200007FADB01B9019D01DC01CA01AD01EF939F
:1024300047D06DD10AD05F91552331F02BED3FE0AD
:1024400049E450FD49EC63CF0895DF93DD27B92FB0
:10245000BF7740E85FE31616170648075B0710F4DE
:10246000D92F93D19F938F937F936F93F8D1ECE7FC
:10247000F0E01AD14CD12F913F914F915F9198D1BB
:10248000DD2349F09058A2EA2AED3FE049EC5FE3F2
:10249000D0785D274DDFDF913AC1D9D008F481E0D3
:1024A00008950CD034C12CD140F023D130F021F468
:1024B0005F3F19F0F0C051115EC1F3C039D198F3FC
:1024C0009923C9F35523B1F3951B550BBB27AA27B5
:1024D00062177307840738F09F5F5F4F220F331F27
:1024E000441FAA1FA9F333D00E2E3AF0E0E830D0F3
:1024F00091505040E695001CCAF729D0FE2F27D0F6
:10250000660F771F881FBB1F261737074807AB07C3
:10251000B0E809F0BB0B802DBF01FF2793585F4F38
:102520002AF09E3F510568F0B6C025C15F3FECF32D
:10253000983EDCF3869577956795B795F7959F5FFD
:10254000C9F7880F911D9695879597F90895E1E051
:10255000660F771F881FBB1F621773078407BA07B0
:1025600020F0621B730B840BBA0BEE1F88F7E0950B
:10257000089504D06894B111FEC00895E1D088F0A8
:102580009F5790F0B92F9927B751A0F0D1F0660F5F
:10259000771F881F991F1AF0BA95C9F712C0B1307A
:1025A00081F0E8D0B1E00895E5C0672F782F882743
:1025B000B85F39F0B93FCCF3869577956795B395B9
:1025C000D9F73EF490958095709561957F4F8F4F28
:1025D0009F4F0895E89409C097FB3EF4909580952D
:1025E000709561957F4F8F4F9F4F9923A9F0F92FD9
:1025F00096E9BB279395F695879577956795B79557
:10260000F111F8CFFAF4BB0F11F460FF1BC06F5F3C
:102610007F4F8F4F9F4F16C0882311F096E911C04E
:10262000772321F09EE8872F762F05C0662371F06F
:1026300096E8862F70E060E02AF09A95660F771F83
:10264000881FDAF7880F9695879597F90895990F5F
:102650000008550FAA0BE0E8FEEF16161706E8076C
:10266000F907C0F012161306E407F50798F0621B8D
:10267000730B840B950B39F40A2661F0232B242B62
:10268000252B21F408950A2609F4A140A6958FEF81
:10269000811D811D089597F99F6780E870E060E0D3
:1026A00008959FEF80EC0895DF93CF931F930F93CE
:1026B000FF92EF92DF927B018C01689405C0DA2EC5
:1026C000EF0176D0FE01E894A591259135914591D1
:1026D0005591AEF3EF012CDEFE019701A801DA94CB
:1026E00079F7DF90EF90FF900F911F91CF91DF91DD
:1026F000089500240A941616170618060906089568
:1027000000240A9412161306140605060895092ECD
:102710000394000C11F4882352F0BB0F40F4BF2B3C
:1027200011F460FF04C06F5F7F4F8F4F9F4F08957C
:1027300057FD9058440F551F59F05F3F71F0479572
:10274000880F97FB991F61F09F3F79F08795089557
:10275000121613061406551FF2CF4695F1DF08C076
:10276000161617061806991FF1CF86957105610593
:1027700008940895E894BB2766277727CB0197F93B
:10278000089565DF08F48FEF08959B01AC0160E0C8
:1027900070E080E89FE385CE0BD0B9CFAADF28F0A8
:1027A000AFDF18F0952309F076CF7BCF1124E3CF6C
:1027B000BFDFA0F3959FD1F3950F50E0551F629FA7
:1027C000F001729FBB27F00DB11D639FAA27F00D8A
:1027D000B11DAA1F649F6627B00DA11D661F829FB1
:1027E0002227B00DA11D621F739FB00DA11D621F96
:1027F000839FA00D611D221F749F3327A00D611DB3
:10280000231F849F600D211D822F762F6A2F112494
:102810009F5750408AF0E1F088234AF0EE0FFF1FE7
:10282000BB1F661F771F881F91505040A9F79E3F1E
:10283000510570F030CF9FCF5F3FECF3983EDCF353
:10284000869577956795B795F795E7959F5FC1F75B
:10285000FE2B880F911D9695879597F908959B01FA
:10286000AC019ACF97FB092E07260AD077FD04D03A
:102870000CD006D000201AF4709561957F4F089512
:10288000F6F7909581959F4F0895AA1BBB1B51E1C8
:1028900007C0AA1FBB1FA617B70710F0A61BB70BD0
:1028A000881F991F5A95A9F780959095BC01CD0175
:1028B0000895FB019F01E8944230C4F04532B4F41E
:1028C0004A3029F497FB1EF4909581959F4F642F11
:1028D00077270E944514805D8A330CF0895D8193CF
:1028E000CB010097A1F716F45DE251931082C90164
:1028F0000C948014A8E1B0E042E050E00C949214F3
:10290000DC01FC01672F71917723E1F7329704C056
:102910007C916D9370836291AE17BF07C8F30895E1
:10292000DC01CB01FC01F999FECF06C0F2BDE1BD8F
:10293000F89A319600B40D9241505040B8F708957E
:04294000F894FFCF39
:1029440055537C6C2F722F6100434D50004100425F
:1029540000430044004759524F00450046004700D9
:1029640048005A65697400000000005BF88E3CC79B
:10297400F20E3D3B5E563D7BDC8E3DB57EB23D04A2
:1029840013D63DA296F93D65830E3E5C30203ED4BD
:10299400D0313E6F63433ECDE6543E9159663E606E
:1029A400BA773EEE83843E57208D3EBEB1953E7A83
:1029B400379E3EDEB0A63E441DAF3E017CB73E6F5F
:1029C400CCBF3EE90DC83EC93FD03E6C61D83E2F16
:1029D40072E03E7171E83E945EF03EF738F83E00D6
:1029E40000003F89D9033FCAA8073F776D0B3F44D6
:1029F400270F3FE8D5123F1879163F8D101A3FFE76
:102A04009B1D3F241B213FBB8D243F7CF3273F2587
:102A14004C2B3F72972E3F22D5313FF304353FA70D
:102A240026383FFF393B3FBD3E3E3FA634413F7D04
:102A34001B443F0AF3463F13BB493F60734C3FBD01
:102A44001B4F3FF3B3513FCE3B543F1DB3563FAEF4
:102A540019593F516F5B3FD7B35D3F14E75F3FDACE
:102A640008623F0119643F5E17663FCA03683F1E50
:102A7400DE693F35A66B3FEC5B6D3F21FF6E3FB2D5
:102A84008F703F810D723F7178733F64D0743F3F04
:102A940015763FEA46773F4D65783F5170793FE2BE
:102AA400677A3FEB4B7B3F5C1C7C3F25D97C3F35F1
:102AB400827D3F81177E3FFD987E3F9E067F3F5C6F
:102AC400607F3F2FA67F3F14D87F3F05F67F3F00EE
:102AD40000803F4A015A00D2001700440071009E52
:102AE40000CB00F8002501520101170044007100D9
:102AF4009E00CB00F80025015201FFFF6901FFFF92
:102B0400FFFFFFFFFFFFFFFFFFFFFFFFFFFF31326C
:0C2B1400333435363738392A30230000BE
:00000001FF
