:100000000C943E000C945B000C945B000C945B0021
:100010000C945B000C945B000C945B000C945B00F4
:100020000C945B000C945B000C945B000C945B00E4
:100030000C945B000C945B000C945B000C945001DE
:100040000C945B000C945B000C945B000C945B00C4
:100050000C941C030C945B000C945B000C945B00F0
:100060000C94A8000C945B000C945B000C945B0057
:100070000C945B000C945B000C945B0011241FBE7D
:10008000CFEFD0E1DEBFCDBF12E0A0E0B1E0E2EC07
:10009000FEE102C005900D92A03CB107D9F713E034
:1000A000A0ECB2E001C01D92A034B107E1F70E94BC
:1000B00004010C945F0F0C9400009B0177FF04C0B7
:1000C00022273327261B370B2F3F310519F014F059
:1000D0009FEF01C0922F813071F0813028F0823083
:1000E00089F0833001F517C077FF02C0299A01C05B
:1000F000299897BD089577FF02C02A9A01C02A98CF
:1001000098BD08951616170614F45C9A01C05C9801
:100110009093B30008951616170614F45D9A01C063
:100120005D989093B400089590917C0090649093B2
:100130007C0097E890937A00882321F080917A00E0
:10014000886403C080917A00877F80937A00089545
:100150001F920F920FB60F9211242F933F934F933C
:100160005F936F938F939F93AF93BF93EF93FF939F
:1001700020917800309179006091C002E62FF0E084
:10018000EE0FFF1FDF01AF51BD4F8D919C91281BDA
:10019000390BDF01AF53BD4F2D933C93EF52FD4F11
:1001A00040815181CA01A6E0880F991FAA95E1F705
:1001B000841B950B280F391F86E0369527958A9565
:1001C000E1F7318320836F5F6093C002683010F0E5
:1001D0001092C0028091C002806480937C00809164
:1001E0007A00806480937A00FF91EF91BF91AF9184
:1001F0009F918F916F915F914F913F912F910F90B0
:100200000FBE0F901F901895A8952FE088E190E001
:100210000FB6F894A895809360000FBE20936000FD
:100220008FEF8AB95398529884B9429A439A459A63
:10023000469A479A5B9A5A9A0E94E40B93EA94BDB5
:1002400083E085BD9093B00084E08093B10081E0AD
:1002500080936F00809381000E94940004B603FC99
:100260002F9A84B7877F84BF0E9436090E94F007C7
:1002700090933B0380933A0378942E9A2F9A80E0D0
:100280006FEF70E00E945D0081E06FEF70E00E9410
:100290005D0082E06FEF70E00E945D00A895EDCFF9
:1002A0001F920F920FB60F9211242F933F934F93EB
:1002B0005F936F937F938F939F93AF93BF93EF93CE
:1002C000FF9380918E02813069F580EE0E94640B6D
:1002D000882351F080EE0E94BD0B9093FC02809326
:1002E000FB0280EE0E94700B82EE0E94640B88235A
:1002F00051F082EE0E94BD0B9093F8028093F702BA
:1003000082EE0E94700B86EE0E94640B882351F0EF
:1003100086EE0E94BD0B9093FA028093F90286EE5E
:100320000E94700B80918E02823009F052C00E94B0
:10033000B9080E94F0079093FE028093FD0280911D
:100340003A0390913B030E940F089093000380931F
:10035000FF028091C1029091C202909302038093A8
:1003600001038091C3029091C4029093040380938F
:1003700003038091C5029091C60290930603809377
:1003800005038091C7029091C8029093080380935F
:1003900007038091C9029091CA0290930A03809347
:1003A00009038091CB029091CC0290930C0380932F
:1003B0000B038091CD029091CE0290930E03809317
:1003C0000D038091CF029091D002909310038093FF
:1003D0000F0380918E02833009F00FC10E942F0A13
:1003E00081E090E061E070E040E051E00E943C0A72
:1003F0004091F7025091F80281E090E06AE070E0ED
:100400000E94CB0A4091F9025091FA0281E090E0FB
:100410006EE070E00E94CB0A4091FB025091FC021A
:1004200081E090E062E170E00E94CB0A82E090E01F
:1004300061E070E049E051E00E943C0A40912D03E8
:1004400050912E0382E090E066E070E00E94CB0ABB
:1004500040912F035091300382E090E06AE070E019
:100460000E94CB0A409131035091320382E090E028
:100470006EE070E00E94CB0A83E090E061E070E003
:100480004EE051E00E943C0A4091FD025091FE0274
:1004900083E090E065E070E00E94CB0A4091FF02AB
:1004A0005091000383E090E06AE070E00E94CB0A84
:1004B0008091F3029091F402843691050CF043C0D0
:1004C00084E090E061E070E042E151E00E943C0A8B
:1004D000409101035091020384E090E062E070E0FB
:1004E0000E94CB0A84E090E066E070E044E151E0D5
:1004F0000E943C0A409103035091040384E090E081
:1005000067E070E00E94CB0A84E090E06BE070E06E
:1005100046E151E00E943C0A4091050350910603D8
:1005200084E090E06CE070E00E94CB0A84E090E010
:1005300060E170E048E151E00E943C0A409107030D
:100540005091080346C0883C91050CF052C084E0ED
:1005500090E061E070E04AE151E00E943C0A409185
:10056000090350910A0384E090E062E070E00E9489
:10057000CB0A84E090E066E070E04CE151E00E943C
:100580003C0A40910B0350910C0384E090E067E03B
:1005900070E00E94CB0A84E090E06BE070E04EE1F6
:1005A00051E00E943C0A40910D0350910E0384E0FB
:1005B00090E06CE070E00E94CB0A84E090E060E1A3
:1005C00070E040E251E00E943C0A40910F035091DC
:1005D000100384E090E061E170E00E94CB0A80911A
:1005E000F3029091F40201969093F4028093F30247
:1005F00004C01092F4021092F30280918E028330B4
:1006000011F481E001C08F5F80938E02FF91EF9122
:10061000BF91AF919F918F917F916F915F914F911A
:100620003F912F910F900FBE0F901F9018959093B0
:100630003F0380933E0308951F920F920FB60F92CF
:1006400011246F927F928F929F92AF92BF92CF921E
:10065000DF92EF92FF920F931F932F933F934F934D
:100660005F936F937F938F939F93AF93BF93CF933A
:10067000DF93EF93FF934091C600842F81708093A6
:100680001803242F30E0C9018270907095958795EA
:1006900080931703C90184709070959587959595FF
:1006A000879580931603C90188709070E3E0959553
:1006B0008795EA95E1F780931503C90180719070E1
:1006C00074E0959587957A95E1F780931403C901B5
:1006D0008072907065E0959587956A95E1F78093B3
:1006E00013032074307056E0359527955A95E1F73D
:1006F00020931203441F4427441F40931103409149
:100700009F025091A0026091A1027091A202CFE8D5
:10071000D2E0A0E0B0E0FD01EF5EFC4F80818823D5
:1007200021F12881398180913C0390913D03F901A9
:10073000E81BF90B4E175F073CF480913C03909146
:100740003D03A901481B590B80913C0390913D0347
:10075000F901E81BF90BE617F7073CF480913C031D
:1007600090913D03B901681B790B11962296A83030
:10077000B10589F6FFEF4F3F5F07D9F48091280359
:10078000882339F080912203882319F481E0809333
:100790002903809123038A3020F48F5F8093230301
:1007A00054C080912903882309F04FC08FEF9FEF39
:1007B00048C064177507A1F410922903109223030F
:1007C000CB01845B904090931A038093190397FFA9
:1007D0003CC06C547F4F70931A036093190335C06B
:1007E00010922903109223039A01261B370B243BF6
:1007F000310534F488E691E0FC01E21BF30B9F0124
:10080000C90195958795F1E04F305F0754F06A353F
:1008100071053CF4481B590B50931A03409319037C
:1008200006C0840F951F90931A038093190380913B
:10083000190390911A0321E08936920734F0885603
:10084000914090931A03809319038091A50290918F
:10085000A6028F5F9F4F51F48091190390911A0364
:10086000845B90409093A6028093A5028091A5029C
:100870009091A60297FF0AC08091A5029091A602CE
:1008800088599E4F9093A6028093A502C0911903A8
:10089000D0911A038CE4682E8FEF782E6C0E7D1E9B
:1008A0007092A8026092A7028091A7029091A8027C
:1008B00097FF0AC08091A7029091A80288599E4F85
:1008C0009093A8028093A70280912903882319F0AE
:1008D00081E080932203FFEFCF3FDF07D9F410922E
:1008E0002203D093A602C093A502D093A802C0937E
:1008F000A70210922C0388E19CEF9093AA028093A8
:10090000A902D093A402C093A302109220031092D4
:100910001F0309C380912903882311F01092280333
:100920002091A3023091A4028FEF2F3F380769F185
:1009300080912903882349F5FE01E21BF30B9F01F7
:10094000F7FF03C0309521953F4F3093200320934C
:100950001F03253B310544F088E691E0821B930B91
:100960009093200380931F0380911F039091200395
:100970008536910534F081E080932803809321032C
:1009800004C0109228031092210380912103882330
:1009900009F09AC080912903882309F095C08091BD
:1009A000A9029091AA0297FF41C0F1E0CF30DF0782
:1009B000A4F02091A5023091A602CE018E50914064
:1009C000281739070CF47AC08091A5029091A602ED
:1009D000895691400CF076C024C0CA35D105B4F4D4
:1009E0002091A5023091A602CE01825F9E4F821710
:1009F00093070CF463C08091A5029091A60297FD25
:100A000061C02091A5023091A6023DC02091A502AF
:100A10003091A602CE01875A9F4F821793070CF49C
:100A200051C02091A5023091A60242C081E0CF3092
:100A3000D80794F02091A9023091AA02CE018E50DD
:100A4000914028173907D4F18091A9029091AA0208
:100A500089569140BCF528C0CA35D105DCF42091F7
:100A6000A9023091AA02CE01825F9E4F821793079E
:100A70002CF18091A9029091AA0297FD23C02091A8
:100A8000A9023091AA02CE01875A9F4F821793077D
:100A9000CCF014C02091A9023091AA02CE01875A4D
:100AA0009F4F8217930774F02091A9023091AA02F8
:100AB000CE01895590402817390724F081E08093B2
:100AC000280302C01092280380912803882329F06C
:100AD000D093AA02C093A902E4C12091A50230914B
:100AE000A6028091A7029091A802281B390B37FF1C
:100AF00003C0309521953F4F283231050CF4D1C108
:100B000080912803882309F0CCC180912903882390
:100B100009F0C7C18091A5029091A6028F5F9F4FF7
:100B200009F4BFC12091A5023091A6028091A702CD
:100B30009091A802821793070CF0D1C08091A50272
:100B40009091A6022091A7023091A802821B930BDC
:100B5000853B91050CF466C080912C03823009F42A
:100B600061C081E080932C036091A7027091A8027C
:100B70002091A5023091A60268597E4F621B730B2B
:100B8000882777FD8095982F0E94F00D20E030E0B7
:100B900040E05FE30E94800E20E030E048E452E451
:100BA0000E947C0E181654F48091A5029091A60222
:100BB000C2969093AA028093A90234C06091A502C4
:100BC0007091A602E090A702F090A8028090A50282
:100BD0009090A602882777FD8095982F0E94F00DAF
:100BE0005B016C0188E691E0E80EF91EE818F9084F
:100BF0000027F7FC0095102FC801B7010E94F00DE7
:100C000020E030E040E05FE30E94800E9B01AC01F9
:100C1000C601B5010E94F10C0E94BD0D7093AA029D
:100C20006093A9028091A5029091A6022091A7024B
:100C30003091A802821B930B843B91050CF031C1CB
:100C400080912C03813009F42CC182E080932C0325
:100C50006091A5027091A6022091A7023091A8028E
:100C6000621B730B882777FD8095982F0E94F00DEB
:100C700020E030E040E05FE30E94800E20E030E0C2
:100C800048E452E40E947C0E181634F48091A502C8
:100C90009091A602C297D0C06091A5027091A60261
:100CA000E090A502F090A602C090A702D090A80202
:100CB000882777FD8095982F0E94F00D4B015C01ED
:100CC000EC18FD080027F7FC0095102FC801B701AC
:100CD0000E94F00D20E030E040E05FEBD4C0809156
:100CE000A7029091A8022091A5023091A602821B32
:100CF000930B853B91050CF466C080912C038130E9
:100D000009F461C082E080932C036091A502709188
:100D1000A6022091A7023091A80268597E4F621B5B
:100D2000730B882777FD8095982F0E94F00D20E0A7
:100D300030E040E05FE30E94800E20E030E048E4D5
:100D400052E40E947C0E181654F48091A5029091F2
:100D5000A602C2979093AA028093A90234C0609120
:100D6000A5027091A602E090A502F090A6028090E4
:100D7000A7029090A802882777FD8095982F0E945F
:100D8000F00D5B016C01E8E6F1E0EE0EFF1EE818E5
:100D9000F9080027F7FC0095102FC801B7010E9441
:100DA000F00D20E030E040E05FEB0E94800E9B0100
:100DB000AC01C601B5010E94F10C0E94BD0D7093FB
:100DC000AA026093A9028091A7029091A8022091A3
:100DD000A5023091A602821B930B843B91050CF077
:100DE00060C080912C03823009F45BC081E0809365
:100DF0002C036091A7027091A8022091A502309166
:100E0000A602621B730B882777FD8095982F0E949E
:100E1000F00D20E030E040E05FE30E94800E20E033
:100E200030E048E452E40E947C0E181654F480919D
:100E3000A5029091A602C2969093AA028093A9025D
:100E400030C06091A5027091A602E090A702F090D8
:100E5000A802C090A502D090A602882777FD8095B1
:100E6000982F0E94F00D4B015C01EC18FD08002743
:100E7000F7FC0095102FC801B7010E94F00D20E08B
:100E800030E040E05FE30E94800E9B01AC01C501B1
:100E9000B4010E94F10C0E94BD0D7093AA026093F0
:100EA000A9028091A9029091AA0288519C4F09F150
:100EB0008091A9029091AA028956914054F08091A4
:100EC000A9029091AA02885691409093AA02809319
:100ED000A9028091A9029091AA0297FF0AC080916D
:100EE000A9029091AA0288599E4F9093AA028093DA
:100EF000A90280912803882371F0CE018C549F4F62
:100F000090931A03809319038956914024F07092AC
:100F10001A03609219038091190390911A03909318
:100F2000A4028093A3028091190390911A039093D5
:100F3000B2028093B1028FEF9FEF9093A002809353
:100F40009F0288E691E09093A2028093A102FF9114
:100F5000EF91DF91CF91BF91AF919F918F917F9151
:100F60006F915F914F913F912F911F910F91FF9042
:100F7000EF90DF90CF90BF90AF909F908F907F9039
:100F80006F900F900FBE0F901F901895A8E1B3E0DF
:100F90001092180320911803FD0122932081FD0176
:100FA000329720832081FD01339720832081FD012A
:100FB000349720832081FD01359720832081FD0116
:100FC00036972083208117972C939093C5008093A8
:100FD000C40080E98093C10086E08093C200089538
:100FE0000F931F9380EC0E94EA0B82E00E94430C57
:100FF0000E943B0C81EC0E94EA0B8823C9F70E94F7
:10100000550C182F0E945F0C082F0E943B0C312FAB
:1010100020E0200F311DC9011F910F9108950F93FA
:101020001F938C010E94F0079C01201B310B88EF5D
:10103000283F38071CF4205F314F06C087E0283076
:10104000380714F020513E40C9011F910F910895B7
:101050001F9380EC0E94EA0B81E00E94430C0E94E7
:101060003B0C81EC0E94EA0B8823C9F70E945F0CBD
:10107000182F0E943B0C812F1F910895EF92FF9231
:101080000F931F9380ED0E94EA0B882319F48BE3E2
:101090000E94430C81ED0E94380C882309F062C045
:1010A0000E94550CF82EEE24F0923403E0923303A4
:1010B0000E94550CE80EF11C0027F7FC0095102F3C
:1010C000C801B7010E94F00D20E030E04AE75DE37F
:1010D0000E94800E0E94BD0D6751704070933403D2
:1010E000609333030E94550CF82EEE24F0923603E1
:1010F000E09235030E94550CE80EF11C0027F7FC26
:101100000095102FC801B7010E94F00D20E030E0DB
:101110004AE75DE30E94800E0E94BD0D7093360386
:10112000609335030E94550CF82EEE24F09238039C
:10113000E09237030E945F0CE80EF11C0027F7FCD9
:101140000095102FC801B7010E94F00D20E030E09B
:101150004AE75DE30E94800E0E94BD0D7093380344
:10116000609337030E943B0C1F910F91FF90EF900B
:101170000895EF92FF920F931F9380ED0E94EA0B68
:10118000882319F483E40E94430C81ED0E94380CFB
:10119000882309F064C00E94550CF82EEE24F092CA
:1011A0002E03E0922D030E94550CE80EF11C00273F
:1011B000F7FC0095102FC801B7010E94F00D20E048
:1011C00030E04AE75DE30E94800E0E94BD0D6B5146
:1011D000704070932E0360932D030E94550CF82EDF
:1011E000EE24F0923003E0922F030E94550CE80E9B
:1011F000F11C0027F7FC0095102FC801B7010E94D1
:10120000F00D20E030E04AE75DE30E94800E0E948E
:10121000BD0D615070407093300360932F030E94A6
:10122000550CF82EEE24F0923203E09231030E9426
:101230005F0CE80EF11C0027F7FC0095102FC80189
:10124000B7010E94F00D20E030E04AE75DE30E9424
:10125000800E0E94BD0D70933203609331030E9493
:101260003B0C1F910F91FF90EF90089580ED0E942D
:10127000EA0B8BE60E94430C80E80E94430C0E941C
:101280003B0C88EC90E024EF31E0F9013197F1F765
:101290000197D9F780ED0E94EA0B8BE60E94430C80
:1012A00080E00E94430C0E943B0C80ED0E94EA0B00
:1012B0008AE10E94430C86E00E94430C88E10E9470
:1012C000430C80E00E94430C0E943B0C80ED0E9486
:1012D000EA0B8CE10E94430C80E10E94430C0E94C7
:1012E0003B0C08950F931F9386EC0E94EA0B882312
:1012F00019F02FEF3FEF13C081E00E94430C87EC01
:101300000E94EA0B0E94550C082F0E945F0C182FB8
:101310000E943B0C912F80E09C01200F311DC901E0
:101320001F910F9108950F931F93CF93DF93182F61
:10133000092F86EC0E94EA0B882371F40E94430C6B
:10134000812F902F9C01E90102C00E94430C8991DA
:101350008823D9F70E943B0CDF91CF911F910F9109
:101360000895FF920F931F93CF93DF93F82E8B0175
:1013700086EC0E94EA0B8823B1F40E94430C8BE1B7
:101380000E94430C8F2D0E94430CC0E0D0E0F80176
:10139000EC0FFD1F80810E94430C2196C830D105BF
:1013A000B1F70E943B0CDF91CF911F910F91FF90FD
:1013B00008951F93182F86EC0E94EA0B80E00E948C
:1013C000430C812F0E94430C0E943B0C1F910895F7
:1013D000CF93DF93EC0186EC0E94EA0B882359F44B
:1013E0000E94430CCD2B11F083E101C084E10E94E7
:1013F000430C0E943B0CDF91CF9108951F93182F4F
:1014000086EC0E94EA0B882379F40E94430C112396
:1014100011F484E005C0123011F485E001C086E0CB
:101420000E94430C0E943B0C1F9108950F931F9341
:10143000182F062F86EC0E94EA0B882369F40E947D
:10144000430C83E00E94430C812F0E94430C802FA9
:101450000E94430C0E943B0C1F910F91089586EC53
:101460000E94EA0B882339F40E94430C8CE00E940E
:10147000430C0E943B0C0895EF92FF920F931F9331
:10148000CF93DF93182F062FF42EE52E86EC0E94C3
:10149000EA0B8823B9F40E94430C83E00E94430CBA
:1014A000812F0E94430C802F0E94430C8F2D9E2D74
:1014B0009C01E90102C00E94430C89918823D9F75D
:1014C0000E943B0CDF91CF911F910F91FF90EF9005
:1014D00008950F931F93CF93DF9381E090E061E035
:1014E00070E043EB52E00E943C0A82E090E061E051
:1014F00070E00E94160AC0E0D0E001E010E00E9417
:10150000720998010C2E02C0220F331F0A94E2F7D1
:10151000282339230C2E02C0369527950A94E2F72A
:10152000822F805D0E94D9092196C031D10539F7FB
:10153000DF91CF911F910F910895CF92DF92EF929B
:10154000FF920F931F93DF93CF93CDB7DEB76497CE
:101550000FB6F894DEBF0FBECDBF7C016B01CA0190
:101560008E010F5F1F4FB801A9010E942E0FC70106
:10157000B601A8010E943C0A64960FB6F894DEBF3B
:101580000FBECDBFCF91DF911F910F91FF90EF90D4
:10159000DF90CF900895CF92DF92EF92FF920F935A
:1015A0001F93DF93CF9300D000D000D0CDB7DEB72C
:1015B0007C016B01CA018E010F5F1F4FB8014AE029
:1015C00050E00E942E0FC701B601A8010E943C0AFC
:1015D00026960FB6F894DEBF0FBECDBFCF91DF9138
:1015E0001F910F91FF90EF90DF90CF9008950F9390
:1015F0001F93182F062F0E94EA0B80E00E94430CD5
:1016000080EA0E94430C0E943B0C84EF91E024EF9F
:1016100031E0F9013197F1F70197D9F7812F0E9455
:10162000EA0B80E00E94430C8AEA0E94430C0E946D
:101630003B0C84EF91E024EF31E0F9013197F1F7B1
:101640000197D9F7812F0E94EA0B80E00E94430C9A
:1016500085EA0E94430C0E943B0C84EF91E024EF4A
:1016600031E0F9013197F1F70197D9F7812F0E9405
:10167000EA0B80E00E94430C802F0E94430C0E94E2
:101680003B0C1F910F9108951F93182F0E94EA0B96
:101690008823B9F481E00E94430C87E10E94430C47
:1016A0000E943B0C812F0E94EA0B882351F482E0B8
:1016B0000E94430C80E30E94430C0E943B0C81E09B
:1016C00001C080E01F9108950E94EA0B882321F455
:1016D0000E943B0C81E008950E943B0C80E008953D
:1016E0001F93182F0E94EA0B882311F080E015C089
:1016F00081E00E94430C80E00E94430C80E30E9442
:10170000430C812F0E94380C80E00E94430C81E53D
:101710000E94430C0E943B0C81E01F910895FF92B0
:101720000F931F93082F0E94700B802F0E94640B51
:101730008823D9F702C00E943B0C802F0E94EA0B3D
:101740008823C9F782E00E94430C0E943B0C0F5F84
:10175000802F0E94380C8823D9F70E94550C182F2F
:1017600000E00E945F0CF82E0E943B0C0F0D111D33
:10177000C8011F910F91FF900895FF920F931F933F
:10178000082F02C00E943B0C802F0E94EA0B882386
:10179000C9F782E00E94430C0E943B0C0F5F802F30
:1017A0000E94380C8823D9F70E94550C182F00E0AE
:1017B0000E945F0CF82E0E943B0C0F0D111DC801FA
:1017C0001F910F91FF9008951092B9008CE58093BE
:1017D000B8000895982F84EA8093BC008091BC00E3
:1017E00087FFFCCF8091B900887F883021F080315D
:1017F00011F081E008959093BB0084E88093BC00D1
:101800008091BC0087FFFCCF9091B900987F983100
:1018100011F480E0089580E0903409F081E00895AB
:10182000982F44EA34E824E94093BC008091BC003E
:1018300087FFFCCF8091B900887F883011F080311C
:1018400099F79093BB003093BC008091BC0087FF58
:10185000FCCF8091B900887F803211F0883539F44F
:101860002093BC008091BC0084FDFCCFDDCF0895A7
:101870000E94EA0B089584E98093BC008091BC002B
:1018800084FDFCCF08958093BB0084E88093BC0066
:101890008091BC0087FFFCCF8091B90090E0887FE9
:1018A000883209F091E0892F089584EC8093BC0080
:1018B0008091BC0087FFFCCF8091BB00089584E835
:1018C0008093BC008091BC0087FFFCCF8091BB005F
:1018D000089580E50E94EA0B8FE30E94430C80E2AA
:1018E0000E94430C0E943B0C08951F93182F80E523
:1018F0000E94EA0B882319F4812F0E94430C81E592
:101900000E94380C882311F01FEF03C00E945F0C67
:10191000182F0E943B0C812F1F9108958DE30E9488
:10192000750C8C30B1F080E50E94EA0B8DE30E94CB
:10193000430C8CE00E94430C0E943B0C80E50E940B
:10194000EA0B8FE30E94430C81E00E94430C0E944B
:101950003B0C08951F93CF93DF93182F80E50E94CF
:10196000EA0B882319F4812F0E94430C81E50E9421
:10197000380C882319F0CFEFDFEF0AC00E94550C16
:10198000C82FD0E00E945F0C382F20E0C20FD31F79
:101990000E943B0CCE01DF91CF911F9108950E94D0
:1019A000AA0C6AE070E00E94070FCB0108950E9424
:1019B000AA0CAA2797FDA095BA2FBC01CD010E94C1
:1019C000F00D20E030E048EC52E40E94550D0895FF
:1019D0000E94AA0C60E170E00E94070FCB010895FD
:1019E0005058BB27AA270ED04DC13ED130F043D16D
:1019F00020F031F49F3F11F41EF433C10EF4E09552
:101A0000E7FB29C1E92F4FD180F3BA1762077307AB
:101A10008407950718F071F49EF567C10EF4E09500
:101A20000B2EBA2FA02D0B01B90190010C01CA0198
:101A3000A0011124FF27591B99F0593F50F4503E43
:101A400068F11A16F040A22F232F342F4427585F35
:101A5000F3CF469537952795A795F0405395C9F74D
:101A60007EF41F16BA0B620B730B840BBAF0915005
:101A7000A1F0FF0FBB1F661F771F881FC2F70EC0A4
:101A8000BA0F621F731F841F48F487957795679577
:101A9000B795F7959E3F08F0B3CF9395880F08F060
:101AA0009927EE0F9795879508950CD0EBC0E3D05A
:101AB00040F0DAD030F021F45F3F19F0CCC0511182
:101AC00015C1CFC0F0D098F39923C9F35523B1F3D2
:101AD000951B550BBB27AA2762177307840738F09D
:101AE0009F5F5F4F220F331F441FAA1FA9F333D0FC
:101AF0000E2E3AF0E0E830D091505040E695001CB0
:101B0000CAF729D0FE2F27D0660F771F881FBB1F6B
:101B1000261737074807AB07B0E809F0BB0B802D45
:101B2000BF01FF2793585F4F2AF09E3F510568F091
:101B300092C0DCC05F3FECF3983EDCF3869577956E
:101B40006795B795F7959F5FC9F7880F911D969593
:101B5000879597F90895E1E0660F771F881FBB1FEF
:101B6000621773078407BA0720F0621B730B840B9C
:101B7000BA0BEE1F88F7E095089504D06894B11170
:101B8000B5C0089598D088F09F5790F0B92F992745
:101B9000B751A0F0D1F0660F771F881F991F1AF078
:101BA000BA95C9F712C0B13081F09FD0B1E0089565
:101BB0009CC0672F782F8827B85F39F0B93FCCF3E6
:101BC000869577956795B395D9F73EF4909580956E
:101BD000709561957F4F8F4F9F4F0895E89409C08E
:101BE00097FB3EF490958095709561957F4F8F4F50
:101BF0009F4F9923A9F0F92F96E9BB279395F69566
:101C0000879577956795B795F111F8CFFAF4BB0FE3
:101C100011F460FF1BC06F5F7F4F8F4F9F4F16C047
:101C2000882311F096E911C0772321F09EE8872FD1
:101C3000762F05C0662371F096E8862F70E060E08D
:101C40002AF09A95660F771F881FDAF7880F969506
:101C5000879597F9089597F99F6780E870E060E0AD
:101C600008959FEF80EC089500240A941616170635
:101C700018060906089500240A941216130614067D
:101C800005060895092E0394000C11F4882352F0E0
:101C9000BB0F40F4BF2B11F460FF04C06F5F7F4F98
:101CA0008F4F9F4F089557FD9058440F551F59F07F
:101CB0005F3F71F04795880F97FB991F61F09F3F39
:101CC00079F087950895121613061406551FF2CF62
:101CD0004695F1DF08C0161617061806991FF1CFB2
:101CE00086957105610508940895E894BB276627D9
:101CF0007727CB0197F9089566D008F48FEF089500
:101D00000BD0C0CFB1DF28F0B6DF18F0952309F073
:101D1000A2CFA7CF1124EACFC6DFA0F3959FD1F3BE
:101D2000950F50E0551F629FF001729FBB27F00D89
:101D3000B11D639FAA27F00DB11DAA1F649F6627DE
:101D4000B00DA11D661F829F2227B00DA11D621F2D
:101D5000739FB00DA11D621F839FA00D611D221FE7
:101D6000749F3327A00D611D231F849F600D211DCB
:101D7000822F762F6A2F11249F5750408AF0E1F06E
:101D800088234AF0EE0FFF1FBB1F661F771F881FB7
:101D900091505040A9F79E3F510570F05CCFA6CFFF
:101DA0005F3FECF3983EDCF3869577956795B795A2
:101DB000F795E7959F5FC1F7FE2B880F911D9695CC
:101DC000879597F90895990F0008550FAA0BE0E839
:101DD000FEEF16161706E807F907C0F012161306ED
:101DE000E407F50798F0621B730B840B950B39F42D
:101DF0000A2661F0232B242B252B21F408950A2693
:101E000009F4A140A6958FEF811D811D089597FBD0
:101E1000092E07260AD077FD04D00CD006D000206A
:101E20001AF4709561957F4F0895F6F79095819516
:101E30009F4F0895AA1BBB1B51E107C0AA1FBB1FE0
:101E4000A617B70710F0A61BB70B881F991F5A9546
:101E5000A9F780959095BC01CD010895FB019F01E4
:101E6000E8944230C4F04532B4F44A3029F497FB88
:101E70001EF4909581959F4F642F77270E941A0F2B
:101E8000805D8A330CF0895D8193CB010097A1F7C7
:101E900016F45DE251931082C9010C944F0FDC01DE
:101EA000FC01672F71917723E1F7329704C07C9191
:101EB0006D9370836291AE17BF07C8F30895F894CD
:021EC000FFCF52
:101EC20055537C6C2F722F61004759524F00434D7E
:101ED20050004100420043004400450046004700D4
:101EE2004800000000005BF88E3CC7F20E3D3B5EEE
:101EF200563D7BDC8E3DB57EB23D0413D63DA296A7
:101F0200F93D65830E3E5C30203ED4D0313E6F6396
:101F1200433ECDE6543E9159663E60BA773EEE832B
:101F2200843E57208D3EBEB1953E7A379E3EDEB04E
:101F3200A63E441DAF3E017CB73E6FCCBF3EE90DCD
:101F4200C83EC93FD03E6C61D83E2F72E03E7171EF
:101F5200E83E945EF03EF738F83E0000003F89D933
:101F6200033FCAA8073F776D0B3F44270F3FE8D5D1
:101F7200123F1879163F8D101A3FFE9B1D3F241BFE
:101F8200213FBB8D243F7CF3273F254C2B3F72978B
:101F92002E3F22D5313FF304353FA726383FFF3984
:101FA2003B3FBD3E3E3FA634413F7D1B443F0AF3CB
:101FB200463F13BB493F60734C3FBD1B4F3FF3B3DA
:101FC200513FCE3B543F1DB3563FAE19593F516F5F
:101FD2005B3FD7B35D3F14E75F3FDA08623F011909
:101FE200643F5E17663FCA03683F1EDE693F35A63F
:101FF2006B3FEC5B6D3F21FF6E3FB28F703F810DF7
:10200200723F7178733F64D0743F3F15763FEA4662
:10201200773F4D65783F5170793FE2677A3FEB4BEE
:102022007B3F5C1C7C3F25D97C3F35827D3F8117FD
:102032007E3FFD987E3F9E067F3F5C607F3F2FA6DE
:102042007F3F14D87F3F05F67F3F0000803F011796
:1020520000440071009E00CB00F80025015201FFF0
:10206200FF6901FFFFFFFFFFFFFFFFFFFFFFFFFF12
:10207200FFFFFF3132333435363738392A30230007
:00000001FF
