:100000000C9455000C9472000C9472000C947200C5
:100010000C9472000C9472000C9472000C94720098
:100020000C9472000C9472000C9472000C94720088
:100030000C9472000C9472000C9472000C94FB03EC
:100040000C9472000C9472000C9472000C94720068
:100050000C9466070C9472000C9472000C9472005D
:100060000C94BF000C9472000C9472000C947200FB
:100070000C9472000C9472000C947200084AD73BE6
:100080003BCE016E84BCBFFDC12F3D6C74319ABD67
:1000900056833DDA3D00C77F11BED9E4BB4C3E918B
:1000A0006BAAAABE000000803F0011241FBECFEF44
:1000B000D0E1DEBFCDBF12E0A0E0B1E0E2EDF8E2BA
:1000C00002C005900D92AC3DB107D9F713E0ACED3D
:1000D000B2E001C01D92A035B107E1F70E94EA022B
:1000E0000C9467140C9400009B0177FF04C0222736
:1000F0003327261B370B2F3F310519F014F09FEFE4
:1001000001C0922F813071F0813028F0823089F067
:10011000833001F517C077FF02C0299A01C02998E2
:1001200097BD089577FF02C02A9A01C02A9898BD0A
:1001300008951616170614F45C9A01C05C98909303
:10014000B30008951616170614F45D9A01C05D9861
:100150009093B400089590917C00906490937C00FB
:1001600097E890937A00882321F080917A00886440
:1001700003C080917A00877F80937A0008951F9250
:100180000F920FB60F9211242F933F934F935F93CB
:100190006F938F939F93AF93BF93EF93FF932091B0
:1001A0007800309179006091DC02E62FF0E0EE0FEC
:1001B000FF1FDF01A350BD4F8D919C91281B390B70
:1001C000DF01A352BD4F2D933C93E351FD4F40817E
:1001D0005181CA01A6E0880F991FAA95E1F7841BF7
:1001E000950B280F391F86E0369527958A95E1F7FC
:1001F000318320836F5F6093DC02683010F01092CF
:10020000DC028091DC02806480937C0080917A0023
:10021000806480937A00FF91EF91BF91AF919F919D
:100220008F916F915F914F913F912F910F900FBEE2
:100230000F901F901895EDEDF2E020E030E0808106
:1002400091812817390708F49C01329682E0ED3E2F
:10025000F807A9F7C90108959A01680F791F6A552F
:1002600070406531710538F40A9664E170E00E94CF
:10027000E61360934803C9010A9664E170E00E94A6
:10028000E6136093490308950F931F9380914803E9
:10029000833001F1843028F4813051F0823069F4E8
:1002A00011C0853009F18530D0F0863031F421C09D
:1002B00060E070E080E791E409C060E070E080E019
:1002C00090E004C060E070E080E291E400914903B6
:1002D00010E01BC060E070E080EA90E4F7CF60E0DF
:1002E00070E080EA90ECF2CF60E070E080E291ECA8
:1002F000EDCF60E070E080E791ECE8CF2AE939E9E2
:1003000049E95FE30E9480131F5F1017B9F70E944D
:100310006D12DC01CB011F910F910895AF92BF9236
:10032000CF92DF92EF92FF920F931F93CF93DF93C1
:10033000EB0120910D03332727FD3095280F391F3E
:10034000253B31051CF02856314006C08FEF2C3478
:10035000380714F428593E4FB901882777FD809556
:10036000982F0E94A0127B018C0122E539E44DE117
:100370005CE30E94801320E030E040E050E00E9407
:100380003B115B016C0120E030E04AEF53E40E9436
:10039000751318165CF40F2EF0E0AF2EF0E0BF2EB0
:1003A000FAEFCF2EF3E4DF2EF02D14C0C601B50115
:1003B00020E030E04AEF53EC0E940112882354F40D
:1003C0000F2EF0E0AF2EF0E0BF2EFAEFCF2EF3ECC1
:1003D000DF2EF02DC801B70120E030E040E05FE300
:1003E0000E9480137B018C01C601B50120E030E042
:1003F00040E050E00E94801323E333E343EF5FEBE0
:100400000E9480139B01AC01C801B7010E943B11FF
:100410007B018C01BE01882777FD8095982F0E9473
:10042000A0122AE939E949E95EEB0E9480139B0199
:10043000AC01C801B7010E943B117B018C0120E097
:1004400030E048EC52E40E94751318165CF40F2E4D
:10045000F0E0EF2EF0E0FF2EF8EC0F2FF2E41F2F6C
:10046000F02D14C0C801B70120E030E048EC52EC98
:100470000E940112882354F40F2EF0E0EF2EF0E0DA
:10048000FF2EF8EC0F2FF2EC1F2FF02DC801B70153
:100490000E946D12CB01DF91CF911F910F91FF90C0
:1004A000EF90DF90CF90BF90AF900895CF92DF9202
:1004B000EF92FF920F931F93CF93DF936B019A01FB
:1004C0002C543F4F91E0283639071CF09A01245BE9
:1004D0003040E82FF0E0EE0FFF1FEE56FD4FCAE56B
:1004E000D0E080819181C81BD90BC90168E671E019
:1004F0000E94E613C80FD91F02C0C859DE4FD7FDAE
:10050000FCCF02C0C856D14081E0C936D807D4F725
:10051000CA35D1055CF4CC0FDD1FCC0FDD1FCA5DE1
:10052000DE4FE880F9800A811B8135C0C43BD105CC
:100530007CF4E4EBF0E0EC1BFD0BEE0FFF1FEE0F85
:10054000FF1FEA5DFE4FE080F1800281138123C02E
:1005500091E0CE30D9075CF4CC0FDD1FCC0FDD1F4E
:10056000CA5AD14088819981AA81BB810EC0E8E630
:10057000F1E0EC1BFD0BEE0FFF1FEE0FFF1FEA5D1E
:10058000FE4F80819181A281B3817C018D0117FB97
:10059000109517F91095C60160E071E00E94E6130E
:1005A000AA2797FDA095BA2FBC01CD010E94A012E9
:1005B0009B01AC01C801B7010E9480130E946D121B
:1005C000CB01DF91CF911F910F91FF90EF90DF90C2
:1005D000CF9008951F93CF93DF93A8952FE088E1E4
:1005E00090E00FB6F894A895809360000FBE20931A
:1005F00060008FEF8AB95398529884B9429A439A0F
:10060000459A469A479A5B9A5A9A0E942E1093EA04
:1006100094BD83E085BD9093B00084E08093B100E9
:1006200081E080936F00809381000E94AB008EE098
:1006300090E00E942E1490934B0380934A0304B6DB
:1006400003FC2F9A84B7877F84BF0E94800D789423
:10065000C8E8D3E111E0329920C02F9A20E0CE0102
:100660000197F1F7A8952F5F2233C9F781E090E059
:1006700060E070E00E9434146091180370911903D7
:100680008EE090E00E943414809118039091190339
:1006900090934B0380934A032F98339946C08091DF
:1006A000470383300CF03EC08091120390911303F6
:1006B0006091140370911503409116035091170334
:1006C0000E94440180930D03992787FD9095209106
:1006D0004A0330914B03820F931F0E94590C0697D7
:1006E00064F48091A902882341F010921D031092B6
:1006F0001C0310931E031092A90280911C03909179
:100700001D03853691054CF0809147038F5F8093E0
:10071000470310921D0310921C03EDEDF2E080E000
:1007200090E010C010920D03F8CF10920D0380914D
:10073000A902882391F71093A90210921E03109228
:100740004703EBCF208131818217930708F4C90159
:10075000329622E0ED3EF207A9F789559240D4F196
:10076000809118039091190320914A0330914B0313
:10077000281B390B30931B0320931A0380911A0313
:1007800090911B03885F984F3CF480911A039091DD
:100790001B03805F914F0DC080911A0390911B0342
:1007A0008950974054F080911A0390911B03805117
:1007B0009E4090931B0380931A0380911A0390919B
:1007C0001B036AE070E00E94E61370931B036093C2
:1007D0001A030FC080E060E070E00E94740081E0C6
:1007E00060E070E00E94740082E060E070E00E94CF
:1007F0007400A89530CF1F920F920FB60F9211245C
:100800002F933F934F935F936F937F938F939F9318
:10081000AF93BF93EF93FF9380911E03882349F01A
:1008200080911C0390911D03019690931D0380936A
:100830001C038091A802813069F580EE0E94AE0F02
:10084000882351F080EE0E94071090931703809345
:10085000160380EE0E94BA0F82EE0E94AE0F88232C
:1008600051F082EE0E9407109093130380931203BD
:1008700082EE0E94BA0F86EE0E94AE0F882351F0DE
:1008800086EE0E940710909315038093140386EE62
:100890000E94BA0F8091A802823041F40E94030D99
:1008A0000E943A0C90931903809318038091A80238
:1008B000833009F04EC136994CC18091AA02882339
:1008C00029F00E94790E1092AA0203C081E0809361
:1008D000AA0281E090E061E070E040E051E00E9417
:1008E000860E409112035091130381E090E06AE07C
:1008F00070E00E94150F409114035091150381E0A0
:1009000090E06EE070E00E94150F40911603509148
:10091000170381E090E062E170E00E94150F83E030
:1009200090E061E070E049E051E00E94860E409165
:1009300018035091190383E090E065E070E00E9495
:10094000150F40911A0350911B0383E090E06AE079
:1009500070E00E94150FEDEDF2E040E050E0808184
:1009600091814817590708F4AC01329682E0ED3EB8
:10097000F807A9F783E090E06FE070E00E94150FA0
:100980008091100390911103843691050CF06DC095
:1009900084E090E061E070E04DE051E00E94860E5E
:1009A0004091DD025091DE0284E090E062E070E070
:1009B0000E94150F84E090E066E070E04FE051E0A7
:1009C0000E94860E4091DF025091E00284E090E0A8
:1009D00067E070E00E94150F84E090E06BE070E04B
:1009E00041E151E00E94860E4091E1025091E20205
:1009F00084E090E06CE070E00E94150F84E090E0ED
:100A000060E170E043E151E00E94860E4091E30214
:100A10005091E40284E090E061E170E00E94150FE3
:100A200082E090E061E070E045E151E00E94860ED6
:100A300040913B0350913C0382E090E066E070E01F
:100A40000E94150F40913D0350913E0382E090E0DB
:100A50006AE070E00E94150F40913F0350914003FF
:100A600082E090E06EE070E064C0883C91050CF09C
:100A70006CC084E090E061E070E04AE151E00E94E7
:100A8000860E4091E5025091E60284E090E062E03B
:100A900070E00E94150F84E090E066E070E04CE1A9
:100AA00051E00E94860E4091E7025091E80284E0F6
:100AB00090E067E070E00E94150F84E090E06BE04A
:100AC00070E04EE151E00E94860E4091E9025091A3
:100AD000EA0284E090E06CE070E00E94150F84E090
:100AE00090E060E170E040E251E00E94860E4091AB
:100AF000EB025091EC0284E090E061E170E00E9432
:100B0000150F82E090E061E070E042E251E00E9467
:100B1000860E4091480382E090E066E070E050E08D
:100B20000E94150F4091490382E090E06AE070E076
:100B300050E00E94150F80911003909111030196CF
:100B4000909311038093100304C01092110310922C
:100B500010038091A802833011F481E001C08F5FFF
:100B60008093A802FF91EF91BF91AF919F918F91D8
:100B70007F916F915F914F913F912F910F900FBE99
:100B80000F901F9018952F923F924F925F926F9205
:100B90007F928F929F92AF92BF92CF92DF92EF920D
:100BA000FF920F931F93DF93CF9300D000D000D01C
:100BB000CDB7DEB71A821982222433244424552467
:100BC000F201E352FD4F608171816536710508F4D1
:100BD000D2C080E090E00E949E126B837C838D8364
:100BE0009E83F201E856FD4F20813181F901E65ADA
:100BF000FF4F02C0E859FE4FF7FDFCCF02C0E85698
:100C0000F14081E0E936F807D4F7EA35F10544F020
:100C1000E43BF10584F484EB90E08E1B9F0BFC0118
:100C2000EE0FFF1FEE0FFF1FEA5DFE4F6080718029
:100C30008280938023C091E0EE30F9073CF4EE0F00
:100C4000FF1FEE0FFF1FEA5AF1400BC088E691E04C
:100C50008E1B9F0BFC01EE0FFF1FEE0FFF1FEA5DC7
:100C6000FE4F80819181A281B3813C014D0197FAB1
:100C7000909497F8909402C028593E4F37FDFCCFCE
:100C800002C02856314091E029363907D4F72A3579
:100C9000310544F4220F331F220F331F2A5D3E4FCC
:100CA000F9010DC0243B31057CF4E4EBF0E0E21BDC
:100CB000F30BEE0FFF1FEE0FFF1FEA5DFE4FA0804C
:100CC000B180C280D38020C0F1E02E303F0744F4D1
:100CD000220F331F220F331F2A5A3140F9010AC055
:100CE000E8E6F1E0E21BF30BEE0FFF1FEE0FFF1F34
:100CF000EA5DFE4F80819181A281B3815C016D012B
:100D0000D7FAD094D7F8D09429813A81B9018827AD
:100D100077FD8095982F0E94A0127B018C016B813A
:100D20007C818D819E81A40193010E9480139B018F
:100D3000AC01C801B7010E943B110E946D127A8379
:100D40006983B101882777FD8095982F0E94A012B2
:100D50007B018C016B817C818D819E81A601950137
:100D60000E9480139B01AC01C801B7010E943B1196
:100D70000E946D121B0182E090E0480E591E90E126
:100D80004916510409F01CCFB101882777FD8095E1
:100D9000982F0E94A0127B018C01E981FA81BF018A
:100DA000882777FD8095982F0E94A0129B01AC01A7
:100DB000C801B7010E94AE1120E030E044E353E4E3
:100DC0000E9480132BED3FE049E450E40E9405129D
:100DD0000E946D129B0177FF02C028593E4FC90146
:100DE00026960FB6F894DEBF0FBECDBFCF91DF9130
:100DF0001F910F91FF90EF90DF90CF90BF90AF9039
:100E00009F908F907F906F905F904F903F902F902A
:100E100008950E94C3059C01853B910514F0285656
:100E20003140EDEDF2E080E090E0408151818417A7
:100E3000950708F4CA01329642E0ED3EF407A9F79F
:100E40008855924094F0C901875A9F4F833B910582
:100E500018F4220F331F09C037FD03C082E390E06E
:100E600002C08EEC9FEF280F391FC9010895CF9261
:100E7000DF92EF92FF921F93CF93DF936A010E945C
:100E80008E017C010E940907EC0110E0812FB60160
:100E9000AE010E945602BC016E0D7F1D113019F487
:100EA000709561957F4F812F0E9474001F5F1330F2
:100EB00069F7DF91CF911F91FF90EF90DF90CF9076
:100EC000089590934F0380934E0308951F920F92BD
:100ED0000FB60F9211246F927F928F929F92AF92D2
:100EE000BF92CF92DF92EF92FF920F931F932F93B7
:100EF0003F934F935F936F937F938F939F93AF93A2
:100F0000BF93CF93DF93EF93FF934091C600842F5D
:100F1000817080932603242F30E0C9018270907085
:100F20009595879580932503C90184709070959558
:100F300087959595879580932403C9018870907053
:100F4000E3E095958795EA95E1F780932303C9013E
:100F50008071907074E0959587957A95E1F780930C
:100F60002203C9018072907065E0959587956A9516
:100F7000E1F7809321032074307056E03595279572
:100F80005A95E1F720932003441F4427441F4093C0
:100F90001F034091BB025091BC026091BD02709151
:100FA000BE02CBEAD2E0A0E0B0E0FD01E15EFC4F82
:100FB0008081882321F12881398180914C0390918F
:100FC0004D03F901E81BF90B4E175F073CF48091C4
:100FD0004C0390914D03A901481B590B80914C0380
:100FE00090914D03F901E81BF90BE617F7073CF464
:100FF00080914C0390914D03B901681B790B1196B8
:101000002296A830B10589F6FFEF4F3F5F07D9F46C
:1010100080913603882339F080913003882319F4B6
:1010200081E080933703809131038A3020F48F5F11
:101030008093310354C080913703882309F04FC057
:101040008FEF9FEF48C064177507A1F41092370324
:1010500010923103CB01845B9040909328038093DE
:10106000270397FF3CC06C547F4F70932803609315
:10107000270335C010923703109231039A01261BC3
:10108000370B243B310534F488E691E0FC01E21B88
:10109000F30B9F01C90195958795F1E04F305F07EC
:1010A00054F06A3571053CF4481B590B50932803E2
:1010B0004093270306C0840F951F909328038093C5
:1010C0002703809127039091280321E08936920716
:1010D00034F08856914090932803809327038091A1
:1010E000C1029091C2028F5F9F4F51F480912703FC
:1010F00090912803845B90409093C2028093C10238
:101100008091C1029091C20297FF0AC08091C102F2
:101110009091C20288599E4F9093C2028093C1025F
:10112000C0912703D09128038CE4682E8FEF782E8E
:101130006C0E7D1E7092C4026092C3028091C30245
:101140009091C40297FF0AC08091C3029091C4029B
:1011500088599E4F9093C4028093C30280913703B5
:10116000882319F081E080933003FFEFCF3FDF0742
:10117000D9F410923003D093C202C093C102D0932D
:10118000C402C093C30210923A0388E19CEF90938B
:10119000C6028093C502D093C002C093BF021092D2
:1011A0002E0310922D0309C380913703882311F079
:1011B000109236032091BF023091C0028FEF2F3F73
:1011C000380769F180913703882349F5FE01E21B56
:1011D000F30B9F01F7FF03C0309521953F4F3093EC
:1011E0002E0320932D03253B310544F088E691E042
:1011F000821B930B90932E0380932D0380912D03DC
:1012000090912E038536910534F081E0809336036A
:1012100080932F0304C01092360310922F03809105
:101220002F03882309F09AC080913703882309F09F
:1012300095C08091C5029091C60297FF41C0F1E030
:10124000CF30DF07A4F02091C1023091C202CE015D
:101250008E509140281739070CF47AC08091C10252
:101260009091C202895691400CF076C024C0CA35D4
:10127000D105B4F42091C1023091C202CE01825F47
:101280009E4F821793070CF463C08091C102909126
:10129000C20297FD61C02091C1023091C2023DC0DF
:1012A0002091C1023091C202CE01875A9F4F82170E
:1012B00093070CF451C02091C1023091C20242C088
:1012C00081E0CF30D80794F02091C5023091C6025A
:1012D000CE018E50914028173907D4F18091C50274
:1012E0009091C60289569140BCF528C0CA35D105F7
:1012F000DCF42091C5023091C602CE01825F9E4F80
:10130000821793072CF18091C5029091C60297FD38
:1013100023C02091C5023091C602CE01875A9F4F4B
:1013200082179307CCF014C02091C5023091C602F9
:10133000CE01875A9F4F8217930774F02091C50200
:101340003091C602CE01895590402817390724F004
:1013500081E08093360302C01092360380913603F9
:10136000882329F0D093C602C093C502E4C120911E
:10137000C1023091C2028091C3029091C402281B25
:10138000390B37FF03C0309521953F4F2832310587
:101390000CF4D1C180913603882309F0CCC180912F
:1013A0003703882309F0C7C18091C1029091C2021E
:1013B0008F5F9F4F09F4BFC12091C1023091C202DB
:1013C0008091C3029091C402821793070CF0D1C0A0
:1013D0008091C1029091C2022091C3023091C40257
:1013E000821B930B853B91050CF466C080913A03F8
:1013F000823009F461C081E080933A036091C302B6
:101400007091C4022091C1023091C20268597E4F8E
:10141000621B730B882777FD8095982F0E94A0127E
:1014200020E030E040E05FE30E94801320E030E005
:1014300048E452E40E947513181654F48091C102D6
:101440009091C202C2969093C6028093C50234C0A6
:101450006091C1027091C202E090C302F090C40298
:101460008090C1029090C202882777FD8095982FC6
:101470000E94A0125B016C0188E691E0E80EF91E63
:10148000E818F9080027F7FC0095102FC801B701EC
:101490000E94A01220E030E040E05FE30E94801351
:1014A0009B01AC01C601B5010E943B110E946D1267
:1014B0007093C6026093C5028091C1029091C202EE
:1014C0002091C3023091C402821B930B843B91058F
:1014D0000CF031C180913A03813009F42CC182E0D3
:1014E00080933A036091C1027091C2022091C302BD
:1014F0003091C402621B730B882777FD8095982F6B
:101500000E94A01220E030E040E05FE30E948013E0
:1015100020E030E048E452E40E947513181634F4D9
:101520008091C1029091C202C297D0C06091C10265
:101530007091C202E090C102F090C202C090C3025A
:10154000D090C402882777FD8095982F0E94A01222
:101550004B015C01EC18FD080027F7FC0095102FEB
:10156000C801B7010E94A01220E030E040E05FEB2C
:10157000D4C08091C3029091C4022091C1023091E5
:10158000C202821B930B853B91050CF466C08091CF
:101590003A03813009F461C082E080933A0360919C
:1015A000C1027091C2022091C3023091C4026859F5
:1015B0007E4F621B730B882777FD8095982F0E94C2
:1015C000A01220E030E040E05FE30E94801320E0C2
:1015D00030E048E452E40E947513181654F48091E8
:1015E000C1029091C202C2979093C6028093C50235
:1015F00034C06091C1027091C202E090C102F090CB
:10160000C2028090C3029090C402882777FD809523
:10161000982F0E94A0125B016C01E8E6F1E0EE0E4B
:10162000FF1EE818F9080027F7FC0095102FC801E5
:10163000B7010E94A01220E030E040E05FEB0E9482
:1016400080139B01AC01C601B5010E943B110E94B1
:101650006D127093C6026093C5028091C30290918F
:10166000C4022091C1023091C202821B930B843BC1
:1016700091050CF060C080913A03823009F45BC0A0
:1016800081E080933A036091C3027091C40220917B
:10169000C1023091C202621B730B882777FD8095CF
:1016A000982F0E94A01220E030E040E05FE30E940B
:1016B000801320E030E048E452E40E9475131816CD
:1016C00054F48091C1029091C202C2969093C602D6
:1016D0008093C50230C06091C1027091C202E09057
:1016E000C302F090C402C090C102D090C202882709
:1016F00077FD8095982F0E94A0124B015C01EC1899
:10170000FD080027F7FC0095102FC801B7010E94C3
:10171000A01220E030E040E05FE30E9480139B01D4
:10172000AC01C501B4010E943B110E946D1270937F
:10173000C6026093C5028091C5029091C60288518D
:101740009C4F09F18091C5029091C6028956914043
:1017500054F08091C5029091C602885691409093B2
:10176000C6028093C5028091C5029091C60297FF80
:101770000AC08091C5029091C60288599E4F9093ED
:10178000C6028093C50280913603882371F0CE0192
:101790008C549F4F90932803809327038956914040
:1017A00024F0709228036092270380912703909180
:1017B00028039093C0028093BF02809127039091E9
:1017C00028039093CE028093CD028FEF9FEF9093EA
:1017D000BC028093BB0288E691E09093BE028093A6
:1017E000BD02FF91EF91DF91CF91BF91AF919F919A
:1017F0008F917F916F915F914F913F912F911F91A9
:101800000F91FF90EF90DF90CF90BF90AF909F909F
:101810008F907F906F900F900FBE0F901F90189534
:10182000A6E2B3E01092260320912603FD01229345
:101830002081FD01329720832081FD013397208391
:101840002081FD01349720832081FD01359720837D
:101850002081FD0136972083208117972C93909348
:10186000C5008093C40080E98093C10086E0809326
:10187000C20008950F931F9380EC0E94341082E001
:101880000E948D100E94851081EC0E9434108823E4
:10189000C9F70E949F10182F0E94A910082F0E94BC
:1018A0008510312F20E0200F311DC9011F910F91AC
:1018B00008950F931F938C010E943A0C9C01201BEA
:1018C000310B88EF283F38071CF4205F314F06C0EA
:1018D00087E02830380714F020513E40C9011F919D
:1018E0000F9108951F9380EC0E94341081E00E94B4
:1018F0008D100E94851081EC0E9434108823C9F756
:101900000E94A910182F0E948510812F1F91089501
:10191000EF92FF920F931F9380ED0E943410882363
:1019200019F48BE30E948D1081ED0E9482108823B0
:1019300009F062C00E949F10F82EEE24F09242033C
:10194000E09241030E949F10E80EF11C0027F7FC73
:101950000095102FC801B7010E94A01220E030E0CE
:101960004AE75DE30E9480130E946D126751704048
:1019700070934203609341030E949F10F82EEE245F
:10198000F0924403E09243030E949F10E80EF11C82
:101990000027F7FC0095102FC801B7010E94A01284
:1019A00020E030E04AE75DE30E9480130E946D1260
:1019B00070934403609343030E949F10F82EEE241B
:1019C000F0924603E09245030E94A910E80EF11C34
:1019D0000027F7FC0095102FC801B7010E94A01244
:1019E00020E030E04AE75DE30E9480130E946D1220
:1019F00070934603609345030E9485101F910F91D9
:101A0000FF90EF900895EF92FF920F931F9380ED58
:101A10000E943410882319F483E40E948D1081ED14
:101A20000E948210882309F064C00E949F10F82E43
:101A3000EE24F0923C03E0923B030E949F10E80EDC
:101A4000F11C0027F7FC0095102FC801B7010E9478
:101A5000A01220E030E04AE75DE30E9480130E947C
:101A60006D126B51704070933C0360933B030E9476
:101A70009F10F82EEE24F0923E03E0923D030E9468
:101A80009F10E80EF11C0027F7FC0095102FC801ED
:101A9000B7010E94A01220E030E04AE75DE30E9417
:101AA00080130E946D126150704070933E036093EA
:101AB0003D030E949F10F82EEE24F0924003E09226
:101AC0003F030E94A910E80EF11C0027F7FC0095C7
:101AD000102FC801B7010E94A01220E030E04AE7B1
:101AE0005DE30E9480130E946D1270934003609327
:101AF0003F030E9485101F910F91FF90EF90089572
:101B000080ED0E9434108BE60E948D1080E80E94C8
:101B10008D100E94851088EC90E024EF31E0F901EF
:101B20003197F1F70197D9F780ED0E9434108BE6D9
:101B30000E948D1080E00E948D100E94851080ED23
:101B40000E9434108AE10E948D1086E00E948D1060
:101B500088E10E948D1080E00E948D100E94851007
:101B600080ED0E9434108CE10E948D1080E10E9473
:101B70008D100E94851008950F931F9386EC0E948C
:101B80003410882319F02FEF3FEF13C081E00E943B
:101B90008D1087EC0E9434100E949F10082F0E9425
:101BA000A910182F0E948510912F80E09C01200F12
:101BB000311DC9011F910F9108950F931F93CF936A
:101BC000DF93182F092F86EC0E943410882371F4BC
:101BD0000E948D10812F902F9C01E90102C00E946C
:101BE0008D1089918823D9F70E948510DF91CF91BC
:101BF0001F910F910895FF920F931F93CF93DF933F
:101C0000F82E8B0186EC0E9434108823B1F40E94D8
:101C10008D108BE10E948D108F2D0E948D10C0E0E1
:101C2000D0E0F801EC0FFD1F80810E948D102196FD
:101C3000C830D105B1F70E948510DF91CF911F9177
:101C40000F91FF9008951F93182F86EC0E94341077
:101C500080E00E948D10812F0E948D100E948510BF
:101C60001F910895CF93DF93EC0186EC0E9434100E
:101C7000882359F40E948D10CD2B11F083E101C00F
:101C800084E10E948D100E948510DF91CF9108950C
:101C90001F93182F86EC0E943410882379F40E9439
:101CA0008D10112311F484E005C0123011F485E089
:101CB00001C086E00E948D100E9485101F9108953A
:101CC0000F931F93182F062F86EC0E943410882341
:101CD00069F40E948D1083E00E948D10812F0E9474
:101CE0008D10802F0E948D100E9485101F910F91E2
:101CF000089586EC0E943410882339F40E948D10D8
:101D00008CE00E948D100E9485100895EF92FF9242
:101D10000F931F93CF93DF93182F062FF42EE52EEA
:101D200086EC0E9434108823B9F40E948D1083E061
:101D30000E948D10812F0E948D10802F0E948D1087
:101D40008F2D9E2D9C01E90102C00E948D1089916A
:101D50008823D9F70E948510DF91CF911F910F91B1
:101D6000FF90EF9008950F931F93CF93DF9381E03F
:101D700090E061E070E04FEC52E00E94860E82E05D
:101D800090E061E070E00E94600EC0E0D0E001E011
:101D900010E00E94BC0D98010C2E02C0220F331FD0
:101DA0000A94E2F7282339230C2E02C03695279592
:101DB0000A94E2F7822F805D0E94230E2196C031A3
:101DC000D10539F7DF91CF911F910F910895CF92EF
:101DD000DF92EF92FF920F931F93DF93CF93CDB7D4
:101DE000DEB764970FB6F894DEBF0FBECDBF7C019F
:101DF0006B01CA018E010F5F1F4FB801A9010E943C
:101E00000D14C701B601A8010E94860E64960FB694
:101E1000F894DEBF0FBECDBFCF91DF911F910F9120
:101E2000FF90EF90DF90CF900895CF92DF92EF92E6
:101E3000FF920F931F93DF93CF9300D000D000D079
:101E4000CDB7DEB77C016B01CA018E010F5F1F4F5A
:101E5000B8014AE050E00E940D14C701B601A80184
:101E60000E94860E26960FB6F894DEBF0FBECDBF39
:101E7000CF91DF911F910F91FF90EF90DF90CF9066
:101E800008950F931F93182F062F0E94341080E09F
:101E90000E948D1080EA0E948D100E94851084EFB0
:101EA00091E024EF31E0F9013197F1F70197D9F78B
:101EB000812F0E94341080E00E948D108AEA0E94D7
:101EC0008D100E94851084EF91E024EF31E0F9013C
:101ED0003197F1F70197D9F7812F0E94341080E0F4
:101EE0000E948D1085EA0E948D100E94851084EF5B
:101EF00091E024EF31E0F9013197F1F70197D9F73B
:101F0000812F0E94341080E00E948D10802F0E944B
:101F10008D100E9485101F910F9108951F93182F07
:101F20000E9434108823B9F481E00E948D1087E16B
:101F30000E948D100E948510812F0E9434108823EA
:101F400051F482E00E948D1080E30E948D100E9467
:101F5000851081E001C080E01F9108950E94341037
:101F6000882321F40E94851081E008950E94851045
:101F700080E008951F93182F0E943410882311F0D9
:101F800080E015C081E00E948D1080E00E948D10DD
:101F900080E30E948D10812F0E94821080E00E94B9
:101FA0008D1081E50E948D100E94851081E01F91A7
:101FB0000895FF920F931F93082F0E94BA0F802F4E
:101FC0000E94AE0F8823D9F702C00E948510802F8F
:101FD0000E9434108823C9F782E00E948D100E946D
:101FE00085100F5F802F0E9482108823D9F70E94EE
:101FF0009F10182F00E00E94A910F82E0E94851053
:102000000F0D111DC8011F910F91FF900895FF92B0
:102010000F931F93082F02C00E948510802F0E94EB
:1020200034108823C9F782E00E948D100E94851029
:102030000F5F802F0E9482108823D9F70E949F1083
:10204000182F00E00E94A910F82E0E9485100F0D95
:10205000111DC8011F910F91FF9008951092B900B2
:102060008CE58093B8000895982F84EA8093BC0093
:102070008091BC0087FFFCCF8091B900887F8830B9
:1020800021F0803111F081E008959093BB0084E845
:102090008093BC008091BC0087FFFCCF9091B90079
:1020A000987F983111F480E0089580E0903409F031
:1020B00081E00895982F44EA34E824E94093BC0075
:1020C0008091BC0087FFFCCF8091B900887F883069
:1020D00011F0803199F79093BB003093BC00809150
:1020E000BC0087FFFCCF8091B900887F803211F05F
:1020F000883539F42093BC008091BC0084FDFCCF6E
:10210000DDCF08950E943410089584E98093BC00C7
:102110008091BC0084FDFCCF08958093BB0084E8CF
:102120008093BC008091BC0087FFFCCF8091B900F8
:1021300090E0887F883209F091E0892F089584EC3F
:102140008093BC008091BC0087FFFCCF8091BB00D6
:10215000089584E88093BC008091BC0087FFFCCF89
:102160008091BB00089580E50E9434108FE30E94A7
:102170008D1080E20E948D100E94851008951F939B
:10218000182F80E50E943410882319F4812F0E94B3
:102190008D1081E50E948210882311F01FEF03C08B
:1021A0000E94A910182F0E948510812F1F91089559
:1021B0008DE30E94BF108C30B1F080E50E94341096
:1021C0008DE30E948D108CE00E948D100E9485107E
:1021D00080E50E9434108FE30E948D1081E00E9400
:1021E0008D100E94851008951F93CF93DF93182FB1
:1021F00080E50E943410882319F4812F0E948D10ED
:1022000081E50E948210882319F0CFEFDFEF0AC02A
:102210000E949F10C82FD0E00E94A910382F20E004
:10222000C20FD31F0E948510CE01DF91CF911F9165
:1022300008950E94F4106AE070E00E94E613CB015A
:1022400008950E94F410AA2797FDA095BA2FBC010B
:10225000CD010E94A01220E030E048EC52E40E9440
:10226000051208950E94F41060E170E00E94E613E8
:10227000CB0108955058BB27AA270ED0FCC1EDD141
:1022800030F0F2D120F031F49F3F11F41EF4BDC1C3
:102290000EF4E095E7FBB3C1E92FFED180F3BA1746
:1022A000620773078407950718F071F49EF516C24C
:1022B0000EF4E0950B2EBA2FA02D0B01B901900161
:1022C0000C01CA01A0011124FF27591B99F0593FA5
:1022D00050F4503E68F11A16F040A22F232F342FED
:1022E0004427585FF3CF469537952795A795F0403B
:1022F0005395C9F77EF41F16BA0B620B730B840B50
:10230000BAF09150A1F0FF0FBB1F661F771F881F07
:10231000C2F70EC0BA0F621F731F841F48F487955F
:1023200077956795B795F7959E3F08F0B3CF93954E
:10233000880F08F09927EE0F9795879508958DD10E
:1023400058F080E891E009F49EEF8ED128F040E843
:1023500051E059F45EEF09C058C1C0C1E92FE078DF
:102360009BD168F3092E052AC1F3261737074807C2
:10237000590738F00E2E07F8E02569F0E025E064F3
:102380000AC0EF6307F8009407FADB01B9019D0169
:10239000DC01CA01AD01EF9347D06DD10AD05F9146
:1023A000552331F02BED3FE049E450FD49EC63CF7C
:1023B0000895DF93DD27B92FBF7740E85FE3161656
:1023C000170648075B0710F4D92F93D19F938F937B
:1023D0007F936F93F8D1ECE7F0E01AD14CD12F91B5
:1023E0003F914F915F9198D1DD2349F09058A2EA37
:1023F0002AED3FE049EC5FE3D0785D274DDFDF91C8
:102400003AC1D9D008F481E008950CD034C12CD160
:1024100040F023D130F021F45F3F19F0F0C05111AA
:102420005EC1F3C039D198F39923C9F35523B1F3B1
:10243000951B550BBB27AA2762177307840738F033
:102440009F5F5F4F220F331F441FAA1FA9F333D092
:102450000E2E3AF0E0E830D091505040E695001C46
:10246000CAF729D0FE2F27D0660F771F881FBB1F02
:10247000261737074807AB07B0E809F0BB0B802DDC
:10248000BF01FF2793585F4F2AF09E3F510568F028
:10249000B6C025C15F3FECF3983EDCF38695779597
:1024A0006795B795F7959F5FC9F7880F911D96952A
:1024B000879597F90895E1E0660F771F881FBB1F86
:1024C000621773078407BA0720F0621B730B840B33
:1024D000BA0BEE1F88F7E095089504D06894B11107
:1024E000FEC00895E1D088F09F5790F0B92F99274A
:1024F000B751A0F0D1F0660F771F881F991F1AF00F
:10250000BA95C9F712C0B13081F0E8D0B1E00895B2
:10251000E5C0672F782F8827B85F39F0B93FCCF333
:10252000869577956795B395D9F73EF49095809504
:10253000709561957F4F8F4F9F4F0895E89409C024
:1025400097FB3EF490958095709561957F4F8F4FE6
:102550009F4F9923A9F0F92F96E9BB279395F695FC
:10256000879577956795B795F111F8CFFAF4BB0F7A
:1025700011F460FF1BC06F5F7F4F8F4F9F4F16C0DE
:10258000882311F096E911C0772321F09EE8872F68
:10259000762F05C0662371F096E8862F70E060E024
:1025A0002AF09A95660F771F881FDAF7880F96959D
:1025B000879597F90895990F0008550FAA0BE0E841
:1025C000FEEF16161706E807F907C0F012161306F5
:1025D000E407F50798F0621B730B840B950B39F435
:1025E0000A2661F0232B242B252B21F408950A269B
:1025F00009F4A140A6958FEF811D811D089597F9DB
:102600009F6780E870E060E008959FEF80EC089598
:10261000DF93CF931F930F93FF92EF92DF927B0193
:102620008C01689405C0DA2EEF0176D0FE01E894A3
:10263000A5912591359145915591AEF3EF012CDE91
:10264000FE019701A801DA9479F7DF90EF90FF90EF
:102650000F911F91CF91DF91089500240A941616CF
:10266000170618060906089500240A941216130680
:10267000140605060895092E0394000C11F488230E
:1026800052F0BB0F40F4BF2B11F460FF04C06F5F2A
:102690007F4F8F4F9F4F089557FD9058440F551F00
:1026A00059F05F3F71F04795880F97FB991F61F0D4
:1026B0009F3F79F087950895121613061406551F4B
:1026C000F2CF4695F1DF08C0161617061806991FB7
:1026D000F1CF86957105610508940895E894BB27AC
:1026E00066277727CB0197F9089565DF08F48FEF08
:1026F00008959B01AC0160E070E080E89FE385CE27
:102700000BD0B9CFAADF28F0AFDF18F0952309F07E
:1027100076CF7BCF1124E3CFBFDFA0F3959FD1F31A
:10272000950F50E0551F629FF001729FBB27F00D7F
:10273000B11D639FAA27F00DB11DAA1F649F6627D4
:10274000B00DA11D661F829F2227B00DA11D621F23
:10275000739FB00DA11D621F839FA00D611D221FDD
:10276000749F3327A00D611D231F849F600D211DC1
:10277000822F762F6A2F11249F5750408AF0E1F064
:1027800088234AF0EE0FFF1FBB1F661F771F881FAD
:1027900091505040A9F79E3F510570F030CF9FCF28
:1027A0005F3FECF3983EDCF3869577956795B79598
:1027B000F795E7959F5FC1F7FE2B880F911D9695C2
:1027C000879597F908959B01AC019ACF97FB092E45
:1027D00007260AD077FD04D00CD006D000201AF4CA
:1027E000709561957F4F0895F6F7909581959F4F6D
:1027F0000895AA1BBB1B51E107C0AA1FBB1FA61748
:10280000B70710F0A61BB70B881F991F5A95A9F799
:1028100080959095BC01CD010895FB019F01E8943E
:102820004230C4F04532B4F44A3029F497FB1EF428
:10283000909581959F4F642F77270E94F913805DB3
:102840008A330CF0895D8193CB010097A1F716F4D0
:102850005DE251931082C9010C943914A8E1B0E0F3
:1028600042E050E00C944B140E945914272F0C9412
:102870005A14DC01FC01672F71917723E1F732973D
:1028800004C07C916D9370836291AE17BF07C8F34B
:102890000895DC01CB01FC01F999FECF06C0F2BD21
:1028A000E1BDF89A319600B40D9241505040B8F70E
:1028B0000895262FF999FECF1FBA92BD81BD20BD84
:1028C0000FB6F894FA9AF99A0FBE01960895F89403
:0228D000FFCF38
:1028D20055537C6C2F722F6100434D5000410042D2
:1028E20000430044004759524F004500460047004C
:1028F2004800582F5900000000005BF88E3CC7F2D8
:102902000E3D3B5E563D7BDC8E3DB57EB23D0413F3
:10291200D63DA296F93D65830E3E5C30203ED4D072
:10292200313E6F63433ECDE6543E9159663E60BAF6
:10293200773EEE83843E57208D3EBEB1953E7A3778
:102942009E3EDEB0A63E441DAF3E017CB73E6FCC3C
:10295200BF3EE90DC83EC93FD03E6C61D83E2F72E2
:10296200E03E7171E83E945EF03EF738F83E0000BA
:10297200003F89D9033FCAA8073F776D0B3F442721
:102982000F3FE8D5123F1879163F8D101A3FFE9B74
:102992001D3F241B213FBB8D243F7CF3273F254C49
:1029A2002B3F72972E3F22D5313FF304353FA726A6
:1029B200383FFF393B3FBD3E3E3FA634413F7D1B82
:1029C200443F0AF3463F13BB493F60734C3FBD1B74
:1029D2004F3FF3B3513FCE3B543F1DB3563FAE1969
:1029E200593F516F5B3FD7B35D3F14E75F3FDA0852
:1029F200623F0119643F5E17663FCA03683F1EDEED
:102A0200693F35A66B3FEC5B6D3F21FF6E3FB28F96
:102A1200703F810D723F7178733F64D0743F3F15F0
:102A2200763FEA46773F4D65783F5170793FE267DE
:102A32007A3FEB4B7B3F5C1C7C3F25D97C3F358248
:102A42007D3F81177E3FFD987E3F9E067F3F5C6003
:102A52007F3F2FA67F3F14D87F3F05F67F3F0000C0
:102A6200803F4A015A00D2001700440071009E00C4
:102A7200CB00F80025015201010101170044007149
:102A8200009E00CB00F80025015201FFFF6901FF03
:102A9200FFFFFFFFFFFFFFFFFFFFFFFFFFFFFF3112
:0C2AA20032333435363738392A302300FF
:00000001FF
