:100000000C9455000C9472000C9472000C947200C5
:100010000C9472000C9472000C9472000C94720098
:100020000C9472000C9472000C9472000C94720088
:100030000C9472000C9472000C9472000C94870261
:100040000C9472000C9472000C9472000C94720068
:100050000C94D0060C9472000C9472000C947200F4
:100060000C94BF000C9472000C9472000C947200FB
:100070000C9472000C9472000C947200084AD73BE6
:100080003BCE016E84BCBFFDC12F3D6C74319ABD67
:1000900056833DDA3D00C77F11BED9E4BB4C3E918B
:1000A0006BAAAABE000000803F0011241FBECFEF44
:1000B000D0E1DEBFCDBF12E0A0E0B1E0E6EAF7E2BA
:1000C00002C005900D92A63DB107D9F713E0A6ED49
:1000D000B2E001C01D92A537B107E1F70E94C0054B
:1000E0000C94D1130C9400009B0177FF04C02227CD
:1000F0003327261B370B2F3F310519F014F09FEFE4
:1001000001C0922F813071F0813028F0823089F067
:10011000833001F517C077FF02C0299A01C02998E2
:1001200097BD089577FF02C02A9A01C02A9898BD0A
:1001300008951616170614F45C9A01C05C98909303
:10014000B30008951616170614F45D9A01C05D9861
:100150009093B400089590917C00906490937C00FB
:1001600097E890937A00882321F080917A00886440
:1001700003C080917A00877F80937A0008951F9250
:100180000F920FB60F9211242F933F934F935F93CB
:100190006F938F939F93AF93BF93EF93FF932091B0
:1001A0007800309179006091D602E62FF0E0EE0FF2
:1001B000FF1FDF01A950BD4F8D919C91281B390B6A
:1001C000DF01A952BD4F2D933C93E951FD4F408172
:1001D0005181CA01A6E0880F991FAA95E1F7841BF7
:1001E000950B280F391F86E0369527958A95E1F7FC
:1001F000318320836F5F6093D602683010F01092D5
:10020000D6028091D602806480937C0080917A002F
:10021000806480937A00FF91EF91BF91AF919F919D
:100220008F916F915F914F913F912F910F900FBEE2
:100230000F901F901895E7EDF2E020E030E080810C
:1002400091812817390708F49C01329682E0E73E35
:10025000F807A9F7C9010895AF92BF92CF92DF9234
:10026000EF92FF920F931F93CF93DF93EB012091B7
:10027000070330910803280F391F253B31051CF077
:100280002856314006C08FEF2C34380714F4285913
:100290003E4FB901882777FD8095982F0E940A125A
:1002A0007B018C0122E539E44DE15CE30E94EA1216
:1002B00020E030E040E050E00E94A5105B016C01BE
:1002C00020E030E04AEF53E40E94DF1218165CF49D
:1002D0000F2EF0E0AF2EF0E0BF2EFAEFCF2EF3E4BA
:1002E000DF2EF02D14C0C601B50120E030E04AEF4A
:1002F00053EC0E946B11882354F40F2EF0E0AF2EC4
:10030000F0E0BF2EFAEFCF2EF3ECDF2EF02DC80178
:10031000B70120E030E040E05FE30E94EA127B0199
:100320008C01C601B50120E030E040E050E00E94C1
:10033000EA1223E333E343EF5FEB0E94EA129B01EF
:10034000AC01C801B7010E94A5107B018C01BE0160
:10035000882777FD8095982F0E940A122AE939E9AB
:1003600049E95EEB0E94EA129B01AC01C801B701AA
:100370000E94A5107B018C0120E030E048EC52E4A3
:100380000E94DF1218165CF40F2EF0E0EF2EF0E062
:10039000FF2EF8EC0F2FF2E41F2FF02D14C0C80130
:1003A000B70120E030E048EC52EC0E946B1188234A
:1003B00054F40F2EF0E0EF2EF0E0FF2EF8EC0F2FAC
:1003C000F2EC1F2FF02DC801B7010E94D711CB010D
:1003D000DF91CF911F910F91FF90EF90DF90CF9021
:1003E000BF90AF900895CF92DF92EF92FF920F935C
:1003F0001F93CF93DF936B019A012C543F4F91E0F1
:10040000283639071CF09A01245B3040E82FF0E0D1
:10041000EE0FFF1FE257FD4FCAE5D0E080819181CA
:10042000C81BD90BC90168E671E00E945013C80FC0
:10043000D91F02C0C859DE4FD7FDFCCF02C0C85635
:10044000D14081E0C936D807D4F7CA35D1055CF46C
:10045000CC0FDD1FCC0FDD1FCE5DDE4FE880F980B5
:100460000A811B8135C0C43BD1057CF4E4EBF0E08C
:10047000EC1BFD0BEE0FFF1FEE0FFF1FEE5DFE4F9F
:10048000E080F1800281138123C091E0CE30D90752
:100490005CF4CC0FDD1FCC0FDD1FCE5AD14088811C
:1004A0009981AA81BB810EC0E8E6F1E0EC1BFD0B4F
:1004B000EE0FFF1FEE0FFF1FEE5DFE4F808191815B
:1004C000A281B3817C018D0117FB109517F910955E
:1004D000C60160E071E00E945013AA2797FDA09525
:1004E000BA2FBC01CD010E940A129B01AC01C801C8
:1004F000B7010E94EA120E94D711CB01DF91CF9180
:100500001F910F91FF90EF90DF90CF9008951F9271
:100510000F920FB60F9211242F933F934F935F9337
:100520006F937F938F939F93AF93BF93EF93FF93BB
:100530008091A402813069F580EE0E94180F882313
:1005400051F080EE0E94710F909314038093130377
:1005500080EE0E94240F82EE0E94180F882351F033
:1005600082EE0E94710F9093100380930F0382EE2E
:100570000E94240F86EE0E94180F882351F086EE09
:100580000E94710F909312038093110386EE0E94D4
:10059000240F8091A402823091F40E946D0C0E947D
:1005A000A40B9093160380931503809157039091A9
:1005B00058030E94C30B90931803809317038091F4
:1005C000A402833009F024C10E94E30D81E090E091
:1005D00061E070E040E051E00E94F00D40910F03B7
:1005E0005091100381E090E06AE070E00E947F0E7D
:1005F000409111035091120381E090E06EE070E0B1
:100600000E947F0E409113035091140381E090E00B
:1006100062E170E00E947F0E82E090E061E070E0B5
:1006200049E051E00E94F00D4091380350913903A8
:1006300082E090E066E070E00E947F0E40913A0315
:1006400050913B0382E090E06AE070E00E947F0EF0
:1006500040913C0350913D0382E090E06EE070E0F9
:100660000E947F0E83E090E061E070E04EE051E098
:100670000E94F00D409115035091160383E090E025
:1006800065E070E00E947F0E4091170350911803BF
:1006900083E090E06AE070E00E947F0EE7EDF2E018
:1006A00040E050E0808191814817590708F4AC017F
:1006B000329682E0E73EF807A9F783E090E06FE02A
:1006C00070E00E947F0E80910B0390910C038436A2
:1006D00091050CF043C084E090E061E070E042E1FD
:1006E00051E00E94F00D4091D7025091D80284E071
:1006F00090E062E070E00E947F0E84E090E066E0AF
:1007000070E044E151E00E94F00D4091D902509117
:10071000DA0284E090E067E070E00E947F0E84E0FF
:1007200090E06BE070E046E151E00E94F00D4091F6
:10073000DB025091DC0284E090E06CE070E00E940B
:100740007F0E84E090E060E170E048E151E00E94BB
:10075000F00D4091DD025091DE0246C0883C9105CB
:100760000CF052C084E090E061E070E04AE151E0BA
:100770000E94F00D4091DF025091E00284E090E091
:1007800062E070E00E947F0E84E090E066E070E03E
:100790004CE151E00E94F00D4091E1025091E202E3
:1007A00084E090E067E070E00E947F0E84E090E0DB
:1007B0006BE070E04EE151E00E94F00D4091E302E9
:1007C0005091E40284E090E06CE070E00E947F0EC3
:1007D00084E090E060E170E040E251E00E94F00DC2
:1007E0004091E5025091E60284E090E061E170E022
:1007F0000E947F0E80910B0390910C0301969093C1
:100800000C0380930B0304C010920C0310920B0393
:100810008091A402833011F481E001C08F5F809346
:10082000A402FF91EF91BF91AF919F918F917F9122
:100830006F915F914F913F912F910F900FBE0F904D
:100840001F9018952F923F924F925F926F927F92D6
:100850008F929F92AF92BF92CF92DF92EF92FF92D0
:100860000F931F93DF93CF9300D000D000D0CDB76C
:10087000DEB71A8219822224332444245524F2013B
:10088000E952FD4F608171816536710508F4D2C06F
:1008900080E090E00E9408126B837C838D839E83AE
:1008A000F201EC56FD4F20813181F901E65AFF4FEC
:1008B00002C0E859FE4FF7FDFCCF02C0E856F140F8
:1008C00081E0E936F807D4F7EA35F10544F0E43B76
:1008D000F10584F484EB90E08E1B9F0BFC01EE0F7E
:1008E000FF1FEE0FFF1FEE5DFE4F60807180828064
:1008F000938023C091E0EE30F9073CF4EE0FFF1F28
:10090000EE0FFF1FEE5AF1400BC088E691E08E1B00
:100910009F0BFC01EE0FFF1FEE0FFF1FEE5DFE4F62
:1009200080819181A281B3813C014D0197FA90941D
:1009300097F8909402C028593E4F37FDFCCF02C073
:100940002856314091E029363907D4F72A35310548
:1009500044F4220F331F220F331F2E5D3E4FF90147
:100960000DC0243B31057CF4E4EBF0E0E21BF30B1B
:10097000EE0FFF1FEE0FFF1FEE5DFE4FA080B18058
:10098000C280D38020C0F1E02E303F0744F4220F14
:10099000331F220F331F2E5A3140F9010AC0E8E6F7
:1009A000F1E0E21BF30BEE0FFF1FEE0FFF1FEE5DFA
:1009B000FE4F80819181A281B3815C016D01D7FAE4
:1009C000D094D7F8D09429813A81B901882777FD4E
:1009D0008095982F0E940A127B018C016B817C818B
:1009E0008D819E81A40193010E94EA129B01AC01BA
:1009F000C801B7010E94A5100E94D7117A836983AC
:100A0000B101882777FD8095982F0E940A127B01FB
:100A10008C016B817C818D819E81A60195010E9454
:100A2000EA129B01AC01C801B7010E94A5100E9407
:100A3000D7111B0182E090E0480E591E90E1491643
:100A4000510409F01CCFB101882777FD8095982FBC
:100A50000E940A127B018C01E981FA81BF0188277B
:100A600077FD8095982F0E940A129B01AC01C80166
:100A7000B7010E94181120E030E044E353E40E94E3
:100A8000EA122BED3FE049E450E40E946F110E940E
:100A9000D7119B0177FF02C028593E4FC901269606
:100AA0000FB6F894DEBF0FBECDBFCF91DF911F917F
:100AB0000F91FF90EF90DF90CF90BF90AF909F90FD
:100AC0008F907F906F905F904F903F902F90089500
:100AD0000E9422049C01853B910514F02856314068
:100AE000E7EDF2E080E090E04081518184179507C6
:100AF00008F4CA01329642E0E73EF407A9F78855A8
:100B0000924094F0C901875A9F4F833B910518F496
:100B1000220F331F09C037FD03C082E390E002C0FB
:100B20008EEC9FEF280F391FC9010895CF92DF92F5
:100B3000EF92FF921F93CF93DF936A010E942C01E3
:100B40007C010E946805EC0110E0812FB601AE0126
:100B50000E94F301BC016E0D7F1D113019F47095D8
:100B600061957F4F812F0E9474001F5F133069F7DA
:100B7000DF91CF911F91FF90EF90DF90CF9008957C
:100B8000CF93DF93A8952FE088E190E00FB6F8941B
:100B9000A895809360000FBE209360008FEF8AB904
:100BA0005398529884B9429A439A459A469A479ADA
:100BB0005B9A5A9A0E94980F93EA94BD83E085BD90
:100BC0009093B00084E08093B10081E080936F0047
:100BD000809381000E94AB008EE090E00E94981309
:100BE000909358038093570304B603FC2F9A84B75D
:100BF000877F84BF0E94EA0C789420E030E040E8D0
:100C00005FEB2093590330935A0340935B03509357
:100C10005C0383E393E3A3E3BFE380935D039093DB
:100C20005E03A0935F03B09360038093610390938E
:100C30006203A0936303B093640380E090E0A0E0BC
:100C4000B0E08093650390936603A0936703B0932D
:100C5000680380E090E0A0E8BFE38093690390938D
:100C60006A03A0936B03B0936C0320936D033093DE
:100C70006E0340936F0350937003C8E8D3E1329939
:100C800020C02F9A20E0CE010197F1F7A8952F5FA1
:100C90002233C9F781E090E060E070E00E949E138B
:100CA00060911503709116038EE090E00E949E13F0
:100CB00080911503909116039093580380935703E6
:100CC0002F98E7EDF2E080E090E0208131818217FB
:100CD000930708F4C901329622E0E73EF207A9F72C
:100CE000855F91400CF446C08091150390911603E6
:100CF0002091570330915803281B390B3093180368
:100D0000209317038091170390911803885F984FE1
:100D10003CF48091170390911803805F914F0DC0B0
:100D200080911703909118038950974054F0809157
:100D300017039091180380519E409093180380935D
:100D4000170380911703909118036AE070E00E94E6
:100D500050137093180360931703809117039091B9
:100D6000180360913C0370913D034AE550E00E94F6
:100D700096050FC080E060E070E00E94740081E0A2
:100D800060E070E00E94740082E060E070E00E9429
:100D90007400A89574CF909374038093730308959F
:100DA0001F920F920FB60F9211246F927F928F9223
:100DB0009F92AF92BF92CF92DF92EF92FF920F93EA
:100DC0001F932F933F934F935F936F937F938F93D3
:100DD0009F93AF93BF93CF93DF93EF93FF93409194
:100DE000C600842F817080932303242F30E0C90133
:100DF000827090709595879580932203C9018470C5
:100E00009070959587959595879580932103C90155
:100E100088709070E3E095958795EA95E1F7809367
:100E20002003C9018071907074E0959587957A953B
:100E3000E1F780931F03C9018072907065E095957A
:100E400087956A95E1F780931E032074307056E011
:100E5000359527955A95E1F720931D03441F4427A4
:100E6000441F40931C034091B5025091B60260911B
:100E7000B7027091B802C5EAD2E0A0E0B0E0FD018F
:100E8000E45EFC4F8081882321F1288139818091A3
:100E9000710390917203F901E81BF90B4E175F077C
:100EA0003CF48091710390917203A901481B590B86
:100EB0008091710390917203F901E81BF90BE61719
:100EC000F7073CF48091710390917203B901681B9C
:100ED000790B11962296A830B10589F6FFEF4F3FA6
:100EE0005F07D9F480913303882339F080912D0373
:100EF000882319F481E08093340380912E038A3093
:100F000020F48F5F80932E0354C080913403882394
:100F100009F04FC08FEF9FEF48C064177507A1F429
:100F20001092340310922E03CB01845B9040909377
:100F300025038093240397FF3CC06C547F4F70932C
:100F400025036093240335C01092340310922E03BE
:100F50009A01261B370B243B310534F488E691E0D7
:100F6000FC01E21BF30B9F01C90195958795F1E008
:100F70004F305F0754F06A3571053CF4481B590B3C
:100F8000509325034093240306C0840F951F90932C
:100F9000250380932403809124039091250321E06D
:100FA0008936920734F088569140909325038093B8
:100FB00024038091BB029091BC028F5F9F4F51F43C
:100FC0008091240390912503845B90409093BC0210
:100FD0008093BB028091BB029091BC0297FF0AC034
:100FE0008091BB029091BC0288599E4F9093BC02A5
:100FF0008093BB02C0912403D09125038CE4682E1A
:101000008FEF782E6C0E7D1E7092BE026092BD0234
:101010008091BD029091BE0297FF0AC08091BD02EF
:101020009091BE0288599E4F9093BE028093BD025C
:1010300080913403882319F081E080932D03FFEF22
:10104000CF3FDF07D9F410922D03D093BC02C09399
:10105000BB02D093BE02C093BD021092370388E159
:101060009CEF9093C0028093BF02D093BA02C093CA
:10107000B90210922B0310922A0309C38091340302
:10108000882311F0109233032091B9023091BA02F3
:101090008FEF2F3F380769F180913403882349F59A
:1010A000FE01E21BF30B9F01F7FF03C03095219572
:1010B0003F4F30932B0320932A03253B310544F007
:1010C00088E691E0821B930B90932B0380932A0375
:1010D00080912A0390912B038536910534F081E0AD
:1010E0008093330380932C0304C010923303109237
:1010F0002C0380912C03882309F09AC0809134033B
:10110000882309F095C08091BF029091C00297FF9B
:1011100041C0F1E0CF30DF07A4F02091BB02309155
:10112000BC02CE018E509140281739070CF47AC0CA
:101130008091BB029091BC02895691400CF076C020
:1011400024C0CA35D105B4F42091BB023091BC0251
:10115000CE01825F9E4F821793070CF463C080918B
:10116000BB029091BC0297FD61C02091BB023091FF
:10117000BC023DC02091BB023091BC02CE01875A17
:101180009F4F821793070CF451C02091BB023091FE
:10119000BC0242C081E0CF30D80794F02091BF025A
:1011A0003091C002CE018E50914028173907D4F1FA
:1011B0008091BF029091C00289569140BCF528C031
:1011C000CA35D105DCF42091BF023091C002CE01B6
:1011D000825F9E4F821793072CF18091BF029091FE
:1011E000C00297FD23C02091BF023091C002CE0102
:1011F000875A9F4F82179307CCF014C02091BF02EB
:101200003091C002CE01875A9F4F8217930774F026
:101210002091BF023091C002CE018955904028171D
:10122000390724F081E08093330302C01092330326
:1012300080913303882329F0D093C002C093BF026A
:10124000E4C12091BB023091BC028091BD0290911B
:10125000BE02281B390B37FF03C0309521953F4F45
:10126000283231050CF4D1C180913303882309F071
:10127000CCC180913403882309F0C7C18091BB029F
:101280009091BC028F5F9F4F09F4BFC12091BB02B8
:101290003091BC028091BD029091BE0282179307EB
:1012A0000CF0D1C08091BB029091BC022091BD0294
:1012B0003091BE02821B930B853B91050CF466C0F6
:1012C00080913703823009F461C081E08093370355
:1012D0006091BD027091BE022091BB023091BC02B0
:1012E00068597E4F621B730B882777FD8095982F76
:1012F0000E940A1220E030E040E05FE30E94EA1220
:1013000020E030E048E452E40E94DF12181654F462
:101310008091BB029091BC02C2969093C0028093D0
:10132000BF0234C06091BB027091BC02E090BD026C
:10133000F090BE028090BB029090BC02882777FD9F
:101340008095982F0E940A125B016C0188E691E05B
:10135000E80EF91EE818F9080027F7FC0095102F91
:10136000C801B7010E940A1220E030E040E05FE3CC
:101370000E94EA129B01AC01C601B5010E94A510B2
:101380000E94D7117093C0026093BF028091BB028C
:101390009091BC022091BD023091BE02821B930B42
:1013A000843B91050CF031C180913703813009F401
:1013B0002CC182E0809337036091BB027091BC0224
:1013C0002091BD023091BE02621B730B882777FD0E
:1013D0008095982F0E940A1220E030E040E05FE301
:1013E0000E94EA1220E030E048E452E40E94DF125A
:1013F000181634F48091BB029091BC02C297D0C001
:101400006091BB027091BC02E090BB02F090BC0204
:10141000C090BD02D090BE02882777FD8095982F9E
:101420000E940A124B015C01EC18FD080027F7FC32
:101430000095102FC801B7010E940A1220E030E089
:1014400040E05FEBD4C08091BD029091BE0220913C
:10145000BB023091BC02821B930B853B91050CF4BF
:1014600066C080913703813009F461C082E08093C7
:1014700037036091BB027091BC022091BD02309194
:10148000BE0268597E4F621B730B882777FD8095DB
:10149000982F0E940A1220E030E040E05FE30E94B3
:1014A000EA1220E030E048E452E40E94DF1218160D
:1014B00054F48091BB029091BC02C2979093C002F9
:1014C0008093BF0234C06091BB027091BC02E09077
:1014D000BB02F090BC028090BD029090BE028827B3
:1014E00077FD8095982F0E940A125B016C01E8E657
:1014F000F1E0EE0EFF1EE818F9080027F7FC009552
:10150000102FC801B7010E940A1220E030E040E02D
:101510005FEB0E94EA129B01AC01C601B5010E947B
:10152000A5100E94D7117093C0026093BF028091F2
:10153000BD029091BE022091BB023091BC02821B81
:10154000930B843B91050CF060C08091370382308F
:1015500009F45BC081E0809337036091BD02709114
:10156000BE022091BB023091BC02621B730B882724
:1015700077FD8095982F0E940A1220E030E040E02D
:101580005FE30E94EA1220E030E048E452E40E9467
:10159000DF12181654F48091BB029091BC02C296DF
:1015A0009093C0028093BF0230C06091BB027091E3
:1015B000BC02E090BD02F090BE02C090BB02D09091
:1015C000BC02882777FD8095982F0E940A124B0154
:1015D0005C01EC18FD080027F7FC0095102FC801EE
:1015E000B7010E940A1220E030E040E05FE30E9471
:1015F000EA129B01AC01C501B4010E94A5100E9432
:10160000D7117093C0026093BF028091BF02909186
:10161000C00288519C4F09F18091BF029091C00295
:101620008956914054F08091BF029091C002885633
:1016300091409093C0028093BF028091BF0290912D
:10164000C00297FF0AC08091BF029091C0028859E2
:101650009E4F9093C0028093BF02809133038823F2
:1016600071F0CE018C549F4F9093250380932403F7
:101670008956914024F07092250360922403809152
:101680002403909125039093BA028093B90280912C
:101690002403909125039093C8028093C7028FEF93
:1016A0009FEF9093B6028093B50288E691E0909305
:1016B000B8028093B702FF91EF91DF91CF91BF9174
:1016C000AF919F918F917F916F915F914F913F91DA
:1016D0002F911F910F91FF90EF90DF90CF90BF90CF
:1016E000AF909F908F907F906F900F900FBE0F9054
:1016F0001F901895A3E2B3E01092230320912303D7
:10170000FD0122932081FD01329720832081FD017C
:10171000339720832081FD01349720832081FD01B0
:10172000359720832081FD013697208320811797EC
:101730002C939093C5008093C40080E98093C100EE
:1017400086E08093C20008950F931F9380EC0E945F
:101750009E0F82E00E94F70F0E94EF0F81EC0E9423
:101760009E0F8823C9F70E940910182F0E9413109A
:10177000082F0E94EF0F312F20E0200F311DC901EB
:101780001F910F9108950F931F938C010E94A40B3A
:101790009C01201B310B88EF283F38071CF4205F89
:1017A000314F06C087E02830380714F020513E4002
:1017B000C9011F910F9108951F9380EC0E949E0F05
:1017C00081E00E94F70F0E94EF0F81EC0E949E0FB4
:1017D0008823C9F70E941310182F0E94EF0F812F42
:1017E0001F910895EF92FF920F931F9380ED0E9437
:1017F0009E0F882319F48BE30E94F70F81ED0E945E
:10180000EC0F882309F062C00E940910F82EEE2424
:10181000F0923F03E0923E030E940910E80EF11C93
:101820000027F7FC0095102FC801B7010E940A128B
:1018300020E030E04AE75DE30E94EA120E94D711FF
:101840006751704070933F0360933E030E940910FC
:10185000F82EEE24F0924103E09240030E9409101A
:10186000E80EF11C0027F7FC0095102FC801B70106
:101870000E940A1220E030E04AE75DE30E94EA128B
:101880000E94D71170934103609340030E94091096
:10189000F82EEE24F0924303E09242030E941310CC
:1018A000E80EF11C0027F7FC0095102FC801B701C6
:1018B0000E940A1220E030E04AE75DE30E94EA124B
:1018C0000E94D71170934303609342030E94EF0F6D
:1018D0001F910F91FF90EF900895EF92FF920F9359
:1018E0001F9380ED0E949E0F882319F483E40E94C9
:1018F000F70F81ED0E94EC0F882309F064C00E946D
:101900000910F82EEE24F0923903E09238030E9479
:101910000910E80EF11C0027F7FC0095102FC801F4
:10192000B7010E940A1220E030E04AE75DE30E941E
:10193000EA120E94D7116B51704070933903609383
:1019400038030E940910F82EEE24F0923B03E09237
:101950003A030E940910E80EF11C0027F7FC0095DD
:10196000102FC801B7010E940A1220E030E04AE7B8
:101970005DE30E94EA120E94D7116150704070939B
:101980003B0360933A030E940910F82EEE24F09274
:101990003D03E0923C030E941310E80EF11C002767
:1019A000F7FC0095102FC801B7010E940A1220E031
:1019B00030E04AE75DE30E94EA120E94D71170937B
:1019C0003D0360933C030E94EF0F1F910F91FF9026
:1019D000EF90089580ED0E949E0F8BE60E94F70F16
:1019E00080E80E94F70F0E94EF0F88EC90E024EF50
:1019F00031E0F9013197F1F70197D9F780ED0E94B5
:101A00009E0F8BE60E94F70F80E00E94F70F0E9466
:101A1000EF0F80ED0E949E0F8AE10E94F70F86E093
:101A20000E94F70F88E10E94F70F80E00E94F70FF5
:101A30000E94EF0F80ED0E949E0F8CE10E94F70F35
:101A400080E10E94F70F0E94EF0F08950F931F93FC
:101A500086EC0E949E0F882319F02FEF3FEF13C0F2
:101A600081E00E94F70F87EC0E949E0F0E940910F0
:101A7000082F0E941310182F0E94EF0F912F80E063
:101A80009C01200F311DC9011F910F9108950F93E3
:101A90001F93CF93DF93182F092F86EC0E949E0F80
:101AA000882371F40E94F70F812F902F9C01E90188
:101AB00002C00E94F70F89918823D9F70E94EF0F87
:101AC000DF91CF911F910F910895FF920F931F9374
:101AD000CF93DF93F82E8B0186EC0E949E0F882314
:101AE000B1F40E94F70F8BE10E94F70F8F2D0E9437
:101AF000F70FC0E0D0E0F801EC0FFD1F80810E94DD
:101B0000F70F2196C830D105B1F70E94EF0FDF9192
:101B1000CF911F910F91FF9008951F93182F86EC7E
:101B20000E949E0F80E00E94F70F812F0E94F70F06
:101B30000E94EF0F1F910895CF93DF93EC0186EC85
:101B40000E949E0F882359F40E94F70FCD2B11F0AD
:101B500083E101C084E10E94F70F0E94EF0FDF9143
:101B6000CF9108951F93182F86EC0E949E0F882313
:101B700079F40E94F70F112311F484E005C01230AC
:101B800011F485E001C086E00E94F70F0E94EF0F7C
:101B90001F9108950F931F93182F062F86EC0E9414
:101BA0009E0F882369F40E94F70F83E00E94F70FCD
:101BB000812F0E94F70F802F0E94F70F0E94EF0FD6
:101BC0001F910F91089586EC0E949E0F882339F48F
:101BD0000E94F70F8CE00E94F70F0E94EF0F08950C
:101BE000EF92FF920F931F93CF93DF93182F062F3F
:101BF000F42EE52E86EC0E949E0F8823B9F40E94F5
:101C0000F70F83E00E94F70F812F0E94F70F802FBC
:101C10000E94F70F8F2D9E2D9C01E90102C00E94AA
:101C2000F70F89918823D9F70E94EF0FDF91CF91A9
:101C30001F910F91FF90EF9008950F931F93CF93F3
:101C4000DF9381E090E061E070E049EC52E00E94B7
:101C5000F00D82E090E061E070E00E94CA0DC0E00B
:101C6000D0E001E010E00E94260D98010C2E02C089
:101C7000220F331F0A94E2F7282339230C2E02C0C7
:101C8000369527950A94E2F7822F805D0E948D0D8C
:101C90002196C031D10539F7DF91CF911F910F9176
:101CA0000895CF92DF92EF92FF920F931F93DF93ED
:101CB000CF93CDB7DEB764970FB6F894DEBF0FBEF3
:101CC000CDBF7C016B01CA018E010F5F1F4FB801B0
:101CD000A9010E947713C701B601A8010E94F00D67
:101CE00064960FB6F894DEBF0FBECDBFCF91DF91E3
:101CF0001F910F91FF90EF90DF90CF900895CF92BA
:101D0000DF92EF92FF920F931F93DF93CF9300D058
:101D100000D000D0CDB7DEB77C016B01CA018E01C7
:101D20000F5F1F4FB8014AE050E00E947713C701D0
:101D3000B601A8010E94F00D26960FB6F894DEBFFA
:101D40000FBECDBFCF91DF911F910F91FF90EF900C
:101D5000DF90CF9008950F931F93182F062F0E94A6
:101D60009E0F80E00E94F70F80EA0E94F70F0E940A
:101D7000EF0F84EF91E024EF31E0F9013197F1F7B3
:101D80000197D9F7812F0E949E0F80E00E94F70FE4
:101D90008AEA0E94F70F0E94EF0F84EF91E024EF90
:101DA00031E0F9013197F1F70197D9F7812F0E94BE
:101DB0009E0F80E00E94F70F85EA0E94F70F0E94B5
:101DC000EF0F84EF91E024EF31E0F9013197F1F763
:101DD0000197D9F7812F0E949E0F80E00E94F70F94
:101DE000802F0E94F70F0E94EF0F1F910F9108950F
:101DF0001F93182F0E949E0F8823B9F481E00E9440
:101E0000F70F87E10E94F70F0E94EF0F812F0E94CA
:101E10009E0F882351F482E00E94F70F80E30E9416
:101E2000F70F0E94EF0F81E001C080E01F9108953D
:101E30000E949E0F882321F40E94EF0F81E00895F5
:101E40000E94EF0F80E008951F93182F0E949E0FAD
:101E5000882311F080E015C081E00E94F70F80E038
:101E60000E94F70F80E30E94F70F812F0E94EC0F72
:101E700080E00E94F70F81E50E94F70F0E94EF0FAC
:101E800081E01F910895FF920F931F93082F0E94E6
:101E9000240F802F0E94180F8823D9F702C00E94B8
:101EA000EF0F802F0E949E0F8823C9F782E00E94C7
:101EB000F70F0E94EF0F0F5F802F0E94EC0F882317
:101EC000D9F70E940910182F00E00E941310F82E75
:101ED0000E94EF0F0F0D111DC8011F910F91FF9070
:101EE0000895FF920F931F93082F02C00E94EF0FD7
:101EF000802F0E949E0F8823C9F782E00E94F70F6F
:101F00000E94EF0F0F5F802F0E94EC0F8823D9F7FC
:101F10000E940910182F00E00E941310F82E0E9452
:101F2000EF0F0F0D111DC8011F910F91FF90089524
:101F30001092B9008CE58093B8000895982F84EA38
:101F40008093BC008091BC0087FFFCCF8091B900DA
:101F5000887F883021F0803111F081E008959093DE
:101F6000BB0084E88093BC008091BC0087FFFCCF5D
:101F70009091B900987F983111F480E0089580E045
:101F8000903409F081E00895982F44EA34E824E978
:101F90004093BC008091BC0087FFFCCF8091B900CA
:101FA000887F883011F0803199F79093BB0030938F
:101FB000BC008091BC0087FFFCCF8091B900887F76
:101FC000803211F0883539F42093BC008091BC0038
:101FD00084FDFCCFDDCF08950E949E0F089584E913
:101FE0008093BC008091BC0084FDFCCF0895809359
:101FF000BB0084E88093BC008091BC0087FFFCCFCD
:102000008091B90090E0887F883209F091E0892FB3
:10201000089584EC8093BC008091BC0087FFFCCFC6
:102020008091BB00089584E88093BC008091BC003F
:1020300087FFFCCF8091BB00089580E50E949E0F32
:102040008FE30E94F70F80E20E94F70F0E94EF0FCC
:1020500008951F93182F80E50E949E0F882319F47E
:10206000812F0E94F70F81E50E94EC0F882311F069
:102070001FEF03C00E941310182F0E94EF0F812F33
:102080001F9108958DE30E9429108C30B1F080E5F6
:102090000E949E0F8DE30E94F70F8CE00E94F70FC5
:1020A0000E94EF0F80E50E949E0F8FE30E94F70FC2
:1020B00081E00E94F70F0E94EF0F08951F93CF93C6
:1020C000DF93182F80E50E949E0F882319F4812F3B
:1020D0000E94F70F81E50E94EC0F882319F0CFEFE3
:1020E000DFEF0AC00E940910C82FD0E00E94131031
:1020F000382F20E0C20FD31F0E94EF0FCE01DF91D7
:10210000CF911F9108950E945E106AE070E00E94D6
:102110005013CB0108950E945E10AA2797FDA09549
:10212000BA2FBC01CD010E940A1220E030E048EC39
:1021300052E40E946F1108950E945E1060E170E009
:102140000E945013CB0108955058BB27AA270ED0E8
:10215000FCC1EDD130F0F2D120F031F49F3F11F409
:102160001EF4BDC10EF4E095E7FBB3C1E92FFED12B
:1021700080F3BA17620773078407950718F071F4A4
:102180009EF516C20EF4E0950B2EBA2FA02D0B0172
:10219000B90190010C01CA01A0011124FF27591BAC
:1021A00099F0593F50F4503E68F11A16F040A22FB2
:1021B000232F342F4427585FF3CF46953795279523
:1021C000A795F0405395C9F77EF41F16BA0B620B22
:1021D000730B840BBAF09150A1F0FF0FBB1F661F69
:1021E000771F881FC2F70EC0BA0F621F731F841FAC
:1021F00048F4879577956795B795F7959E3F08F0D2
:10220000B3CF9395880F08F09927EE0F9795879590
:1022100008958DD158F080E891E009F49EEF8ED1B9
:1022200028F040E851E059F45EEF09C058C1C0C140
:10223000E92FE0789BD168F3092E052AC1F3261710
:1022400037074807590738F00E2E07F8E02569F0E0
:10225000E025E0640AC0EF6307F8009407FADB01A9
:10226000B9019D01DC01CA01AD01EF9347D06DD1E9
:102270000AD05F91552331F02BED3FE049E450FD4A
:1022800049EC63CF0895DF93DD27B92FBF7740E88E
:102290005FE31616170648075B0710F4D92F93D192
:1022A0009F938F937F936F93F8D1ECE7F0E01AD16F
:1022B0004CD12F913F914F915F9198D1DD2349F0FF
:1022C0009058A2EA2AED3FE049EC5FE3D0785D2721
:1022D0004DDFDF913AC1D9D008F481E008950CD0E8
:1022E00034C12CD140F023D130F021F45F3F19F0FC
:1022F000F0C051115EC1F3C039D198F39923C9F3ED
:102300005523B1F3951B550BBB27AA2762177307FB
:10231000840738F09F5F5F4F220F331F441FAA1FAF
:10232000A9F333D00E2E3AF0E0E830D0915050406F
:10233000E695001CCAF729D0FE2F27D0660F771F1D
:10234000881FBB1F261737074807AB07B0E809F0FF
:10235000BB0B802DBF01FF2793585F4F2AF09E3F94
:10236000510568F0B6C025C15F3FECF3983EDCF341
:10237000869577956795B795F7959F5FC9F7880F0D
:10238000911D9695879597F90895E1E0660F771F5F
:10239000881FBB1F621773078407BA0720F0621BF0
:1023A000730B840BBA0BEE1F88F7E095089504D0E9
:1023B0006894B111FEC00895E1D088F09F5790F065
:1023C000B92F9927B751A0F0D1F0660F771F881F5A
:1023D000991F1AF0BA95C9F712C0B13081F0E8D050
:1023E000B1E00895E5C0672F782F8827B85F39F0EE
:1023F000B93FCCF3869577956795B395D9F73EF4B9
:1024000090958095709561957F4F8F4F9F4F089560
:10241000E89409C097FB3EF490958095709561957E
:102420007F4F8F4F9F4F9923A9F0F92F96E9BB2734
:102430009395F695879577956795B795F111F8CFB0
:10244000FAF4BB0F11F460FF1BC06F5F7F4F8F4F1B
:102450009F4F16C0882311F096E911C0772321F011
:102460009EE8872F762F05C0662371F096E8862FA9
:1024700070E060E02AF09A95660F771F881FDAF700
:10248000880F9695879597F90895990F0008550F2D
:10249000AA0BE0E8FEEF16161706E807F907C0F0EA
:1024A00012161306E407F50798F0621B730B840BF2
:1024B000950B39F40A2661F0232B242B252B21F4CC
:1024C00008950A2609F4A140A6958FEF811D811D6C
:1024D000089597F99F6780E870E060E008959FEFA6
:1024E00080EC0895DF93CF931F930F93FF92EF92A9
:1024F000DF927B018C01689405C0DA2EEF0176D063
:10250000FE01E894A5912591359145915591AEF341
:10251000EF012CDEFE019701A801DA9479F7DF9034
:10252000EF90FF900F911F91CF91DF9108950024BC
:102530000A941616170618060906089500240A9428
:1025400012161306140605060895092E0394000CAE
:1025500011F4882352F0BB0F40F4BF2B11F460FF3D
:1025600004C06F5F7F4F8F4F9F4F089557FD905866
:10257000440F551F59F05F3F71F04795880F97FB47
:10258000991F61F09F3F79F0879508951216130601
:102590001406551FF2CF4695F1DF08C01616170630
:1025A0001806991FF1CF8695710561050894089565
:1025B000E894BB2766277727CB0197F9089565DF55
:1025C00008F48FEF08959B01AC0160E070E080E8B3
:1025D0009FE385CE0BD0B9CFAADF28F0AFDF18F08C
:1025E000952309F076CF7BCF1124E3CFBFDFA0F393
:1025F000959FD1F3950F50E0551F629FF001729F98
:10260000BB27F00DB11D639FAA27F00DB11DAA1FB6
:10261000649F6627B00DA11D661F829F2227B00D03
:10262000A11D621F739FB00DA11D621F839FA00D8E
:10263000611D221F749F3327A00D611D231F849FDE
:10264000600D211D822F762F6A2F11249F57504035
:102650008AF0E1F088234AF0EE0FFF1FBB1F661FD0
:10266000771F881F91505040A9F79E3F510570F089
:1026700030CF9FCF5F3FECF3983EDCF386957795A4
:102680006795B795F795E7959F5FC1F7FE2B880F84
:10269000911D9695879597F908959B01AC019ACF66
:1026A00097FB092E07260AD077FD04D00CD006D060
:1026B00000201AF4709561957F4F0895F6F7909574
:1026C00081959F4F0895AA1BBB1B51E107C0AA1F0C
:1026D000BB1FA617B70710F0A61BB70B881F991FC3
:1026E0005A95A9F780959095BC01CD010895FB01FD
:1026F0009F01E8944230C4F04532B4F44A3029F4E2
:1027000097FB1EF4909581959F4F642F77270E9429
:102710006313805D8A330CF0895D8193CB01009750
:10272000A1F716F45DE251931082C9010C94A31332
:10273000A8E1B0E042E050E00C94B5130E94C3134E
:10274000272F0C94C413DC01FC01672F71917723B0
:10275000E1F7329704C07C916D9370836291AE175C
:10276000BF07C8F30895DC01CB01FC01F999FECF46
:1027700006C0F2BDE1BDF89A319600B40D92415009
:102780005040B8F70895262FF999FECF1FBA92BD91
:1027900081BD20BD0FB6F894FA9AF99A0FBE019642
:0627A0000895F894FFCF3C
:1027A60055537C6C2F722F61004759524F00434D91
:1027B60050004100420043004400450046004700E7
:1027C6004800000000005BF88E3CC7F20E3D3B5E01
:1027D600563D7BDC8E3DB57EB23D0413D63DA296BA
:1027E600F93D65830E3E5C30203ED4D0313E6F63AA
:1027F600433ECDE6543E9159663E60BA773EEE833F
:10280600843E57208D3EBEB1953E7A379E3EDEB061
:10281600A63E441DAF3E017CB73E6FCCBF3EE90DE0
:10282600C83EC93FD03E6C61D83E2F72E03E717102
:10283600E83E945EF03EF738F83E0000003F89D946
:10284600033FCAA8073F776D0B3F44270F3FE8D5E4
:10285600123F1879163F8D101A3FFE9B1D3F241B11
:10286600213FBB8D243F7CF3273F254C2B3F72979E
:102876002E3F22D5313FF304353FA726383FFF3997
:102886003B3FBD3E3E3FA634413F7D1B443F0AF3DE
:10289600463F13BB493F60734C3FBD1B4F3FF3B3ED
:1028A600513FCE3B543F1DB3563FAE19593F516F72
:1028B6005B3FD7B35D3F14E75F3FDA08623F01191C
:1028C600643F5E17663FCA03683F1EDE693F35A652
:1028D6006B3FEC5B6D3F21FF6E3FB28F703F810D0A
:1028E600723F7178733F64D0743F3F15763FEA4676
:1028F600773F4D65783F5170793FE2677A3FEB4B02
:102906007B3F5C1C7C3F25D97C3F35827D3F811710
:102916007E3FFD987E3F9E067F3F5C607F3F2FA6F1
:102926007F3F14D87F3F05F67F3F0000803F4A0176
:102936005A00D2001700440071009E00CB00F80038
:1029460025015201011700440071009E00CB00F8DA
:102956000025015201FFFF6901FFFFFFFFFFFFFF97
:10296600FFFFFFFFFFFFFFFFFF31323334353637FE
:0629760038392A3023006D
:00000001FF
