:100000000C9455000C9472000C9472000C947200C5
:100010000C9472000C9472000C9472000C94720098
:100020000C9472000C9472000C9472000C94720088
:100030000C9472000C9472000C9472000C94940254
:100040000C9472000C9472000C9472000C94720068
:100050000C94FA060C9472000C9472000C947200CA
:100060000C94BF000C9472000C9472000C947200FB
:100070000C9472000C9472000C947200084AD73BE6
:100080003BCE016E84BCBFFDC12F3D6C74319ABD67
:1000900056833DDA3D00C77F11BED9E4BB4C3E918B
:1000A0006BAAAABE000000803F0011241FBECFEF44
:1000B000D0E1DEBFCDBF12E0A0E0B1E0EAEFF7E2B1
:1000C00002C005900D92A83DB107D9F713E0A8ED45
:1000D000B2E001C01D92AE37B107E1F70E94D90529
:1000E0000C94FB130C9400009B0177FF04C02227A3
:1000F0003327261B370B2F3F310519F014F09FEFE4
:1001000001C0922F813071F0813028F0823089F067
:10011000833001F517C077FF02C0299A01C02998E2
:1001200097BD089577FF02C02A9A01C02A9898BD0A
:1001300008951616170614F45C9A01C05C98909303
:10014000B30008951616170614F45D9A01C05D9861
:100150009093B400089590917C00906490937C00FB
:1001600097E890937A00882321F080917A00886440
:1001700003C080917A00877F80937A0008951F9250
:100180000F920FB60F9211242F933F934F935F93CB
:100190006F938F939F93AF93BF93EF93FF932091B0
:1001A0007800309179006091D802E62FF0E0EE0FF0
:1001B000FF1FDF01A750BD4F8D919C91281B390B6C
:1001C000DF01A752BD4F2D933C93E751FD4F408176
:1001D0005181CA01A6E0880F991FAA95E1F7841BF7
:1001E000950B280F391F86E0369527958A95E1F7FC
:1001F000318320836F5F6093D802683010F01092D3
:10020000D8028091D802806480937C0080917A002B
:10021000806480937A00FF91EF91BF91AF919F919D
:100220008F916F915F914F913F912F910F900FBEE2
:100230000F901F901895E9EDF2E020E030E080810A
:1002400091812817390708F49C01329682E0E93E33
:10025000F807A9F7C90108958091A402882341F005
:10026000289A80E593EC0197F1F728981092A40260
:100270000895AF92BF92CF92DF92EF92FF920F93C9
:100280001F93CF93DF93EB012091090330910A0371
:10029000280F391F253B31051CF02856314006C078
:1002A0008FEF2C34380714F428593E4FB9018827B2
:1002B00077FD8095982F0E9434127B018C0122E5F6
:1002C00039E44DE15CE30E94141320E030E040E0AB
:1002D00050E00E94CF105B016C0120E030E04AEF5B
:1002E00053E40E94091318165CF40F2EF0E0AF2EB1
:1002F000F0E0BF2EFAEFCF2EF3E4DF2EF02D14C086
:10030000C601B50120E030E04AEF53EC0E949511A0
:10031000882354F40F2EF0E0AF2EF0E0BF2EFAEF5A
:10032000CF2EF3ECDF2EF02DC801B70120E030E036
:1003300040E05FE30E9414137B018C01C601B5010C
:1003400020E030E040E050E00E94141323E333E368
:1003500043EF5FEB0E9414139B01AC01C801B7018E
:100360000E94CF107B018C01BE01882777FD80950C
:10037000982F0E9434122AE939E949E95EEB0E947C
:1003800014139B01AC01C801B7010E94CF107B017F
:100390008C0120E030E048EC52E40E94091318166A
:1003A0005CF40F2EF0E0EF2EF0E0FF2EF8EC0F2FB4
:1003B000F2E41F2FF02D14C0C801B70120E030E097
:1003C00048EC52EC0E949511882354F40F2EF0E073
:1003D000EF2EF0E0FF2EF8EC0F2FF2EC1F2FF02D98
:1003E000C801B7010E940112CB01DF91CF911F918B
:1003F0000F91FF90EF90DF90CF90BF90AF90089556
:10040000CF92DF92EF92FF920F931F93CF93DF93E0
:100410006B019A012C543F4F91E0283639071CF0AC
:100420009A01245B3040E82FF0E0EE0FFF1FE25707
:10043000FD4FCAE5D0E080819181C81BD90BC9016D
:1004400068E671E00E947A13C80FD91F02C0C8592C
:10045000DE4FD7FDFCCF02C0C856D14081E0C9367F
:10046000D807D4F7CA35D1055CF4CC0FDD1FCC0F0B
:10047000DD1FCE5DDE4FE880F9800A811B8135C02B
:10048000C43BD1057CF4E4EBF0E0EC1BFD0BEE0F7C
:10049000FF1FEE0FFF1FEE5DFE4FE080F180028137
:1004A000138123C091E0CE30D9075CF4CC0FDD1F5F
:1004B000CC0FDD1FCE5AD14088819981AA81BB81A2
:1004C0000EC0E8E6F1E0EC1BFD0BEE0FFF1FEE0F98
:1004D000FF1FEE5DFE4F80819181A281B3817C017F
:1004E0008D0117FB109517F91095C60160E071E0BA
:1004F0000E947A13AA2797FDA095BA2FBC01CD01BF
:100500000E9434129B01AC01C801B7010E94141370
:100510000E940112CB01DF91CF911F910F91FF90AB
:10052000EF90DF90CF9008951F920F920FB60F9229
:1005300011242F933F934F935F936F937F938F93E8
:100540009F93AF93BF93EF93FF938091A502813068
:1005500069F580EE0E94420F882351F080EE0E94E0
:100560009B0F909319038093180380EE0E944E0F07
:1005700082EE0E94420F882351F082EE0E949B0F70
:10058000909315038093140382EE0E944E0F86EE23
:100590000E94420F882351F086EE0E949B0F909399
:1005A00017038093160386EE0E944E0F8091A502DA
:1005B000823091F40E94970C0E94CE0B90931B0303
:1005C00080931A0380916003909161030E94ED0B68
:1005D00090931D0380931C038091A502833009F042
:1005E00030C1369B2EC180910F03882331F40E94C5
:1005F0000D0E8AE080930F0302C010920F0381E07A
:1006000090E061E070E040E051E00E941A0E4091FD
:1006100014035091150381E090E06AE070E00E94BD
:10062000A90E409116035091170381E090E06EE00F
:1006300070E00E94A90E409118035091190381E0C7
:1006400090E062E170E00E94A90E83E090E061E03A
:1006500070E049E051E00E941A0E40911A03509157
:100660001B0383E090E065E070E00E94A90E4091DA
:100670001C0350911D0383E090E06AE070E00E944B
:10068000A90EE9EDF2E040E050E080819181481749
:10069000590708F4AC01329682E0E93EF807A9F761
:1006A00083E090E061E170E00E94A90E82E090E0BA
:1006B00061E070E04DE051E00E941A0E40913D0370
:1006C00050913E0382E090E066E070E00E94A90E47
:1006D00040913F035091400382E090E06AE070E077
:1006E0000E94A90E409141035091420382E090E0A4
:1006F0006EE070E00E94A90E8091100390911103AA
:10070000843691050CF043C084E090E061E070E035
:1007100042E151E00E941A0E4091D9025091DA0252
:1007200084E090E062E070E00E94A90E84E090E036
:1007300066E070E044E151E00E941A0E4091DB0255
:100740005091DC0284E090E067E070E00E94A90E26
:1007500084E090E06BE070E046E151E00E941A0E08
:100760004091DD025091DE0284E090E06CE070E0A8
:100770000E94A90E84E090E060E170E048E151E061
:100780000E941A0E4091DF025091E00246C0883C60
:1007900091050CF052C084E090E061E070E04AE125
:1007A00051E00E941A0E4091E1025091E20284E071
:1007B00090E062E070E00E94A90E84E090E066E0C4
:1007C00070E04CE151E00E941A0E4091E30250911A
:1007D000E40284E090E067E070E00E94A90E84E00B
:1007E00090E06BE070E04EE151E00E941A0E409103
:1007F000E5025091E60284E090E06CE070E00E9437
:10080000A90E84E090E060E170E040E251E00E94D7
:100810001A0E4091E7025091E80284E090E061E115
:1008200070E00E94A90E809110039091110301962F
:10083000909311038093100304C01092110310923F
:1008400010038091A502833011F481E001C08F5F15
:100850008093A502FF91EF91BF91AF919F918F91EE
:100860007F916F915F914F913F912F910F900FBEAC
:100870000F901F9018952F923F924F925F926F9218
:100880007F928F929F92AF92BF92CF92DF92EF9220
:10089000FF920F931F93DF93CF9300D000D000D02F
:1008A000CDB7DEB71A82198222243324442455247A
:1008B000F201E752FD4F608171816536710508F4E0
:1008C000D2C080E090E00E9432126B837C838D83E3
:1008D0009E83F201EC56FD4F20813181F901E65AE9
:1008E000FF4F02C0E859FE4FF7FDFCCF02C0E856AB
:1008F000F14081E0E936F807D4F7EA35F10544F034
:10090000E43BF10584F484EB90E08E1B9F0BFC012B
:10091000EE0FFF1FEE0FFF1FEE5DFE4F6080718038
:100920008280938023C091E0EE30F9073CF4EE0F13
:10093000FF1FEE0FFF1FEE5AF1400BC088E691E05B
:100940008E1B9F0BFC01EE0FFF1FEE0FFF1FEE5DD6
:10095000FE4F80819181A281B3813C014D0197FAC4
:10096000909497F8909402C028593E4F37FDFCCFE1
:1009700002C02856314091E029363907D4F72A358C
:10098000310544F4220F331F220F331F2E5D3E4FDB
:10099000F9010DC0243B31057CF4E4EBF0E0E21BEF
:1009A000F30BEE0FFF1FEE0FFF1FEE5DFE4FA0805B
:1009B000B180C280D38020C0F1E02E303F0744F4E4
:1009C000220F331F220F331F2E5A3140F9010AC064
:1009D000E8E6F1E0E21BF30BEE0FFF1FEE0FFF1F47
:1009E000EE5DFE4F80819181A281B3815C016D013A
:1009F000D7FAD094D7F8D09429813A81B9018827C1
:100A000077FD8095982F0E9434127B018C016B81B9
:100A10007C818D819E81A40193010E9414139B010E
:100A2000AC01C801B7010E94CF100E9401127A8365
:100A30006983B101882777FD8095982F0E94341231
:100A40007B018C016B817C818D819E81A60195014A
:100A50000E9414139B01AC01C801B7010E94CF1082
:100A60000E9401121B0182E090E0480E591E90E1A5
:100A70004916510409F01CCFB101882777FD8095F4
:100A8000982F0E9434127B018C01E981FA81BF0109
:100A9000882777FD8095982F0E9434129B01AC0126
:100AA000C801B7010E94421120E030E044E353E462
:100AB0000E9414132BED3FE049E450E40E94991189
:100AC0000E9401129B0177FF02C028593E4FC901C5
:100AD00026960FB6F894DEBF0FBECDBFCF91DF9143
:100AE0001F910F91FF90EF90DF90CF90BF90AF904C
:100AF0009F908F907F906F905F904F903F902F903E
:100B000008950E943B049C01853B910514F02856F2
:100B10003140E9EDF2E080E090E0408151818417BE
:100B2000950708F4CA01329642E0E93EF407A9F7B6
:100B30008855924094F0C901875A9F4F833B910595
:100B400018F4220F331F09C037FD03C082E390E081
:100B500002C08EEC9FEF280F391FC9010895CF9274
:100B6000DF92EF92FF921F93CF93DF936A010E946F
:100B700039017C010E948105EC0110E0812FB60152
:100B8000AE010E940002BC016E0D7F1D113019F4F0
:100B9000709561957F4F812F0E9474001F5F133005
:100BA00069F7DF91CF911F91FF90EF90DF90CF9089
:100BB00008951F93CF93DF93A8952FE088E190E0ED
:100BC0000FB6F894A895809360000FBE2093600044
:100BD0008FEF8AB95398529884B9429A439A459AAA
:100BE000469A479A5B9A5A9A0E94C20F93EA94BD1A
:100BF00083E085BD9093B00084E08093B10081E0F4
:100C000080936F00809381000E94AB008EE090E0A3
:100C10000E94C213909361038093600304B603FCA7
:100C20002F9A84B7877F84BF0E94140D789420E0A8
:100C300030E040E85FEB209362033093630340931E
:100C400064035093650383E393E3A3E3BFE38093DB
:100C5000660390936703A0936803B093690380933E
:100C60006A0390936B03A0936C03B0936D0380E0D1
:100C700090E0A0E0B0E080936E0390936F03A093A8
:100C80007003B093710380E090E0A0E8BFE380932D
:100C9000720390937303A0937403B093750320932E
:100CA00076033093770340937803509379038091D0
:100CB0000B0390910C0390934A0380934903C8E877
:100CC000D3E111E0329920C02E9A20E0CE010197A5
:100CD000F1F7A8952F5F2530C9F781E090E060E03B
:100CE00070E00E94C81360911A0370911B038EE09C
:100CF00090E00E94C81380911A0390911B03909377
:100D00006103809360032E98379B02C02E9A03C024
:100D10001093A4022E98E9EDF2E080E090E02081AB
:100D200031818217930708F4C901329622E0E93E27
:100D3000F207A9F7895592400CF446C080911A0336
:100D400090911B032091600330916103281B390BA4
:100D500030931D0320931C0380911C0390911D036D
:100D6000885F984F3CF480911C0390911D03805F35
:100D7000914F0DC080911C0390911D0389509740A5
:100D800054F080911C0390911D0380519E409093DC
:100D90001D0380931C0380911C0390911D036AE046
:100DA00070E00E947A1370931D0360931C0380917E
:100DB0001C0390911D0360914103709142034AE529
:100DC00050E00E94AF050FC080E060E070E00E943C
:100DD000740081E060E070E00E94740082E060E0F6
:100DE00070E00E947400A8956DCF90937D0380936E
:100DF0007C0308951F920F920FB60F9211246F92E9
:100E00007F928F929F92AF92BF92CF92DF92EF929A
:100E1000FF920F931F932F933F934F935F936F9383
:100E20007F938F939F93AF93BF93CF93DF93EF9372
:100E3000FF934091C600842F817080932803242F54
:100E400030E0C90182709070959587958093270353
:100E5000C901847090709595879595958795809335
:100E60002603C90188709070E3E095958795EA950F
:100E7000E1F780932503C9018071907074E0959526
:100E800087957A95E1F780932403C9018072907069
:100E900065E0959587956A95E1F780932303207423
:100EA000307056E0359527955A95E1F72093220347
:100EB000441F4427441F409321034091B6025091A0
:100EC000B7026091B8027091B902C6EAD2E0A0E020
:100ED000B0E0FD01EF5DFC4F8081882321F1288186
:100EE000398180917A0390917B03F901E81BF90B1A
:100EF0004E175F073CF480917A0390917B03A90120
:100F0000481B590B80917A0390917B03F901E81BF0
:100F1000F90BE617F7073CF480917A0390917B0375
:100F2000B901681B790B11962296A830B10589F694
:100F3000FFEF4F3F5F07D9F480913803882339F0E2
:100F400080913203882319F481E0809339038091E2
:100F500033038A3020F48F5F8093330354C0809131
:100F60003903882309F04FC08FEF9FEF48C0641703
:100F70007507A1F41092390310923303CB01845BFF
:100F8000904090932A038093290397FF3CC06C54B0
:100F90007F4F70932A036093290335C01092390361
:100FA000109233039A01261B370B243B310534F48E
:100FB00088E691E0FC01E21BF30B9F01C9019595C6
:100FC0008795F1E04F305F0754F06A3571053CF4C6
:100FD000481B590B50932A034093290306C0840FE2
:100FE000951F90932A038093290380912903909160
:100FF0002A0321E08936920734F088569140909375
:101000002A03809329038091BC029091BD028F5FD7
:101010009F4F51F48091290390912A03845B904063
:101020009093BD028093BC028091BC029091BD025E
:1010300097FF0AC08091BC029091BD0288599E4FD3
:101040009093BD028093BC02C0912903D0912A03E2
:101050008CE4682E8FEF782E6C0E7D1E7092BF028E
:101060006092BE028091BE029091BF0297FF0AC0BB
:101070008091BE029091BF0288599E4F9093BF020B
:101080008093BE0280913903882319F081E0809318
:101090003203FFEFCF3FDF07D9F410923203D09332
:1010A000BD02C093BC02D093BF02C093BE02109297
:1010B0003C0388E19CEF9093C1028093C002D093DF
:1010C000BB02C093BA021092300310922F0309C3DF
:1010D00080913903882311F0109238032091BA02CD
:1010E0003091BB028FEF2F3F380769F180913903B0
:1010F000882349F5FE01E21BF30B9F01F7FF03C0B4
:10110000309521953F4F3093300320932F03253B9B
:10111000310544F088E691E0821B930B90933003F5
:1011200080932F0380912F03909130038536910592
:1011300034F081E0809338038093310304C010922F
:1011400038031092310380913103882309F09AC04B
:1011500080913903882309F095C08091C002909155
:10116000C10297FF41C0F1E0CF30DF07A4F020912A
:10117000BC023091BD02CE018E5091402817390734
:101180000CF47AC08091BC029091BD0289569140C6
:101190000CF076C024C0CA35D105B4F42091BC024D
:1011A0003091BD02CE01825F9E4F821793070CF4EF
:1011B00063C08091BC029091BD0297FD61C02091F7
:1011C000BC023091BD023DC02091BC023091BD02F5
:1011D000CE01875A9F4F821793070CF451C020917C
:1011E000BC023091BD0242C081E0CF30D80794F0FC
:1011F0002091C0023091C102CE018E50914028173B
:101200003907D4F18091C0029091C1028956914072
:10121000BCF528C0CA35D105DCF42091C00230915C
:10122000C102CE01825F9E4F821793072CF18091FD
:10123000C0029091C10297FD23C02091C00230915D
:10124000C102CE01875A9F4F82179307CCF014C07A
:101250002091C0023091C102CE01875A9F4F821760
:10126000930774F02091C0023091C102CE018955DC
:1012700090402817390724F081E08093380302C09A
:101280001092380380913803882329F0D093C1024B
:10129000C093C002E4C12091BC023091BD02809194
:1012A000BE029091BF02281B390B37FF03C0309557
:1012B00021953F4F283231050CF4D1C1809138037C
:1012C000882309F0CCC180913903882309F0C7C174
:1012D0008091BC029091BD028F5F9F4F09F4BFC106
:1012E0002091BC023091BD028091BE029091BF025C
:1012F000821793070CF0D1C08091BC029091BD027F
:101300002091BE023091BF02821B930B853B910559
:101310000CF466C080913C03823009F461C081E026
:1013200080933C036091BE027091BF022091BC0289
:101330003091BD0268597E4F621B730B882777FD81
:101340008095982F0E94341220E030E040E05FE367
:101350000E94141320E030E048E452E40E94091394
:10136000181654F48091BC029091BD02C2969093DD
:10137000C1028093C00234C06091BC027091BD0272
:10138000E090BE02F090BF028090BC029090BD023F
:10139000882777FD8095982F0E9434125B016C019D
:1013A00088E691E0E80EF91EE818F9080027F7FC36
:1013B0000095102FC801B7010E94341220E030E0E0
:1013C00040E05FE30E9414139B01AC01C601B5012C
:1013D0000E94CF100E9401127093C1026093C0025C
:1013E0008091BC029091BD022091BE023091BF025B
:1013F000821B930B843B91050CF031C180913C031F
:10140000813009F42CC182E080933C036091BC02DE
:101410007091BD022091BE023091BF02621B730B1E
:10142000882777FD8095982F0E94341220E030E0C5
:1014300040E05FE30E94141320E030E048E452E40F
:101440000E940913181634F48091BC029091BD02D9
:10145000C297D0C06091BC027091BD02E090BC0206
:10146000F090BD02C090BE02D090BF02882777FDE9
:101470008095982F0E9434124B015C01EC18FD08F6
:101480000027F7FC0095102FC801B7010E94341205
:1014900020E030E040E05FEBD4C08091BE0290914C
:1014A000BF022091BC023091BD02821B930B853B91
:1014B00091050CF466C080913C03813009F461C051
:1014C00082E080933C036091BC027091BD02209148
:1014D000BE023091BF0268597E4F621B730B882792
:1014E00077FD8095982F0E94341220E030E040E094
:1014F0005FE30E94141320E030E048E452E40E94CD
:101500000913181654F48091BC029091BD02C29741
:101510009093C1028093C00234C06091BC0270916C
:10152000BD02E090BC02F090BD028090BE0290909F
:10153000BF02882777FD8095982F0E9434125B01A7
:101540006C01E8E6F1E0EE0EFF1EE818F90800274E
:10155000F7FC0095102FC801B7010E94341220E05B
:1015600030E040E05FEB0E9414139B01AC01C60128
:10157000B5010E94CF100E9401127093C1026093C6
:10158000C0028091BE029091BF022091BC023091B6
:10159000BD02821B930B843B91050CF060C08091CF
:1015A0003C03823009F45BC081E080933C0360918E
:1015B000BE027091BF022091BC023091BD02621B3D
:1015C000730B882777FD8095982F0E94341220E0B6
:1015D00030E040E05FE30E94141320E030E048E494
:1015E00052E40E940913181654F48091BC029091A1
:1015F000BD02C2969093C1028093C00230C0609138
:10160000BC027091BD02E090BE02F090BF02C0909B
:10161000BC02D090BD02882777FD8095982F0E944C
:1016200034124B015C01EC18FD080027F7FC009513
:10163000102FC801B7010E94341220E030E040E0D2
:101640005FE30E9414139B01AC01C501B4010E9429
:10165000CF100E9401127093C1026093C00280916A
:10166000C0029091C10288519C4F09F18091C00243
:101670009091C1028956914054F08091C00290919E
:10168000C102885691409093C1028093C00280911C
:10169000C0029091C10297FF0AC08091C002909150
:1016A000C10288599E4F9093C1028093C0028091DD
:1016B0003803882371F0CE018C549F4F90932A03F6
:1016C000809329038956914024F070922A036092F6
:1016D00029038091290390912A039093BB02809360
:1016E000BA028091290390912A039093C9028093B2
:1016F000C8028FEF9FEF9093B7028093B60288E6FF
:1017000091E09093B9028093B802FF91EF91DF913D
:10171000CF91BF91AF919F918F917F916F915F9189
:101720004F913F912F911F910F91FF90EF90DF907C
:10173000CF90BF90AF909F908F907F906F900F90C1
:101740000FBE0F901F901895A8E2B3E010922803E7
:1017500020912803FD0122932081FD0132972083EF
:101760002081FD01339720832081FD013497208360
:101770002081FD01359720832081FD01369720834C
:10178000208117972C939093C5008093C40080E923
:101790008093C10086E08093C20008950F931F9349
:1017A00080EC0E94C80F82E00E9421100E94191054
:1017B00081EC0E94C80F8823C9F70E943310182FAC
:1017C0000E943D10082F0E941910312F20E0200F99
:1017D000311DC9011F910F9108950F931F938C0123
:1017E0000E94CE0B9C01201B310B88EF283F38074D
:1017F0001CF4205F314F06C087E02830380714F012
:1018000020513E40C9011F910F9108951F9380EC14
:101810000E94C80F81E00E9421100E94191081ECE3
:101820000E94C80F8823C9F70E943D10182F0E94FC
:101830001910812F1F910895EF92FF920F931F931C
:1018400080ED0E94C80F882319F48BE30E942110B9
:1018500081ED0E941610882309F062C00E943310A7
:10186000F82EEE24F0924403E09243030E943310DA
:10187000E80EF11C0027F7FC0095102FC801B701F6
:101880000E94341220E030E04AE75DE30E94141326
:101890000E940112675170407093440360934303A8
:1018A0000E943310F82EEE24F0924603E092450396
:1018B0000E943310E80EF11C0027F7FC0095102F52
:1018C000C801B7010E94341220E030E04AE75DE32E
:1018D0000E9414130E940112709346036093450303
:1018E0000E943310F82EEE24F0924803E092470352
:1018F0000E943D10E80EF11C0027F7FC0095102F08
:10190000C801B7010E94341220E030E04AE75DE3ED
:101910000E9414130E9401127093480360934703BE
:101920000E9419101F910F91FF90EF900895EF9270
:10193000FF920F931F9380ED0E94C80F882319F424
:1019400083E40E94211081ED0E941610882309F083
:1019500064C00E943310F82EEE24F0923E03E09211
:101960003D030E943310E80EF11C0027F7FC0095A0
:10197000102FC801B7010E94341220E030E04AE77E
:101980005DE30E9414130E9401126B51704070932A
:101990003E0360933D030E943310F82EEE24F09234
:1019A0004003E0923F030E943310E80EF11C002731
:1019B000F7FC0095102FC801B7010E94341220E0F7
:1019C00030E04AE75DE30E9414130E940112615067
:1019D00070407093400360933F030E943310F82ED1
:1019E000EE24F0924203E09241030E943D10E80E83
:1019F000F11C0027F7FC0095102FC801B7010E94C9
:101A0000341220E030E04AE75DE30E9414130E94A4
:101A1000011270934203609341030E9419101F91B9
:101A20000F91FF90EF90089580ED0E94C80F8BE614
:101A30000E94211080E80E9421100E94191088EC59
:101A400090E024EF31E0F9013197F1F70197D9F7F0
:101A500080ED0E94C80F8BE60E94211080E00E945A
:101A600021100E94191080ED0E94C80F8AE10E9487
:101A7000211086E00E94211088E10E94211080E060
:101A80000E9421100E94191080ED0E94C80F8CE165
:101A90000E94211080E10E9421100E9419100895D7
:101AA0000F931F9386EC0E94C80F882319F02FEF25
:101AB0003FEF13C081E00E94211087EC0E94C80F05
:101AC0000E943310082F0E943D10182F0E941910F9
:101AD000912F80E09C01200F311DC9011F910F91B2
:101AE00008950F931F93CF93DF93182F092F86EC40
:101AF0000E94C80F882371F40E942110812F902F1B
:101B00009C01E90102C00E94211089918823D9F724
:101B10000E941910DF91CF911F910F910895FF92AC
:101B20000F931F93CF93DF93F82E8B0186EC0E94C7
:101B3000C80F8823B1F40E9421108BE10E9421106C
:101B40008F2D0E942110C0E0D0E0F801EC0FFD1FA6
:101B500080810E9421102196C830D105B1F70E94E2
:101B60001910DF91CF911F910F91FF9008951F934E
:101B7000182F86EC0E94C80F80E00E942110812F50
:101B80000E9421100E9419101F910895CF93DF9396
:101B9000EC0186EC0E94C80F882359F40E942110A2
:101BA000CD2B11F083E101C084E10E9421100E943D
:101BB0001910DF91CF9108951F93182F86EC0E9482
:101BC000C80F882379F40E942110112311F484E0B6
:101BD00005C0123011F485E001C086E00E9421109A
:101BE0000E9419101F9108950F931F93182F062F0D
:101BF00086EC0E94C80F882369F40E94211083E0BC
:101C00000E942110812F0E942110802F0E942110FC
:101C10000E9419101F910F91089586EC0E94C80F21
:101C2000882339F40E9421108CE00E9421100E9428
:101C300019100895EF92FF920F931F93CF93DF93A4
:101C4000182F062FF42EE52E86EC0E94C80F88234D
:101C5000B9F40E94211083E00E942110812F0E947C
:101C60002110802F0E9421108F2D9E2D9C01E901B3
:101C700002C00E94211089918823D9F70E9419106F
:101C8000DF91CF911F910F91FF90EF9008950F93E7
:101C90001F93CF93DF9381E090E061E070E04AEC26
:101CA00052E00E941A0E82E090E061E070E00E9433
:101CB000F40DC0E0D0E001E010E00E94500D98016A
:101CC0000C2E02C0220F331F0A94E2F72823392377
:101CD0000C2E02C0369527950A94E2F7822F805D7C
:101CE0000E94B70D2196C031D10539F7DF91CF9110
:101CF0001F910F910895CF92DF92EF92FF920F9371
:101D00001F93DF93CF93CDB7DEB764970FB6F894E8
:101D1000DEBF0FBECDBF7C016B01CA018E010F5F1C
:101D20001F4FB801A9010E94A113C701B601A80164
:101D30000E941A0E64960FB6F894DEBF0FBECDBF98
:101D4000CF91DF911F910F91FF90EF90DF90CF9097
:101D50000895CF92DF92EF92FF920F931F93DF933C
:101D6000CF9300D000D000D0CDB7DEB77C016B019F
:101D7000CA018E010F5F1F4FB8014AE050E00E9478
:101D8000A113C701B601A8010E941A0E26960FB62C
:101D9000F894DEBF0FBECDBFCF91DF911F910F91A1
:101DA000FF90EF90DF90CF9008950F931F93182F1F
:101DB000062F0E94C80F80E00E94211080EA0E9436
:101DC00021100E94191084EF91E024EF31E0F90115
:101DD0003197F1F70197D9F7812F0E94C80F80E062
:101DE0000E9421108AEA0E9421100E94191084EF9B
:101DF00091E024EF31E0F9013197F1F70197D9F73C
:101E0000812F0E94C80F80E00E94211085EA0E9465
:101E100021100E94191084EF91E024EF31E0F901C4
:101E20003197F1F70197D9F7812F0E94C80F80E011
:101E30000E942110802F0E9421100E9419101F91D2
:101E40000F9108951F93182F0E94C80F8823B9F48B
:101E500081E00E94211087E10E9421100E94191048
:101E6000812F0E94C80F882351F482E00E94211024
:101E700080E30E9421100E94191081E001C080E0DF
:101E80001F9108950E94C80F882321F40E94191001
:101E900081E008950E94191080E008951F93182F83
:101EA0000E94C80F882311F080E015C081E00E94D5
:101EB000211080E00E94211080E30E942110812FD8
:101EC0000E94161080E00E94211081E50E942110DE
:101ED0000E94191081E01F910895FF920F931F93A4
:101EE000082F0E944E0F802F0E94420F8823D9F79F
:101EF00002C00E941910802F0E94C80F8823C9F7C2
:101F000082E00E9421100E9419100F5F802F0E9412
:101F100016108823D9F70E943310182F00E00E9472
:101F20003D10F82E0E9419100F0D111DC8011F91B0
:101F30000F91FF900895FF920F931F93082F02C0F7
:101F40000E941910802F0E94C80F8823C9F782E0D1
:101F50000E9421100E9419100F5F802F0E941610FE
:101F60008823D9F70E943310182F00E00E943D10FB
:101F7000F82E0E9419100F0D111DC8011F910F910D
:101F8000FF9008951092B9008CE58093B8000895F1
:101F9000982F84EA8093BC008091BC0087FFFCCF1F
:101FA0008091B900887F883021F0803111F081E084
:101FB00008959093BB0084E88093BC008091BC009E
:101FC00087FFFCCF9091B900987F983111F480E0A1
:101FD000089580E0903409F081E00895982F44EA54
:101FE00034E824E94093BC008091BC0087FFFCCF1B
:101FF0008091B900887F883011F0803199F79093F3
:10200000BB003093BC008091BC0087FFFCCF809167
:10201000B900887F803211F0883539F42093BC00F4
:102020008091BC0084FDFCCFDDCF08950E94C80FD5
:10203000089584E98093BC008091BC0084FDFCCFAE
:1020400008958093BB0084E88093BC008091BC001D
:1020500087FFFCCF8091B90090E0887F883209F03B
:1020600091E0892F089584EC8093BC008091BC009E
:1020700087FFFCCF8091BB00089584E88093BC006B
:102080008091BC0087FFFCCF8091BB00089580E564
:102090000E94C80F8FE30E94211080E20E9421104D
:1020A0000E94191008951F93182F80E50E94C80FF1
:1020B000882319F4812F0E94211081E50E941610B7
:1020C000882311F01FEF03C00E943D10182F0E94BB
:1020D0001910812F1F9108958DE30E9453108C30A9
:1020E000B1F080E50E94C80F8DE30E9421108CE0C2
:1020F0000E9421100E94191080E50E94C80F8FE3F2
:102100000E94211081E00E9421100E941910089560
:102110001F93CF93DF93182F80E50E94C80F882369
:1021200019F4812F0E94211081E50E941610882346
:1021300019F0CFEFDFEF0AC00E943310C82FD0E0B4
:102140000E943D10382F20E0C20FD31F0E941910AB
:10215000CE01DF91CF911F9108950E9488106AE00F
:1021600070E00E947A13CB0108950E948810AA277C
:1021700097FDA095BA2FBC01CD010E94341220E03A
:1021800030E048EC52E40E94991108950E948810B2
:1021900060E170E00E947A13CB0108955058BB278C
:1021A000AA270ED0FCC1EDD130F0F2D120F031F4ED
:1021B0009F3F11F41EF4BDC10EF4E095E7FBB3C1DF
:1021C000E92FFED180F3BA176207730784079507DA
:1021D00018F071F49EF516C20EF4E0950B2EBA2F8E
:1021E000A02D0B01B90190010C01CA01A00111241D
:1021F000FF27591B99F0593F50F4503E68F11A16C9
:10220000F040A22F232F342F4427585FF3CF469559
:1022100037952795A795F0405395C9F77EF41F167B
:10222000BA0B620B730B840BBAF09150A1F0FF0F45
:10223000BB1F661F771F881FC2F70EC0BA0F621F31
:10224000731F841F48F4879577956795B795F79521
:102250009E3F08F0B3CF9395880F08F09927EE0FB3
:102260009795879508958DD158F080E891E009F40D
:102270009EEF8ED128F040E851E059F45EEF09C09E
:1022800058C1C0C1E92FE0789BD168F3092E052A17
:10229000C1F3261737074807590738F00E2E07F8FD
:1022A000E02569F0E025E0640AC0EF6307F80094D8
:1022B00007FADB01B9019D01DC01CA01AD01EF9311
:1022C00047D06DD10AD05F91552331F02BED3FE01F
:1022D00049E450FD49EC63CF0895DF93DD27B92F22
:1022E000BF7740E85FE31616170648075B0710F450
:1022F000D92F93D19F938F937F936F93F8D1ECE76E
:10230000F0E01AD14CD12F913F914F915F9198D12C
:10231000DD2349F09058A2EA2AED3FE049EC5FE363
:10232000D0785D274DDFDF913AC1D9D008F481E044
:1023300008950CD034C12CD140F023D130F021F4D9
:102340005F3F19F0F0C051115EC1F3C039D198F36D
:102350009923C9F35523B1F3951B550BBB27AA2726
:1023600062177307840738F09F5F5F4F220F331F98
:10237000441FAA1FA9F333D00E2E3AF0E0E830D064
:1023800091505040E695001CCAF729D0FE2F27D067
:10239000660F771F881FBB1F261737074807AB0735
:1023A000B0E809F0BB0B802DBF01FF2793585F4FAA
:1023B0002AF09E3F510568F0B6C025C15F3FECF39F
:1023C000983EDCF3869577956795B795F7959F5F6F
:1023D000C9F7880F911D9695879597F90895E1E0C3
:1023E000660F771F881FBB1F621773078407BA0722
:1023F00020F0621B730B840BBA0BEE1F88F7E0957D
:10240000089504D06894B111FEC00895E1D088F019
:102410009F5790F0B92F9927B751A0F0D1F0660FD0
:10242000771F881F991F1AF0BA95C9F712C0B130EB
:1024300081F0E8D0B1E00895E5C0672F782F8827B4
:10244000B85F39F0B93FCCF3869577956795B3952A
:10245000D9F73EF490958095709561957F4F8F4F99
:102460009F4F0895E89409C097FB3EF4909580959E
:10247000709561957F4F8F4F9F4F9923A9F0F92F4A
:1024800096E9BB279395F695879577956795B795C8
:10249000F111F8CFFAF4BB0F11F460FF1BC06F5FAE
:1024A0007F4F8F4F9F4F16C0882311F096E911C0C0
:1024B000772321F09EE8872F762F05C0662371F0E1
:1024C00096E8862F70E060E02AF09A95660F771FF5
:1024D000881FDAF7880F9695879597F90895990FD1
:1024E0000008550FAA0BE0E8FEEF16161706E807DE
:1024F000F907C0F012161306E407F50798F0621BFF
:10250000730B840B950B39F40A2661F0232B242BD3
:10251000252B21F408950A2609F4A140A6958FEFF2
:10252000811D811D089597F99F6780E870E060E044
:1025300008959FEF80EC0895DF93CF931F930F933F
:10254000FF92EF92DF927B018C01689405C0DA2E36
:10255000EF0176D0FE01E894A59125913591459142
:102560005591AEF3EF012CDEFE019701A801DA943C
:1025700079F7DF90EF90FF900F911F91CF91DF914E
:10258000089500240A9416161706180609060895D9
:1025900000240A9412161306140605060895092E3F
:1025A0000394000C11F4882352F0BB0F40F4BF2BAE
:1025B00011F460FF04C06F5F7F4F8F4F9F4F0895EE
:1025C00057FD9058440F551F59F05F3F71F04795E4
:1025D000880F97FB991F61F09F3F79F087950895C9
:1025E000121613061406551FF2CF4695F1DF08C0E8
:1025F000161617061806991FF1CF86957105610505
:1026000008940895E894BB2766277727CB0197F9AC
:10261000089565DF08F48FEF08959B01AC0160E039
:1026200070E080E89FE385CE0BD0B9CFAADF28F019
:10263000AFDF18F0952309F076CF7BCF1124E3CFDD
:10264000BFDFA0F3959FD1F3950F50E0551F629F18
:10265000F001729FBB27F00DB11D639FAA27F00DFB
:10266000B11DAA1F649F6627B00DA11D661F829F22
:102670002227B00DA11D621F739FB00DA11D621F07
:10268000839FA00D611D221F749F3327A00D611D24
:10269000231F849F600D211D822F762F6A2F112406
:1026A0009F5750408AF0E1F088234AF0EE0FFF1F59
:1026B000BB1F661F771F881F91505040A9F79E3F90
:1026C000510570F030CF9FCF5F3FECF3983EDCF3C5
:1026D000869577956795B795F795E7959F5FC1F7CD
:1026E000FE2B880F911D9695879597F908959B016C
:1026F000AC019ACF97FB092E07260AD077FD04D0AC
:102700000CD006D000201AF4709561957F4F089583
:10271000F6F7909581959F4F0895AA1BBB1B51E139
:1027200007C0AA1FBB1FA617B70710F0A61BB70B41
:10273000881F991F5A95A9F780959095BC01CD01E6
:102740000895FB019F01E8944230C4F04532B4F48F
:102750004A3029F497FB1EF4909581959F4F642F82
:1027600077270E948D13805D8A330CF0895D8193F9
:10277000CB010097A1F716F45DE251931082C901D5
:102780000C94CD13A8E1B0E042E050E00C94DF13CC
:102790000E94ED13272F0C94EE13DC01FC01672F30
:1027A00071917723E1F7329704C07C916D93708328
:1027B0006291AE17BF07C8F30895DC01CB01FC019D
:1027C000F999FECF06C0F2BDE1BDF89A319600B48A
:1027D0000D9241505040B8F70895262FF999FECF39
:1027E0001FBA92BD81BD20BD0FB6F894FA9AF99A2E
:0A27F0000FBE01960895F894FFCF84
:1027FA0055537C6C2F722F6100434D50004759523C
:10280A004F00410042004300440045004600470093
:10281A004800000000005BF88E3CC7F20E3D3B5EAC
:10282A00563D7BDC8E3DB57EB23D0413D63DA29665
:10283A00F93D65830E3E5C30203ED4D0313E6F6355
:10284A00433ECDE6543E9159663E60BA773EEE83EA
:10285A00843E57208D3EBEB1953E7A379E3EDEB00D
:10286A00A63E441DAF3E017CB73E6FCCBF3EE90D8C
:10287A00C83EC93FD03E6C61D83E2F72E03E7171AE
:10288A00E83E945EF03EF738F83E0000003F89D9F2
:10289A00033FCAA8073F776D0B3F44270F3FE8D590
:1028AA00123F1879163F8D101A3FFE9B1D3F241BBD
:1028BA00213FBB8D243F7CF3273F254C2B3F72974A
:1028CA002E3F22D5313FF304353FA726383FFF3943
:1028DA003B3FBD3E3E3FA634413F7D1B443F0AF38A
:1028EA00463F13BB493F60734C3FBD1B4F3FF3B399
:1028FA00513FCE3B543F1DB3563FAE19593F516F1E
:10290A005B3FD7B35D3F14E75F3FDA08623F0119C7
:10291A00643F5E17663FCA03683F1EDE693F35A6FD
:10292A006B3FEC5B6D3F21FF6E3FB28F703F810DB5
:10293A00723F7178733F64D0743F3F15763FEA4621
:10294A00773F4D65783F5170793FE2677A3FEB4BAD
:10295A007B3F5C1C7C3F25D97C3F35827D3F8117BC
:10296A007E3FFD987E3F9E067F3F5C607F3F2FA69D
:10297A007F3F14D87F3F05F67F3F0000803F4A0122
:10298A005A00D2001700440071009E00CB00F800E4
:10299A002501520101011700440071009E00CB007D
:1029AA00F80025015201FFFF6901FFFFFFFFFFFF4A
:1029BA00FFFFFFFFFFFFFFFFFFFF313233343536E2
:0829CA003738392A30230000E0
:00000001FF
