:100000000C9455000C9472000C9472000C947200C5
:100010000C9472000C9472000C9472000C94720098
:100020000C9472000C9472000C9472000C94720088
:100030000C9472000C9472000C9472000C94C8031F
:100040000C9472000C9472000C9472000C94720068
:100050000C9443070C9472000C9472000C94720080
:100060000C94BF000C9472000C9472000C947200FB
:100070000C9472000C9472000C947200084AD73BE6
:100080003BCE016E84BCBFFDC12F3D6C74319ABD67
:1000900056833DDA3D00C77F11BED9E4BB4C3E918B
:1000A0006BAAAABE000000803F0011241FBECFEF44
:1000B000D0E1DEBFCDBF12E0A0E0B1E0E6E6F8E2BD
:1000C00002C005900D92AC3DB107D9F713E0ACED3D
:1000D000B2E001C01D92A438B107E1F70E94DC0232
:1000E0000C9431140C9400009B0177FF04C022276C
:1000F0003327261B370B2F3F310519F014F09FEFE4
:1001000001C0922F813071F0813028F0823089F067
:10011000833001F517C077FF02C0299A01C02998E2
:1001200097BD089577FF02C02A9A01C02A9898BD0A
:1001300008951616170614F45C9A01C05C98909303
:10014000B30008951616170614F45D9A01C05D9861
:100150009093B400089590917C00906490937C00FB
:1001600097E890937A00882321F080917A00886440
:1001700003C080917A00877F80937A0008951F9250
:100180000F920FB60F9211242F933F934F935F93CB
:100190006F938F939F93AF93BF93EF93FF932091B0
:1001A0007800309179006091DC02E62FF0E0EE0FEC
:1001B000FF1FDF01A350BD4F8D919C91281B390B70
:1001C000DF01A352BD4F2D933C93E351FD4F40817E
:1001D0005181CA01A6E0880F991FAA95E1F7841BF7
:1001E000950B280F391F86E0369527958A95E1F7FC
:1001F000318320836F5F6093DC02683010F01092CF
:10020000DC028091DC02806480937C0080917A0023
:10021000806480937A00FF91EF91BF91AF919F919D
:100220008F916F915F914F913F912F910F900FBEE2
:100230000F901F901895EDEDF2E020E030E0808106
:1002400091812817390708F49C01329682E0ED3E2F
:10025000F807A9F7C901089580916203909163039B
:1002600020914D0330914E03821B930B8D58954086
:1002700034F1809162039091630320914D0330919A
:100280004E03821B930B06C080915F039091600325
:100290008C5895409093600380935F038091620334
:1002A0009091630320914D0330914E03821B930B79
:1002B0008D5895404CF71092100310920F038091C7
:1002C0005F03909160038D58954094F480910F03E3
:1002D00090911003843091055CF4289AE0E5F3ECEA
:1002E0003197F1F7289801969093100380930F03AC
:1002F000809162039091630390934E0380934D032A
:100300000895AF92BF92CF92DF92EF92FF920F9338
:100310001F93CF93DF93EB0120910D0330910E03D8
:10032000280F391F253B31051CF02856314006C0E7
:100330008FEF2C34380714F428593E4FB901882721
:1003400077FD8095982F0E947D127B018C0122E51C
:1003500039E44DE15CE30E945D1320E030E040E0D1
:1003600050E00E9418115B016C0120E030E04AEF80
:1003700053E40E94521318165CF40F2EF0E0AF2ED7
:10038000F0E0BF2EFAEFCF2EF3E4DF2EF02D14C0F5
:10039000C601B50120E030E04AEF53EC0E94DE11C7
:1003A000882354F40F2EF0E0AF2EF0E0BF2EFAEFCA
:1003B000CF2EF3ECDF2EF02DC801B70120E030E0A6
:1003C00040E05FE30E945D137B018C01C601B50133
:1003D00020E030E040E050E00E945D1323E333E38F
:1003E00043EF5FEB0E945D139B01AC01C801B701B5
:1003F0000E9418117B018C01BE01882777FD809532
:10040000982F0E947D122AE939E949E95EEB0E94A2
:100410005D139B01AC01C801B7010E9418117B015B
:100420008C0120E030E048EC52E40E945213181690
:100430005CF40F2EF0E0EF2EF0E0FF2EF8EC0F2F23
:10044000F2E41F2FF02D14C0C801B70120E030E006
:1004500048EC52EC0E94DE11882354F40F2EF0E099
:10046000EF2EF0E0FF2EF8EC0F2FF2EC1F2FF02D07
:10047000C801B7010E944A12CB01DF91CF911F91B1
:100480000F91FF90EF90DF90CF90BF90AF900895C5
:10049000CF92DF92EF92FF920F931F93CF93DF9350
:1004A0006B019A012C543F4F91E0283639071CF01C
:1004B0009A01245B3040E82FF0E0EE0FFF1FED566D
:1004C000FD4FCAE5D0E080819181C81BD90BC901DD
:1004D00068E671E00E94C313C80FD91F02C0C85953
:1004E000DE4FD7FDFCCF02C0C856D14081E0C936EF
:1004F000D807D4F7CA35D1055CF4CC0FDD1FCC0F7B
:10050000DD1FC95DDE4FE880F9800A811B8135C09F
:10051000C43BD1057CF4E4EBF0E0EC1BFD0BEE0FEB
:10052000FF1FEE0FFF1FE95DFE4FE080F1800281AB
:10053000138123C091E0CE30D9075CF4CC0FDD1FCE
:10054000CC0FDD1FC95AD14088819981AA81BB8116
:100550000EC0E8E6F1E0EC1BFD0BEE0FFF1FEE0F07
:10056000FF1FE95DFE4F80819181A281B3817C01F3
:100570008D0117FB109517F91095C60160E071E029
:100580000E94C313AA2797FDA095BA2FBC01CD01E5
:100590000E947D129B01AC01C801B7010E945D134E
:1005A0000E944A12CB01DF91CF911F910F91FF90D2
:1005B000EF90DF90CF900895A8952FE088E190E02C
:1005C0000FB6F894A895809360000FBE209360004A
:1005D0008FEF8AB95398529884B9429A439A459AB0
:1005E000469A479A5B9A5A9A0E940B1093EA94BDD6
:1005F00083E085BD9093B00084E08093B10081E0FA
:1006000080936F00809381000E94AB008EE090E0A9
:100610000E940B14909367038093660304B603FC57
:100620002F9A84B7877F84BF0E945D0D789420E065
:1006300030E040E85FEB2093680330936903409318
:100640006A0350936B0383E393E3A3E3BFE38093D5
:100650006C0390936D03A0936E03B0936F0380932C
:10066000700390937103A0937203B093730380E0BF
:1006700090E0A0E0B0E08093740390937503A093A2
:100680007603B093770380E090E0A0E8BFE3809327
:10069000780390937903A0937A03B0937B0320931C
:1006A0007C0330937D0340937E0350937F038091BE
:1006B00062039091630390934E0380934D033299AC
:1006C00004C02F9A2F980E942C01379B06C02E98A9
:1006D000EDEDF2E080E090E002C02E9AF9CF2081AB
:1006E00031818217930708F4C901329622E0ED3E6A
:1006F000F207A9F789559240D4F180911E03909199
:100700001F032091660330916703281B390B309338
:100710002103209320038091200390912103885F7F
:10072000984F3CF48091200390912103805F914F7A
:100730000DC080912003909121038950974054F07F
:10074000809120039091210380519E40909321033A
:100750008093200380912003909121036AE070E050
:100760000E94C31370932103609320030FC080E0A5
:1007700060E070E00E94740081E060E070E00E9440
:10078000740082E060E070E00E947400A89597CF4A
:100790001F920F920FB60F9211242F933F934F93F6
:1007A0005F936F937F938F939F93AF93BF93EF93D9
:1007B000FF9380916203909163030196909363038A
:1007C000809362038091A902813069F580EE0E94D6
:1007D0008B0F882351F080EE0E94E40F90931D034D
:1007E00080931C0380EE0E94970F82EE0E948B0F75
:1007F000882351F082EE0E94E40F909319038093B6
:10080000180382EE0E94970F86EE0E948B0F8823BA
:1008100051F086EE0E94E40F90931B0380931A031D
:1008200086EE0E94970F8091A902823091F40E9477
:10083000E00C0E94170C90931F0380931E0380917D
:100840006603909167030E94360C90932103809376
:1008500020038091A902833009F058C180911303CD
:10086000882331F40E94560E8AE08093130302C05D
:100870001092130381E090E061E070E040E051E00D
:100880000E94630E409118035091190381E090E09B
:100890006AE070E00E94F20E40911A0350911B032F
:1008A00081E090E06EE070E00E94F20E40911C0347
:1008B00050911D0381E090E062E170E00E94F20E31
:1008C00083E090E061E070E049E051E00E94630E57
:1008D00040911E0350911F0383E090E065E070E0BB
:1008E0000E94F20E409120035091210383E090E09A
:1008F0006AE070E00E94F20EEDEDF2E040E050E0C0
:10090000808191814817590708F4AC01329682E042
:10091000ED3EF807A9F783E090E06FE070E00E94F9
:10092000F20E8091140390911503843691050CF01A
:100930006DC084E090E061E070E04DE051E00E9425
:10094000630E4091DD025091DE0284E090E062E0AF
:1009500070E00E94F20E84E090E066E070E04FE00C
:1009600051E00E94630E4091DF025091E00284E06A
:1009700090E067E070E00E94F20E84E090E06BE0AF
:1009800070E041E151E00E94630E4091E10250911C
:10099000E20284E090E06CE070E00E94F20E84E0FD
:1009A00090E060E170E043E151E00E94630E40910D
:1009B000E3025091E40284E090E061E170E00E9483
:1009C000F20E82E090E061E070E045E151E00E94CB
:1009D000630E409141035091420382E090E066E053
:1009E00070E00E94F20E409143035091440382E074
:1009F00090E06AE070E00E94F20E40914503509151
:100A0000460382E090E06EE070E070C0883C9105A3
:100A10000CF078C084E090E061E070E04AE151E0E1
:100A20000E94630E4091E5025091E60284E090E05E
:100A300062E070E00E94F20E84E090E066E070E018
:100A40004CE151E00E94630E4091E7025091E802B0
:100A500084E090E067E070E00E94F20E84E090E0B5
:100A60006BE070E04EE151E00E94630E4091E902BC
:100A70005091EA0284E090E06CE070E00E94F20E97
:100A800084E090E060E170E040E251E00E94630E9B
:100A90004091EB025091EC0284E090E061E170E063
:100AA0000E94F20E82E090E061E070E042E251E0EC
:100AB0000E94630E409162035091630382E090E0D4
:100AC00067E070E00E94F20E40914D0350914E039A
:100AD00082E090E06CE070E00E94F20E40915F03D3
:100AE0005091600382E090E061E170E00E94F20EBC
:100AF00080911403909115030196909315038093B0
:100B0000140304C010921503109214038091A902DB
:100B1000863011F481E001C08F5F8093A902FF91BC
:100B2000EF91BF91AF919F918F917F916F915F9165
:100B30004F913F912F910F900FBE0F901F901895DE
:100B40002F923F924F925F926F927F928F929F92DD
:100B5000AF92BF92CF92DF92EF92FF920F931F93CB
:100B6000DF93CF9300D000D000D0CDB7DEB71A828C
:100B700019822224332444245524F201E352FD4FE8
:100B8000608171816536710508F4D2C080E090E023
:100B90000E947B126B837C838D839E83F201E756D8
:100BA000FD4F20813181F901E65AFF4F02C0E8591B
:100BB000FE4FF7FDFCCF02C0E856F14081E0E93678
:100BC000F807D4F7EA35F10544F0E43BF10584F485
:100BD00084EB90E08E1B9F0BFC01EE0FFF1FEE0FCE
:100BE000FF1FE95DFE4F608071808280938023C08B
:100BF00091E0EE30F9073CF4EE0FFF1FEE0FFF1F00
:100C0000E95AF1400BC088E691E08E1B9F0BFC0176
:100C1000EE0FFF1FEE0FFF1FE95DFE4F80819181F8
:100C2000A281B3813C014D0197FA909497F890947A
:100C300002C028593E4F37FDFCCF02C02856314034
:100C400091E029363907D4F72A35310544F4220FCB
:100C5000331F220F331F295D3E4FF9010DC0243B86
:100C600031057CF4E4EBF0E0E21BF30BEE0FFF1F29
:100C7000EE0FFF1FE95DFE4FA080B180C280D380E0
:100C800020C0F1E02E303F0744F4220F331F220F23
:100C9000331F295A3140F9010AC0E8E6F1E0E21BAE
:100CA000F30BEE0FFF1FEE0FFF1FE95DFE4F80817C
:100CB0009181A281B3815C016D01D7FAD094D7F8FC
:100CC000D09429813A81B901882777FD8095982FA2
:100CD0000E947D127B018C016B817C818D819E81C4
:100CE000A40193010E945D139B01AC01C801B701EF
:100CF0000E9418110E944A127A836983B1018827E1
:100D000077FD8095982F0E947D127B018C016B816D
:100D10007C818D819E81A60195010E945D139B01BE
:100D2000AC01C801B7010E9418110E944A121B01B0
:100D300082E090E0480E591E90E14916510409F0F6
:100D40001CCFB101882777FD8095982F0E947D12D6
:100D50007B018C01E981FA81BF01882777FD8095AD
:100D6000982F0E947D129B01AC01C801B7010E941F
:100D70008B1120E030E044E353E40E945D132BED3F
:100D80003FE049E450E40E94E2110E944A129B01B4
:100D900077FF02C028593E4FC90126960FB6F89436
:100DA000DEBF0FBECDBFCF91DF911F910F91FF909E
:100DB000EF90DF90CF90BF90AF909F908F907F90FB
:100DC0006F905F904F903F902F9008950E94A005E4
:100DD0009C01853B910514F028563140EDEDF2E081
:100DE00080E090E0408151818417950708F4CA01A2
:100DF000329642E0ED3EF407A9F78855924094F010
:100E0000C901875A9F4F833B910518F4220F331F66
:100E100009C037FD03C082E390E002C08EEC9FEF73
:100E2000280F391FC9010895CF92DF92EF92FF92E8
:100E30001F93CF93DF936A010E9481017C010E947E
:100E4000E606EC0110E0812FB601AE010E944802D7
:100E5000BC016E0D7F1D113019F4709561957F4FA7
:100E6000812F0E9474001F5F133069F7DF91CF91CB
:100E70001F91FF90EF90DF90CF90089590938303A0
:100E80008093820308951F920F920FB60F92112440
:100E90006F927F928F929F92AF92BF92CF92DF928A
:100EA000EF92FF920F931F932F933F934F935F9374
:100EB0006F937F938F939F93AF93BF93CF93DF9362
:100EC000EF93FF934091C600842F817080932C0391
:100ED000242F30E0C901827090709595879580939A
:100EE0002B03C9018470907095958795959587958A
:100EF00080932A03C90188709070E3E095958795E7
:100F0000EA95E1F780932903C9018071907074E03C
:100F1000959587957A95E1F780932803C9018072AA
:100F2000907065E0959587956A95E1F78093270322
:100F30002074307056E0359527955A95E1F7209347
:100F40002603441F4427441F409325034091BA02BF
:100F50005091BB026091BC027091BD02CAEAD2E01E
:100F6000A0E0B0E0FD01EB5DFC4F8081882321F122
:100F7000288139818091800390918103F901E81BD8
:100F8000F90B4E175F073CF4809180039091810329
:100F9000A901481B590B8091800390918103F901AD
:100FA000E81BF90BE617F7073CF48091800390915A
:100FB0008103B901681B790B11962296A830B105FF
:100FC00089F6FFEF4F3F5F07D9F480913C038823F8
:100FD00039F080913603882319F481E080933D0332
:100FE000809137038A3020F48F5F8093370354C099
:100FF00080913D03882309F04FC08FEF9FEF48C0D9
:1010000064177507A1F410923D0310923703CB01CA
:10101000845B904090932E0380932D0397FF3CC0F8
:101020006C547F4F70932E0360932D0335C0109244
:101030003D03109237039A01261B370B243B3105E1
:1010400034F488E691E0FC01E21BF30B9F01C90137
:1010500095958795F1E04F305F0754F06A3571053B
:101060003CF4481B590B50932E0340932D0306C0AC
:10107000840F951F90932E0380932D0380912D0351
:1010800090912E0321E08936920734F088569140E2
:1010900090932E0380932D038091C0029091C10202
:1010A0008F5F9F4F51F480912D0390912E03845BAD
:1010B00090409093C1028093C0028091C0029091B1
:1010C000C10297FF0AC08091C0029091C102885965
:1010D0009E4F9093C1028093C002C0912D03D09186
:1010E0002E038CE4682E8FEF782E6C0E7D1E70928E
:1010F000C3026092C2028091C2029091C30297FF24
:101100000AC08091C2029091C30288599E4F909369
:10111000C3028093C20280913D03882319F081E0CD
:1011200080933603FFEFCF3FDF07D9F410923603E9
:10113000D093C102C093C002D093C302C093C20235
:101140001092400388E19CEF9093C5028093C40203
:10115000D093BF02C093BE021092340310923303A7
:1011600009C380913D03882311F010923C03209124
:10117000BE023091BF028FEF2F3F380769F1809197
:101180003D03882349F5FE01E21BF30B9F01F7FFA6
:1011900003C0309521953F4F3093340320933303A0
:1011A000253B310544F088E691E0821B930B909338
:1011B0003403809333038091330390913403853655
:1011C000910534F081E080933C038093350304C0A3
:1011D00010923C031092350380913503882309F067
:1011E0009AC080913D03882309F095C08091C40284
:1011F0009091C50297FF41C0F1E0CF30DF07A4F026
:101200002091C0023091C102CE018E50914028172A
:1012100039070CF47AC08091C0029091C1028956BE
:1012200091400CF076C024C0CA35D105B4F42091A9
:10123000C0023091C102CE01825F9E4F8217930798
:101240000CF463C08091C0029091C10297FD61C00F
:101250002091C0023091C1023DC02091C002309166
:10126000C102CE01875A9F4F821793070CF451C0D9
:101270002091C0023091C10242C081E0CF30D80736
:1012800094F02091C4023091C502CE018E5091405D
:1012900028173907D4F18091C4029091C50289566C
:1012A0009140BCF528C0CA35D105DCF42091C402B8
:1012B0003091C502CE01825F9E4F821793072CF1B9
:1012C0008091C4029091C50297FD23C02091C40271
:1012D0003091C502CE01875A9F4F82179307CCF0F9
:1012E00014C02091C4023091C502CE01875A9F4F8D
:1012F0008217930774F02091C4023091C502CE0189
:10130000895590402817390724F081E080933C03E9
:1013100002C010923C0380913C03882329F0D093B3
:10132000C502C093C402E4C12091C0023091C10241
:101330008091C2029091C302281B390B37FF03C072
:10134000309521953F4F283231050CF4D1C1809161
:101350003C03882309F0CCC180913D03882309F028
:10136000C7C18091C0029091C1028F5F9F4F09F465
:10137000BFC12091C0023091C1028091C202909100
:10138000C302821793070CF0D1C08091C0029091E4
:10139000C1022091C2023091C302821B930B853B94
:1013A00091050CF466C080914003823009F461C05D
:1013B00081E0809340036091C2027091C30220914A
:1013C000C0023091C10268597E4F621B730B88279F
:1013D00077FD8095982F0E947D1220E030E040E05C
:1013E0005FE30E945D1320E030E048E452E40E9495
:1013F0005213181654F48091C0029091C102C29603
:101400009093C5028093C40234C06091C002709171
:10141000C102E090C202F090C3028090C00290909E
:10142000C102882777FD8095982F0E947D125B016D
:101430006C0188E691E0E80EF91EE818F90800272B
:10144000F7FC0095102FC801B7010E947D1220E023
:1014500030E040E05FE30E945D139B01AC01C601F8
:10146000B5010E9418110E944A127093C502609340
:10147000C4028091C0029091C1022091C2023091B9
:10148000C302821B930B843B91050CF031C1809108
:101490004003813009F42CC182E0809340036091C5
:1014A000C0027091C1022091C2023091C302621B3E
:1014B000730B882777FD8095982F0E947D1220E07E
:1014C00030E040E05FE30E945D1320E030E048E45C
:1014D00052E40E945213181634F48091C002909185
:1014E000C102C297D0C06091C0027091C102E09069
:1014F000C002F090C102C090C202D090C3028827FF
:1015000077FD8095982F0E947D124B015C01EC18AD
:10151000FD080027F7FC0095102FC801B7010E94B5
:101520007D1220E030E040E05FEBD4C08091C20249
:101530009091C3022091C0023091C102821B930B93
:10154000853B91050CF466C080914003813009F41D
:1015500061C082E0809340036091C0027091C1023B
:101560002091C2023091C30268597E4F621B730BF7
:10157000882777FD8095982F0E947D1220E030E02B
:1015800040E05FE30E945D1320E030E048E452E475
:101590000E945213181654F48091C0029091C10217
:1015A000C2979093C5028093C40234C06091C00278
:1015B0007091C102E090C002F090C1028090C2021E
:1015C0009090C302882777FD8095982F0E947D1206
:1015D0005B016C01E8E6F1E0EE0EFF1EE818F90889
:1015E0000027F7FC0095102FC801B7010E947D125B
:1015F00020E030E040E05FEB0E945D139B01AC0116
:10160000C601B5010E9418110E944A127093C502CA
:101610006093C4028091C2029091C3022091C002E3
:101620003091C102821B930B843B91050CF060C08A
:1016300080914003823009F45BC081E080934003D5
:101640006091C2027091C3022091C0023091C10228
:10165000621B730B882777FD8095982F0E947D125F
:1016600020E030E040E05FE30E945D1320E030E0E6
:1016700048E452E40E945213181654F48091C002B8
:101680009091C102C2969093C5028093C40230C06B
:101690006091C0027091C102E090C202F090C3025A
:1016A000C090C002D090C102882777FD8095982F06
:1016B0000E947D124B015C01EC18FD080027F7FC2D
:1016C0000095102FC801B7010E947D1220E030E084
:1016D00040E05FE30E945D139B01AC01C501B401D2
:1016E0000E9418110E944A127093C5026093C402AE
:1016F0008091C4029091C50288519C4F09F180915C
:10170000C4029091C5028956914054F08091C40260
:101710009091C502885691409093C5028093C4026F
:101720008091C4029091C50297FF0AC08091C402C3
:101730009091C50288599E4F9093C5028093C40230
:1017400080913C03882371F0CE018C549F4F90937D
:101750002E0380932D038956914024F070922E031E
:1017600060922D0380912D0390912E039093BF02E0
:101770008093BE0280912D0390912E039093CD0211
:101780008093CC028FEF9FEF9093BB028093BA02BD
:1017900088E691E09093BD028093BC02FF91EF91A7
:1017A000DF91CF91BF91AF919F918F917F916F9179
:1017B0005F914F913F912F911F910F91FF90EF906B
:1017C000DF90CF90BF90AF909F908F907F906F9061
:1017D0000F900FBE0F901F901895ACE2B3E01092DF
:1017E0002C0320912C03FD0122932081FD013297CF
:1017F00020832081FD01339720832081FD013497D0
:1018000020832081FD01359720832081FD013697BB
:101810002083208117972C939093C5008093C40058
:1018200080E98093C10086E08093C20008950F9301
:101830001F9380EC0E94111082E00E946A100E94A7
:10184000621081EC0E9411108823C9F70E947C105D
:10185000182F0E948610082F0E946210312F20E05E
:10186000200F311DC9011F910F9108950F931F93F0
:101870008C010E94170C9C01201B310B88EF283F24
:1018800038071CF4205F314F06C087E02830380746
:1018900014F020513E40C9011F910F9108951F93EC
:1018A00080EC0E94111081E00E946A100E94621078
:1018B00081EC0E9411108823C9F70E948610182F0E
:1018C0000E946210812F1F910895EF92FF920F9353
:1018D0001F9380ED0E941110882319F48BE30E945E
:1018E0006A1081ED0E945F10882309F062C00E9497
:1018F0007C10F82EEE24F0924803E09247030E94F9
:101900007C10E80EF11C0027F7FC0095102FC80191
:10191000B7010E947D1220E030E04AE75DE30E94BB
:101920005D130E944A1267517040709348036093A0
:1019300047030E947C10F82EEE24F0924A03E092B6
:1019400049030E947C10E80EF11C0027F7FC00956B
:10195000102FC801B7010E947D1220E030E04AE755
:101960005DE30E945D130E944A1270934A036093E4
:1019700049030E947C10F82EEE24F0924C03E09272
:101980004B030E948610E80EF11C0027F7FC00951F
:10199000102FC801B7010E947D1220E030E04AE715
:1019A0005DE30E945D130E944A1270934C036093A2
:1019B0004B030E9462101F910F91FF90EF900895CA
:1019C000EF92FF920F931F9380ED0E9411108823D6
:1019D00019F483E40E946A1081ED0E945F1088234D
:1019E00009F064C00E947C10F82EEE24F0924203AD
:1019F000E09241030E947C10E80EF11C0027F7FCE6
:101A00000095102FC801B7010E947D1220E030E040
:101A10004AE75DE30E945D130E944A126B517040D9
:101A200070934203609341030E947C10F82EEE24D1
:101A3000F0924403E09243030E947C10E80EF11CF4
:101A40000027F7FC0095102FC801B7010E947D12F6
:101A500020E030E04AE75DE30E945D130E944A12F5
:101A60006150704070934403609343030E947C1064
:101A7000F82EEE24F0924603E09245030E94861071
:101A8000E80EF11C0027F7FC0095102FC801B701E4
:101A90000E947D1220E030E04AE75DE30E945D1382
:101AA0000E944A1270934603609345030E9462109D
:101AB0001F910F91FF90EF90089580ED0E941110FB
:101AC0008BE60E946A1080E80E946A100E946210F1
:101AD00088EC90E024EF31E0F9013197F1F70197BC
:101AE000D9F780ED0E9411108BE60E946A1080E009
:101AF0000E946A100E94621080ED0E9411108AE11B
:101B00000E946A1086E00E946A1088E10E946A10B2
:101B100080E00E946A100E94621080ED0E94111005
:101B20008CE10E946A1080E10E946A100E9462109B
:101B300008950F931F9386EC0E941110882319F0CB
:101B40002FEF3FEF13C081E00E946A1087EC0E94E4
:101B500011100E947C10082F0E948610182F0E94DE
:101B60006210912F80E09C01200F311DC9011F914F
:101B70000F9108950F931F93CF93DF93182F092F81
:101B800086EC0E941110882371F40E946A10812F44
:101B9000902F9C01E90102C00E946A10899188235C
:101BA000D9F70E946210DF91CF911F910F91089594
:101BB000FF920F931F93CF93DF93F82E8B0186EC48
:101BC0000E9411108823B1F40E946A108BE10E94D8
:101BD0006A108F2D0E946A10C0E0D0E0F801EC0F6F
:101BE000FD1F80810E946A102196C830D105B1F78F
:101BF0000E946210DF91CF911F910F91FF90089585
:101C00001F93182F86EC0E94111080E00E946A102A
:101C1000812F0E946A100E9462101F910895CF9335
:101C2000DF93EC0186EC0E941110882359F40E9486
:101C30006A10CD2B11F083E101C084E10E946A108B
:101C40000E946210DF91CF9108951F93182F86ECA8
:101C50000E941110882379F40E946A10112311F454
:101C600084E005C0123011F485E001C086E00E94D6
:101C70006A100E9462101F9108950F931F93182FEE
:101C8000062F86EC0E941110882369F40E946A10C6
:101C900083E00E946A10812F0E946A10802F0E94A8
:101CA0006A100E9462101F910F91089586EC0E94A5
:101CB0001110882339F40E946A108CE00E946A1087
:101CC0000E9462100895EF92FF920F931F93CF939B
:101CD000DF93182F062FF42EE52E86EC0E941110AC
:101CE0008823B9F40E946A1083E00E946A10812F51
:101CF0000E946A10802F0E946A108F2D9E2D9C01D9
:101D0000E90102C00E946A1089918823D9F70E94D4
:101D10006210DF91CF911F910F91FF90EF90089586
:101D20000F931F93CF93DF9381E090E061E070E029
:101D30004EEC52E00E94630E82E090E061E070E0C1
:101D40000E943D0EC0E0D0E001E010E00E94990D3D
:101D500098010C2E02C0220F331F0A94E2F72823A9
:101D600039230C2E02C0369527950A94E2F7822F6C
:101D7000805D0E94000E2196C031D10539F7DF91B8
:101D8000CF911F910F910895CF92DF92EF92FF9222
:101D90000F931F93DF93CF93CDB7DEB764970FB642
:101DA000F894DEBF0FBECDBF7C016B01CA018E016E
:101DB0000F5F1F4FB801A9010E94EA13C701B601C6
:101DC000A8010E94630E64960FB6F894DEBF0FBEA2
:101DD000CDBFCF91DF911F910F91FF90EF90DF90DA
:101DE000CF900895CF92DF92EF92FF920F931F93BF
:101DF000DF93CF9300D000D000D0CDB7DEB77C0109
:101E00006B01CA018E010F5F1F4FB8014AE050E01D
:101E10000E94EA13C701B601A8010E94630E26962C
:101E20000FB6F894DEBF0FBECDBFCF91DF911F91EB
:101E30000F91FF90EF90DF90CF9008950F931F9335
:101E4000182F062F0E94111080E00E946A1080EA6D
:101E50000E946A100E94621084EF91E024EF31E04A
:101E6000F9013197F1F70197D9F7812F0E941110ED
:101E700080E00E946A108AEA0E946A100E94621042
:101E800084EF91E024EF31E0F9013197F1F7019708
:101E9000D9F7812F0E94111080E00E946A1085EA14
:101EA0000E946A100E94621084EF91E024EF31E0FA
:101EB000F9013197F1F70197D9F7812F0E9411109D
:101EC00080E00E946A10802F0E946A100E946210B7
:101ED0001F910F9108951F93182F0E9411108823AE
:101EE000B9F481E00E946A1087E10E946A100E94A2
:101EF0006210812F0E941110882351F482E00E9409
:101F00006A1080E30E946A100E94621081E001C0A2
:101F100080E01F9108950E941110882321F40E94EF
:101F2000621081E008950E94621080E008951F937E
:101F3000182F0E941110882311F080E015C081E055
:101F40000E946A1080E00E946A1080E30E946A107A
:101F5000812F0E945F1080E00E946A1081E50E943C
:101F60006A100E94621081E01F910895FF920F9302
:101F70001F93082F0E94970F802F0E948B0F88239A
:101F8000D9F702C00E946210802F0E94111088238E
:101F9000C9F782E00E946A100E9462100F5F802FD2
:101FA0000E945F108823D9F70E947C10182F00E050
:101FB0000E948610F82E0E9462100F0D111DC8019C
:101FC0001F910F91FF900895FF920F931F93082F79
:101FD00002C00E946210802F0E9411108823C9F74E
:101FE00082E00E946A100E9462100F5F802F0E94A0
:101FF0005F108823D9F70E947C10182F00E00E9400
:102000008610F82E0E9462100F0D111DC8011F913D
:102010000F91FF9008951092B9008CE58093B8005D
:102020000895982F84EA8093BC008091BC0087FFBC
:10203000FCCF8091B900887F883021F0803111F089
:1020400081E008959093BB0084E88093BC00809168
:10205000BC0087FFFCCF9091B900987F983111F4B4
:1020600080E0089580E0903409F081E00895982F91
:1020700044EA34E824E94093BC008091BC0087FF27
:10208000FCCF8091B900887F883011F0803199F7BA
:102090009093BB003093BC008091BC0087FFFCCFC5
:1020A0008091B900887F803211F0883539F420930F
:1020B000BC008091BC0084FDFCCFDDCF08950E9460
:1020C0001110089584E98093BC008091BC0084FDC8
:1020D000FCCF08958093BB0084E88093BC0080917E
:1020E000BC0087FFFCCF8091B90090E0887F8832E8
:1020F00009F091E0892F089584EC8093BC008091D1
:10210000BC0087FFFCCF8091BB00089584E88093DA
:10211000BC008091BC0087FFFCCF8091BB0008957C
:1021200080E50E9411108FE30E946A1080E20E94F5
:102130006A100E94621008951F93182F80E50E9474
:102140001110882319F4812F0E946A1081E50E94E2
:102150005F10882311F01FEF03C00E948610182F14
:102160000E946210812F1F9108958DE30E949C10A0
:102170008C30B1F080E50E9411108DE30E946A104E
:102180008CE00E946A100E94621080E50E9411108B
:102190008FE30E946A1081E00E946A100E94621020
:1021A00008951F93CF93DF93182F80E50E9411109D
:1021B000882319F4812F0E946A1081E50E945F1024
:1021C000882319F0CFEFDFEF0AC00E947C10C82FE0
:1021D000D0E00E948610382F20E0C20FD31F0E944B
:1021E0006210CE01DF91CF911F9108950E94D1100E
:1021F0006AE070E00E94C313CB0108950E94D110E1
:10220000AA2797FDA095BA2FBC01CD010E947D128F
:1022100020E030E048EC52E40E94E21108950E9470
:10222000D11060E170E00E94C313CB0108955058B3
:10223000BB27AA270ED0FCC1EDD130F0F2D120F09F
:1022400031F49F3F11F41EF4BDC10EF4E095E7FB9D
:10225000B3C1E92FFED180F3BA1762077307840771
:10226000950718F071F49EF516C20EF4E0950B2E4A
:10227000BA2FA02D0B01B90190010C01CA01A001D8
:102280001124FF27591B99F0593F50F4503E68F133
:102290001A16F040A22F232F342F4427585FF3CF74
:1022A000469537952795A795F0405395C9F77EF445
:1022B0001F16BA0B620B730B840BBAF09150A1F08E
:1022C000FF0FBB1F661F771F881FC2F70EC0BA0F14
:1022D000621F731F841F48F4879577956795B7959C
:1022E000F7959E3F08F0B3CF9395880F08F0992794
:1022F000EE0F9795879508958DD158F080E891E07D
:1023000009F49EEF8ED128F040E851E059F45EEFD9
:1023100009C058C1C0C1E92FE0789BD168F3092EEC
:10232000052AC1F3261737074807590738F00E2E3C
:1023300007F8E02569F0E025E0640AC0EF6307F8DC
:10234000009407FADB01B9019D01DC01CA01AD016E
:10235000EF9347D06DD10AD05F91552331F02BED2B
:102360003FE049E450FD49EC63CF0895DF93DD275A
:10237000B92FBF7740E85FE31616170648075B07DB
:1023800010F4D92F93D19F938F937F936F93F8D1AC
:10239000ECE7F0E01AD14CD12F913F914F915F9132
:1023A00098D1DD2349F09058A2EA2AED3FE049ECAC
:1023B0005FE3D0785D274DDFDF913AC1D9D008F4D3
:1023C00081E008950CD034C12CD140F023D130F0FD
:1023D00021F45F3F19F0F0C051115EC1F3C039D153
:1023E00098F39923C9F35523B1F3951B550BBB27DC
:1023F000AA2762177307840738F09F5F5F4F220F89
:10240000331F441FAA1FA9F333D00E2E3AF0E0E881
:1024100030D091505040E695001CCAF729D0FE2FCD
:1024200027D0660F771F881FBB1F2617370748075F
:10243000AB07B0E809F0BB0B802DBF01FF27935815
:102440005F4F2AF09E3F510568F0B6C025C15F3F3F
:10245000ECF3983EDCF3869577956795B795F795FD
:102460009F5FC9F7880F911D9695879597F90895F5
:10247000E1E0660F771F881FBB1F62177307840791
:10248000BA0720F0621B730B840BBA0BEE1F88F7A0
:10249000E095089504D06894B111FEC00895E1D08C
:1024A00088F09F5790F0B92F9927B751A0F0D1F03D
:1024B000660F771F881F991F1AF0BA95C9F712C0C7
:1024C000B13081F0E8D0B1E00895E5C0672F782FF2
:1024D0008827B85F39F0B93FCCF386957795679533
:1024E000B395D9F73EF490958095709561957F4F9F
:1024F0008F4F9F4F0895E89409C097FB3EF4909545
:102500008095709561957F4F8F4F9F4F9923A9F0CC
:10251000F92F96E9BB279395F6958795779567955B
:10252000B795F111F8CFFAF4BB0F11F460FF1BC09F
:102530006F5F7F4F8F4F9F4F16C0882311F096E932
:1025400011C0772321F09EE8872F762F05C06623E0
:1025500071F096E8862F70E060E02AF09A95660F99
:10256000771F881FDAF7880F9695879597F9089552
:10257000990F0008550FAA0BE0E8FEEF1616170694
:10258000E807F907C0F012161306E407F50798F0FC
:10259000621B730B840B950B39F40A2661F0232B15
:1025A000242B252B21F408950A2609F4A140A69591
:1025B0008FEF811D811D089597F99F6780E870E076
:1025C00060E008959FEF80EC0895DF93CF931F9311
:1025D0000F93FF92EF92DF927B018C01689405C00C
:1025E000DA2EEF0176D0FE01E894A5912591359180
:1025F00045915591AEF3EF012CDEFE019701A80144
:10260000DA9479F7DF90EF90FF900F911F91CF91BF
:10261000DF91089500240A94161617061806090675
:10262000089500240A941216130614060506089548
:10263000092E0394000C11F4882352F0BB0F40F4D0
:10264000BF2B11F460FF04C06F5F7F4F8F4F9F4F10
:10265000089557FD9058440F551F59F05F3F71F092
:102660004795880F97FB991F61F09F3F79F08795F9
:102670000895121613061406551FF2CF4695F1DF82
:1026800008C0161617061806991FF1CF8695710512
:10269000610508940895E894BB2766277727CB0146
:1026A00097F9089565DF08F48FEF08959B01AC0159
:1026B00060E070E080E89FE385CE0BD0B9CFAADF61
:1026C00028F0AFDF18F0952309F076CF7BCF1124E7
:1026D000E3CFBFDFA0F3959FD1F3950F50E0551FD7
:1026E000629FF001729FBB27F00DB11D639FAA2767
:1026F000F00DB11DAA1F649F6627B00DA11D661FB6
:10270000829F2227B00DA11D621F739FB00DA11DD6
:10271000621F839FA00D611D221F749F3327A00D90
:10272000611D231F849F600D211D822F762F6A2F2C
:1027300011249F5750408AF0E1F088234AF0EE0FB1
:10274000FF1FBB1F661F771F881F91505040A9F7BE
:102750009E3F510570F030CF9FCF5F3FECF3983E26
:10276000DCF3869577956795B795F795E7959F5F25
:10277000C1F7FE2B880F911D9695879597F90895BF
:102780009B01AC019ACF97FB092E07260AD077FD53
:1027900004D00CD006D000201AF4709561957F4FBC
:1027A0000895F6F7909581959F4F0895AA1BBB1B3E
:1027B00051E107C0AA1FBB1FA617B70710F0A61B41
:1027C000B70B881F991F5A95A9F780959095BC0162
:1027D000CD010895FB019F01E8944230C4F04532D9
:1027E000B4F44A3029F497FB1EF4909581959F4FDD
:1027F000642F77270E94D613805D8A330CF0895DA1
:102800008193CB010097A1F716F45DE251931082FA
:10281000C9010C941114A8E1B0E042E050E00C941E
:102820002314DC01FC01672F71917723E1F73297C4
:1028300004C07C916D9370836291AE17BF07C8F39B
:102840000895DC01CB01FC01F999FECF06C0F2BD71
:10285000E1BDF89A319600B40D9241505040B8F75E
:062860000895F894FFCF7B
:1028660055537C6C2F722F6100434D50004100423E
:1028760000430044004759524F00450046004700B8
:1028860048005A65697400000000005BF88E3CC77A
:10289600F20E3D3B5E563D7BDC8E3DB57EB23D0481
:1028A60013D63DA296F93D65830E3E5C30203ED49C
:1028B600D0313E6F63433ECDE6543E9159663E604D
:1028C600BA773EEE83843E57208D3EBEB1953E7A62
:1028D600379E3EDEB0A63E441DAF3E017CB73E6F3E
:1028E600CCBF3EE90DC83EC93FD03E6C61D83E2FF5
:1028F60072E03E7171E83E945EF03EF738F83E00B5
:1029060000003F89D9033FCAA8073F776D0B3F44B4
:10291600270F3FE8D5123F1879163F8D101A3FFE54
:102926009B1D3F241B213FBB8D243F7CF3273F2566
:102936004C2B3F72972E3F22D5313FF304353FA7EC
:1029460026383FFF393B3FBD3E3E3FA634413F7DE3
:102956001B443F0AF3463F13BB493F60734C3FBDE0
:102966001B4F3FF3B3513FCE3B543F1DB3563FAED3
:1029760019593F516F5B3FD7B35D3F14E75F3FDAAD
:1029860008623F0119643F5E17663FCA03683F1E2F
:10299600DE693F35A66B3FEC5B6D3F21FF6E3FB2B4
:1029A6008F703F810D723F7178733F64D0743F3FE3
:1029B60015763FEA46773F4D65783F5170793FE29D
:1029C600677A3FEB4B7B3F5C1C7C3F25D97C3F35D0
:1029D600827D3F81177E3FFD987E3F9E067F3F5C4E
:1029E600607F3F2FA67F3F14D87F3F05F67F3F00CD
:1029F60000803F4A015A00D2001700440071009E31
:102A060000CB00F8002501520101170044007100B7
:102A16009E00CB00F80025015201FFFF6901FFFF70
:102A2600FFFFFFFFFFFFFFFFFFFFFFFFFFFF31324B
:0C2A3600333435363738392A302300009D
:00000001FF
