:100000000C943E000C945B000C945B000C945B0021
:100010000C945B000C945B000C945B000C945B00F4
:100020000C945B000C945B000C945B000C945B00E4
:100030000C945B000C945B000C945B000C9404012A
:100040000C945B000C945B000C945B000C945B00C4
:100050000C9497010C945B000C945B000C945B0077
:100060000C94A8000C945B000C945B000C945B0057
:100070000C945B000C945B000C945B0011241FBE7D
:10008000CFEFD0E1DEBFCDBF12E0A0E0B1E0E2EF04
:10009000FBE102C005900D92AE39B107D9F712E02D
:1000A000AEE9B2E001C01D92AD3FB107E1F70E9499
:1000B0000E010C94F70D0C9400009B0177FF04C017
:1000C00022273327261B370B2F3F310519F014F059
:1000D0009FEF01C0922F813071F0813028F0823083
:1000E00089F0833001F517C077FF02C0299A01C05B
:1000F000299897BD089577FF02C02A9A01C02A98CF
:1001000098BD08951616170614F45C9A01C05C9801
:100110009093B30008951616170614F45D9A01C063
:100120005D989093B400089590917C0090649093B2
:100130007C0097E890937A00882321F080917A00E0
:10014000886403C080917A00877F80937A00089545
:100150001F920F920FB60F9211242F933F934F933C
:100160005F936F938F939F93AF93BF93EF93FF939F
:10017000209178003091790060919E02E62FF0E0A6
:10018000EE0FFF1FDF01A154BD4F8D919C91281BE5
:10019000390BDF01A156BD4F2D933C93E155FD4F27
:1001A00040815181CA01A6E0880F991FAA95E1F705
:1001B000841B950B280F391F86E0369527958A9565
:1001C000E1F7318320836F5F60939E02683010F007
:1001D00010929E0280919E02806480937C008091A8
:1001E0007A00806480937A00FF91EF91BF91AF9184
:1001F0009F918F916F915F914F913F912F910F90B0
:100200000FBE0F901F9018951F920F920FB60F926E
:1002100011240F900FBE0F901F901895EF92FF9230
:100220001F93CF93DF93A8952FE088E190E00FB65E
:10023000F894A895809360000FBE209360008FEF24
:100240008AB95398529884B9429A439A459A469AE1
:10025000479A5B9A5A9A0E947C0A93EA94BD83E07B
:1002600085BD9093B00084E08093B10081E08093DD
:100270006F00809381000E94940004B603FC2F9AC3
:1002800084B7877F84BF789411E0C0E0D0E084EF2A
:10029000E82E81E0F82E112359F02E9A88EC90E098
:1002A000F7013197F1F70197D9F7219610E009C0CE
:1002B0002E9888EC90E0F7013197F1F70197D9F784
:1002C00011E0C431D10561F486EE60EE0E9472093E
:1002D00084EF91E0F7013197F1F70197D9F720C04A
:1002E000C831D105E9F424EF31E0112361F02E9AF1
:1002F0002F9A2D9A80E197E2F9013197F1F7019752
:10030000D9F710E00BC02E982F982D9880E197E236
:10031000F9013197F1F70197D9F711E0A895E5CFE9
:10032000A895B9CF9093FC028093FB0208951F9289
:100330000F920FB60F9211246F927F928F929F921D
:10034000AF92BF92CF92DF92EF92FF920F931F93E3
:100350002F933F934F935F936F937F938F939F93CD
:10036000AF93BF93CF93DF93EF93FF934091C6007A
:10037000842F81708093D802242F30E0C9018270CD
:100380009070959587958093D702C901847090707D
:1003900095958795959587958093D602C901887024
:1003A0009070E3E095958795EA95E1F78093D50203
:1003B000C9018071907074E0959587957A95E1F701
:1003C0008093D402C9018072907065E095958795FD
:1003D0006A95E1F78093D3022074307056E035952A
:1003E00027955A95E1F72093D202441F4427441FD2
:1003F0004093D10240917C0250917D0260917E0237
:1004000070917F02CCE6D2E0A0E0B0E0FD01EF52B7
:10041000FD4F8081882321F1288139818091F90263
:100420009091FA02F901E81BF90B4E175F073CF4B3
:100430008091F9029091FA02A901481B590B809111
:10044000F9029091FA02F901E81BF90BE617F70798
:100450003CF48091F9029091FA02B901681B790B82
:1004600011962296A830B10589F6FFEF4F3F5F073E
:10047000D9F48091E802882339F08091E202882340
:1004800019F481E08093E9028091E3028A3020F43C
:100490008F5F8093E30254C08091E902882309F0C2
:1004A0004FC08FEF9FEF48C064177507A1F41092FB
:1004B000E9021092E302CB01845B90409093DA0250
:1004C0008093D90297FF3CC06C547F4F7093DA023F
:1004D0006093D90235C01092E9021092E3029A01AA
:1004E000261B370B243B310534F488E691E0FC01F0
:1004F000E21BF30B9F01C90195958795F1E04F3001
:100500005F0754F06A3571053CF4481B590B509352
:10051000DA024093D90206C0840F951F9093DA0245
:100520008093D9028091D9029091DA0221E0893634
:10053000920734F0885691409093DA028093D90262
:1005400080918202909183028F5F9F4F51F480913E
:10055000D9029091DA02845B904090938302809359
:100560008202809182029091830297FF0AC080915B
:1005700082029091830288599E4F909383028093C8
:100580008202C091D902D091DA028CE4682E8FEFFA
:10059000782E6C0E7D1E709285026092840280918E
:1005A00084029091850297FF0AC080918402909105
:1005B000850288599E4F9093850280938402809192
:1005C000E902882319F081E08093E202FFEFCF3F38
:1005D000DF07D9F41092E202D0938302C093820223
:1005E000D0938502C09384021092EC0288E19CEFC4
:1005F0009093870280938602D0938102C0938002F9
:100600001092E0021092DF0209C38091E902882370
:1006100011F01092E80220918002309181028FEF58
:100620002F3F380769F18091E902882349F5FE01DF
:10063000E21BF30B9F01F7FF03C0309521953F4F5D
:100640003093E0022093DF02253B310544F088E639
:1006500091E0821B930B9093E0028093DF028091E4
:10066000DF029091E0028536910534F081E08093BD
:10067000E8028093E10204C01092E8021092E102C5
:100680008091E102882309F09AC08091E9028823D1
:1006900009F095C0809186029091870297FF41C032
:1006A000F1E0CF30DF07A4F0209182023091830285
:1006B000CE018E509140281739070CF47AC08091F2
:1006C000820290918302895691400CF076C024C03A
:1006D000CA35D105B4F42091820230918302CE0153
:1006E000825F9E4F821793070CF463C08091820251
:1006F0009091830297FD61C0209182023091830224
:100700003DC02091820230918302CE01875A9F4FD3
:10071000821793070CF451C020918202309183021A
:1007200042C081E0CF30D80794F02091860230910A
:100730008702CE018E50914028173907D4F180915D
:1007400086029091870289569140BCF528C0CA352F
:10075000D105DCF42091860230918702CE01825FC0
:100760009E4F821793072CF1809186029091870209
:1007700097FD23C02091860230918702CE01875ACF
:100780009F4F82179307CCF014C0209186023091BE
:100790008702CE01875A9F4F8217930774F02091EA
:1007A000860230918702CE0189559040281739077B
:1007B00024F081E08093E80202C01092E802809168
:1007C000E802882329F0D0938702C0938602E4C10F
:1007D000209182023091830280918402909185025F
:1007E000281B390B37FF03C0309521953F4F283226
:1007F00031050CF4D1C18091E802882309F0CCC105
:100800008091E902882309F0C7C18091820290910A
:1008100083028F5F9F4F09F4BFC120918202309104
:1008200083028091840290918502821793070CF0D5
:10083000D1C08091820290918302209184023091F4
:100840008502821B930B853B91050CF466C0809159
:10085000EC02823009F461C081E08093EC02609187
:10086000840270918502209182023091830268593E
:100870007E4F621B730B882777FD8095982F0E940F
:10088000880C20E030E040E05FE30E94180D20E09B
:1008900030E048E452E40E94140D181654F480919C
:1008A000820290918302C29690938702809386027F
:1008B00034C06091820270918302E0908402F090D3
:1008C00085028090820290908302882777FD809530
:1008D000982F0E94880C5B016C0188E691E0E80E7D
:1008E000F91EE818F9080027F7FC0095102FC80139
:1008F000B7010E94880C20E030E040E05FE30E94F6
:10090000180D9B01AC01C601B5010E94890B0E9424
:10091000550C7093870260938602809182029091B9
:1009200083022091840230918502821B930B843BC9
:1009300091050CF031C18091EC02813009F42CC199
:1009400082E08093EC026091820270918302209198
:10095000840230918502621B730B882777FD809596
:10096000982F0E94880C20E030E040E05FE30E9476
:10097000180D20E030E048E452E40E94140D1816EF
:1009800034F48091820290918302C297D0C060912A
:10099000820270918302E0908202F0908302C09004
:1009A0008402D0908502882777FD8095982F0E9439
:1009B000880C4B015C01EC18FD080027F7FC009542
:1009C000102FC801B7010E94880C20E030E040E001
:1009D0005FEBD4C0809184029091850220918202C5
:1009E00030918302821B930B853B91050CF466C00A
:1009F0008091EC02813009F461C082E08093EC02C6
:100A0000609182027091830220918402309185026C
:100A100068597E4F621B730B882777FD8095982F4E
:100A20000E94880C20E030E040E05FE30E94180D57
:100A300020E030E048E452E40E94140D181654F40B
:100A40008091820290918302C29790938702809353
:100A5000860234C06091820270918302E09082022B
:100A6000F09083028090840290908502882777FD21
:100A70008095982F0E94880C5B016C01E8E6F1E0FC
:100A8000EE0EFF1EE818F9080027F7FC0095102F5E
:100A9000C801B7010E94880C20E030E040E05FEB25
:100AA0000E94180D9B01AC01C601B5010E94890B83
:100AB0000E94550C70938702609386028091840295
:100AC000909185022091820230918302821B930BC8
:100AD000843B91050CF060C08091EC02823009F4F7
:100AE0005BC081E08093EC0260918402709185028A
:100AF0002091820230918302621B730B882777FD5D
:100B00008095982F0E94880C20E030E040E05FE361
:100B10000E94180D20E030E048E452E40E94140DD9
:100B2000181654F48091820290918302C296909399
:100B300087028093860230C06091820270918302A6
:100B4000E0908402F0908502C0908202D0908302EF
:100B5000882777FD8095982F0E94880C4B015C01B7
:100B6000EC18FD080027F7FC0095102FC801B7010D
:100B70000E94880C20E030E040E05FE30E94180D06
:100B80009B01AC01C501B4010E94890B0E94550C68
:100B9000709387026093860280918602909187020B
:100BA00088519C4F09F18091860290918702895665
:100BB000914054F08091860290918702885691402E
:100BC000909387028093860280918602909187029B
:100BD00097FF0AC0809186029091870288599E4FA4
:100BE00090938702809386028091E802882371F0B7
:100BF000CE018C549F4F9093DA028093D90289568C
:100C0000914024F07092DA026092D9028091D90268
:100C10009091DA0290938102809380028091D902B0
:100C20009091DA0290938F0280938E028FEF9FEF64
:100C300090937D0280937C0288E691E090937F02FE
:100C400080937E02FF91EF91DF91CF91BF91AF91A1
:100C50009F918F917F916F915F914F913F912F91D4
:100C60001F910F91FF90EF90DF90CF90BF90AF90CA
:100C70009F908F907F906F900F900FBE0F901F905E
:100C80001895A8EDB2E01092D8022091D802FD018B
:100C900022932081FD01329720832081FD0133972B
:100CA00020832081FD01349720832081FD01359729
:100CB00020832081FD0136972083208117972C9374
:100CC0009093C5008093C40080E98093C10086E0C2
:100CD0008093C20008950F931F9380EC0E94820AB4
:100CE00082E00E94DB0A0E94D30A81EC0E94820A01
:100CF0008823C9F70E94ED0A182F0E94F70A082FCF
:100D00000E94D30A312F20E0200F311DC9011F910D
:100D10000F9108950F931F938C010E946B069C0105
:100D2000201B310B88EF283F38071CF4205F314F20
:100D300006C087E02830380714F020513E40C90132
:100D40001F910F9108951F9380EC0E94820A81E009
:100D50000E94DB0A0E94D30A81EC0E94820A882347
:100D6000C9F70E94F70A182F0E94D30A812F1F91FA
:100D70000895EF92FF920F931F9380ED0E94820AD5
:100D8000882319F48BE30E94DB0A81ED0E94D00ACC
:100D9000882309F062C00E94ED0AF82EEE24F0923A
:100DA000F402E092F3020E94ED0AE80EF11C002723
:100DB000F7FC0095102FC801B7010E94880C20E0B5
:100DC00030E04AE75DE30E94180D0E94550C675120
:100DD00070407093F4026093F3020E94ED0AF82EC3
:100DE000EE24F092F602E092F5020E94ED0AE80E7F
:100DF000F11C0027F7FC0095102FC801B7010E94D5
:100E0000880C20E030E04AE75DE30E94180D0E9464
:100E1000550C7093F6026093F5020E94ED0AF82ECD
:100E2000EE24F092F802E092F7020E94F70AE80E30
:100E3000F11C0027F7FC0095102FC801B7010E9494
:100E4000880C20E030E04AE75DE30E94180D0E9424
:100E5000550C7093F8026093F7020E94D30A1F9119
:100E60000F91FF90EF900895EF92FF920F931F93D1
:100E700080ED0E94820A882319F483E40E94DB0A31
:100E800081ED0E94D00A882309F064C00E94ED0A17
:100E9000F82EEE24F092EE02E092ED020E94ED0AAE
:100EA000E80EF11C0027F7FC0095102FC801B701D0
:100EB0000E94880C20E030E04AE75DE30E94180DB4
:100EC0000E94550C6B5170407093EE026093ED02DE
:100ED0000E94ED0AF82EEE24F092F002E092EF026A
:100EE0000E94ED0AE80EF11C0027F7FC0095102F78
:100EF000C801B7010E94880C20E030E04AE75DE3BA
:100F00000E94180D0E94550C615070407093F002C1
:100F10006093EF020E94ED0AF82EEE24F092F202A6
:100F2000E092F1020E94F70AE80EF11C0027F7FC9C
:100F30000095102FC801B7010E94880C20E030E016
:100F40004AE75DE30E94180D0E94550C7093F2026F
:100F50006093F1020E94D30A1F910F91FF90EF90CE
:100F6000089580ED0E94820A8BE60E94DB0A80E8E9
:100F70000E94DB0A0E94D30A88EC90E024EF31E063
:100F8000F9013197F1F70197D9F780ED0E94820AB4
:100F90008BE60E94DB0A80E00E94DB0A0E94D30AF3
:100FA00080ED0E94820A8AE10E94DB0A86E00E94AC
:100FB000DB0A88E10E94DB0A80E00E94DB0A0E94D3
:100FC000D30A80ED0E94820A8CE10E94DB0A80E154
:100FD0000E94DB0A0E94D30A08950F931F9386ECA8
:100FE0000E94820A882319F02FEF3FEF13C081E09F
:100FF0000E94DB0A87EC0E94820A0E94ED0A082FF9
:101000000E94F70A182F0E94D30A912F80E09C01BA
:10101000200F311DC9011F910F9108950F931F9348
:10102000CF93DF93182F092F86EC0E94820A882322
:1010300071F40E94DB0A812F902F9C01E90102C00C
:101040000E94DB0A89918823D9F70E94D30ADF9195
:10105000CF911F910F910895FF920F931F93CF93FC
:10106000DF93F82E8B0186EC0E94820A8823B1F46C
:101070000E94DB0A8BE10E94DB0A8F2D0E94DB0AB3
:10108000C0E0D0E0F801EC0FFD1F80810E94DB0A78
:101090002196C830D105B1F70E94D30ADF91CF91D4
:1010A0001F910F91FF9008951F93182F86EC0E94B7
:1010B000820A80E00E94DB0A812F0E94DB0A0E94E4
:1010C000D30A1F910895CF93DF93EC0186EC0E9421
:1010D000820A882359F40E94DB0ACD2B11F083E1A8
:1010E00001C084E10E94DB0A0E94D30ADF91CF9104
:1010F00008951F93182F86EC0E94820A882379F4A2
:101100000E94DB0A112311F484E005C0123011F4AF
:1011100085E001C086E00E94DB0A0E94D30A1F918D
:1011200008950F931F93182F062F86EC0E94820AB2
:10113000882369F40E94DB0A83E00E94DB0A812F86
:101140000E94DB0A802F0E94DB0A0E94D30A1F91B3
:101150000F91089586EC0E94820A882339F40E9438
:10116000DB0A8CE00E94DB0A0E94D30A0895EF920A
:10117000FF920F931F93CF93DF93182F062FF42E18
:10118000E52E86EC0E94820A8823B9F40E94DB0ACD
:1011900083E00E94DB0A812F0E94DB0A802F0E94DD
:1011A000DB0A8F2D9E2D9C01E90102C00E94DB0A03
:1011B00089918823D9F70E94D30ADF91CF911F919B
:1011C0000F91FF90EF9008950F931F93CF93DF93AC
:1011D00081E090E061E070E040E952E00E94B708F1
:1011E00082E090E061E070E00E949108C0E0D0E011
:1011F00001E010E00E94ED0798010C2E02C0220FC2
:10120000331F0A94E2F7282339230C2E02C03695A7
:1012100027950A94E2F7822F805D0E945408219658
:10122000C031D10539F7DF91CF911F910F9108950A
:10123000CF92DF92EF92FF920F931F93DF93CF93A2
:10124000CDB7DEB764970FB6F894DEBF0FBECDBF43
:101250007C016B01CA018E010F5F1F4FB801A9010C
:101260000E94C60DC701B601A8010E94B708649686
:101270000FB6F894DEBF0FBECDBFCF91DF911F91A7
:101280000F91FF90EF90DF90CF900895CF92DF9273
:10129000EF92FF920F931F93DF93CF9300D000D074
:1012A00000D0CDB7DEB77C016B01CA018E010F5FA4
:1012B0001F4FB8014AE050E00E94C60DC701B601B9
:1012C000A8010E94B70826960FB6F894DEBF0FBE9D
:1012D000CDBFCF91DF911F910F91FF90EF90DF90E5
:1012E000CF9008950F931F93182F062F0E94820A04
:1012F00080E00E94DB0A80EA0E94DB0A0E94D30A97
:1013000084EF91E024EF31E0F9013197F1F7019793
:10131000D9F7812F0E94820A80E00E94DB0A8AEAC4
:101320000E94DB0A0E94D30A84EF91E024EF31E0AF
:10133000F9013197F1F70197D9F7812F0E94820ABD
:1013400080E00E94DB0A85EA0E94DB0A0E94D30A41
:1013500084EF91E024EF31E0F9013197F1F7019743
:10136000D9F7812F0E94820A80E00E94DB0A802F39
:101370000E94DB0A0E94D30A1F910F9108951F93C8
:10138000182F0E94820A8823B9F481E00E94DB0AA8
:1013900087E10E94DB0A0E94D30A812F0E94820A01
:1013A000882351F482E00E94DB0A80E30E94DB0A7A
:1013B0000E94D30A81E001C080E01F9108950E943D
:1013C000820A882321F40E94D30A81E008950E94B2
:1013D000D30A80E008951F93182F0E94820A882361
:1013E00011F080E015C081E00E94DB0A80E00E94DD
:1013F000DB0A80E30E94DB0A812F0E94D00A80E092
:101400000E94DB0A81E50E94DB0A0E94D30A81E088
:101410001F9108951F93182F02C00E94D30A812F95
:101420000E94820A8823C9F782E00E94DB0A0E9498
:10143000D30A1F5F812F0E94D00A8823D9F70E9408
:10144000ED0A182F0E94D30A812F1F910895FF9251
:101450000F931F93082F0E94EB09802F0E94DF0932
:101460008823D9F702C00E94D30A802F0E94820AE3
:101470008823C9F782E00E94DB0A0E94D30A0F5F2B
:10148000802F0E94D00A8823D9F70E94ED0A182FD6
:1014900000E00E94F70AF82E0E94D30A0F0D111DDA
:1014A000C8011F910F91FF900895FF920F931F9312
:1014B000082F02C00E94D30A802F0E94820A88232C
:1014C000C9F782E00E94DB0A0E94D30A0F5F802FD7
:1014D0000E94D00A8823D9F70E94ED0A182F00E055
:1014E0000E94F70AF82E0E94D30A0F0D111DC801A1
:1014F0001F910F91FF9008951092B9008CE5809391
:10150000B8000895982F84EA8093BC008091BC00B5
:1015100087FFFCCF8091B900887F883021F080312F
:1015200011F081E008959093BB0084E88093BC00A3
:101530008091BC0087FFFCCF9091B900987F9831D3
:1015400011F480E0089580E0903409F081E008957E
:10155000982F44EA34E824E94093BC008091BC0011
:1015600087FFFCCF8091B900887F883011F08031EF
:1015700099F79093BB003093BC008091BC0087FF2B
:10158000FCCF8091B900887F803211F0883539F422
:101590002093BC008091BC0084FDFCCFDDCF08957A
:1015A0000E94820A089584E98093BC008091BC0067
:1015B00084FDFCCF08958093BB0084E88093BC0039
:1015C0008091BC0087FFFCCF8091B90090E0887FBC
:1015D000883209F091E0892F089584EC8093BC0053
:1015E0008091BC0087FFFCCF8091BB00089584E808
:1015F0008093BC008091BC0087FFFCCF8091BB0032
:10160000089580E50E94820A8FE30E94DB0A80E24F
:101610000E94DB0A0E94D30A08951F93182F80E5C9
:101620000E94820A882319F4812F0E94DB0A81E537
:101630000E94D00A882311F01FEF03C00E94F70A0E
:10164000182F0E94D30A812F1F9108958DE30E94C5
:101650000D0B8C30B1F080E50E94820A8DE30E9470
:10166000DB0A8CE00E94DB0A0E94D30A80E50E941C
:10167000820A8FE30E94DB0A81E00E94DB0A0E945B
:10168000D30A08951F93CF93DF93182F80E50E940C
:10169000820A882319F4812F0E94DB0A81E50E94C7
:1016A000D00A882319F0CFEFDFEF0AC00E94ED0ABD
:1016B000C82FD0E00E94F70A382F20E0C20FD31FB6
:1016C0000E94D30ACE01DF91CF911F9108950E940D
:1016D000420B6AE070E00E949F0DCB0108950E94CA
:1016E000420BAA2797FDA095BA2FBC01CD010E94FD
:1016F000880C20E030E048EC52E40E94ED0B0895A5
:101700000E94420B60E170E00E949F0DCB010895A2
:101710005058BB27AA270ED04DC13ED130F043D13F
:1017200020F031F49F3F11F41EF433C10EF4E09524
:10173000E7FB29C1E92F4FD180F3BA17620773077E
:101740008407950718F071F49EF567C10EF4E095D3
:101750000B2EBA2FA02D0B01B90190010C01CA016B
:10176000A0011124FF27591B99F0593F50F4503E16
:1017700068F11A16F040A22F232F342F4427585F08
:10178000F3CF469537952795A795F0405395C9F720
:101790007EF41F16BA0B620B730B840BBAF09150D8
:1017A000A1F0FF0FBB1F661F771F881FC2F70EC077
:1017B000BA0F621F731F841F48F48795779567954A
:1017C000B795F7959E3F08F0B3CF9395880F08F033
:1017D0009927EE0F9795879508950CD0EBC0E3D02D
:1017E00040F0DAD030F021F45F3F19F0CCC0511155
:1017F00015C1CFC0F0D098F39923C9F35523B1F3A5
:10180000951B550BBB27AA2762177307840738F06F
:101810009F5F5F4F220F331F441FAA1FA9F333D0CE
:101820000E2E3AF0E0E830D091505040E695001C82
:10183000CAF729D0FE2F27D0660F771F881FBB1F3E
:10184000261737074807AB07B0E809F0BB0B802D18
:10185000BF01FF2793585F4F2AF09E3F510568F064
:1018600092C0DCC05F3FECF3983EDCF38695779541
:101870006795B795F7959F5FC9F7880F911D969566
:10188000879597F90895E1E0660F771F881FBB1FC2
:10189000621773078407BA0720F0621B730B840B6F
:1018A000BA0BEE1F88F7E095089504D06894B11143
:1018B000B5C0089598D088F09F5790F0B92F992718
:1018C000B751A0F0D1F0660F771F881F991F1AF04B
:1018D000BA95C9F712C0B13081F09FD0B1E0089538
:1018E0009CC0672F782F8827B85F39F0B93FCCF3B9
:1018F000869577956795B395D9F73EF49095809541
:10190000709561957F4F8F4F9F4F0895E89409C060
:1019100097FB3EF490958095709561957F4F8F4F22
:101920009F4F9923A9F0F92F96E9BB279395F69538
:10193000879577956795B795F111F8CFFAF4BB0FB6
:1019400011F460FF1BC06F5F7F4F8F4F9F4F16C01A
:10195000882311F096E911C0772321F09EE8872FA4
:10196000762F05C0662371F096E8862F70E060E060
:101970002AF09A95660F771F881FDAF7880F9695D9
:10198000879597F9089597F99F6780E870E060E080
:1019900008959FEF80EC089500240A941616170608
:1019A00018060906089500240A9412161306140650
:1019B00005060895092E0394000C11F4882352F0B3
:1019C000BB0F40F4BF2B11F460FF04C06F5F7F4F6B
:1019D0008F4F9F4F089557FD9058440F551F59F052
:1019E0005F3F71F04795880F97FB991F61F09F3F0C
:1019F00079F087950895121613061406551FF2CF35
:101A00004695F1DF08C0161617061806991FF1CF84
:101A100086957105610508940895E894BB276627AB
:101A20007727CB0197F9089566D008F48FEF0895D2
:101A30000BD0C0CFB1DF28F0B6DF18F0952309F046
:101A4000A2CFA7CF1124EACFC6DFA0F3959FD1F391
:101A5000950F50E0551F629FF001729FBB27F00D5C
:101A6000B11D639FAA27F00DB11DAA1F649F6627B1
:101A7000B00DA11D661F829F2227B00DA11D621F00
:101A8000739FB00DA11D621F839FA00D611D221FBA
:101A9000749F3327A00D611D231F849F600D211D9E
:101AA000822F762F6A2F11249F5750408AF0E1F041
:101AB00088234AF0EE0FFF1FBB1F661F771F881F8A
:101AC00091505040A9F79E3F510570F05CCFA6CFD2
:101AD0005F3FECF3983EDCF3869577956795B79575
:101AE000F795E7959F5FC1F7FE2B880F911D96959F
:101AF000879597F90895990F0008550FAA0BE0E80C
:101B0000FEEF16161706E807F907C0F012161306BF
:101B1000E407F50798F0621B730B840B950B39F4FF
:101B20000A2661F0232B242B252B21F408950A2665
:101B300009F4A140A6958FEF811D811D089597FBA3
:101B4000092E07260AD077FD04D00CD006D000203D
:101B50001AF4709561957F4F0895F6F790958195E9
:101B60009F4F0895AA1BBB1B51E107C0AA1FBB1FB3
:101B7000A617B70710F0A61BB70B881F991F5A9519
:101B8000A9F780959095BC01CD010895FB019F01B7
:101B9000E8944230C4F04532B4F44A3029F497FB5B
:101BA0001EF4909581959F4F642F77270E94B20D68
:101BB000805D8A330CF0895D8193CB010097A1F79A
:101BC00016F45DE251931082C9010C94E70DDC011B
:101BD000FC01672F71917723E1F7329704C07C9164
:101BE0006D9370836291AE17BF07C8F30895F894A0
:021BF000FFCF25
:101BF200000000005BF88E3CC7F20E3D3B5E563D96
:101C02007BDC8E3DB57EB23D0413D63DA296F93DF6
:101C120065830E3E5C30203ED4D0313E6F63433E3E
:101C2200CDE6543E9159663E60BA773EEE83843EDD
:101C320057208D3EBEB1953E7A379E3EDEB0A63E1F
:101C4200441DAF3E017CB73E6FCCBF3EE90DC83E9E
:101C5200C93FD03E6C61D83E2F72E03E7171E83EC2
:101C6200945EF03EF738F83E0000003F89D9033F0A
:101C7200CAA8073F776D0B3F44270F3FE8D5123FB5
:101C82001879163F8D101A3FFE9B1D3F241B213FE2
:101C9200BB8D243F7CF3273F254C2B3F72972E3F71
:101CA20022D5313FF304353FA726383FFF393B3F6A
:101CB200BD3E3E3FA634413F7D1B443F0AF3463FB3
:101CC20013BB493F60734C3FBD1B4F3FF3B3513FC2
:101CD200CE3B543F1DB3563FAE19593F516F5B3F48
:101CE200D7B35D3F14E75F3FDA08623F0119643FF3
:101CF2005E17663FCA03683F1EDE693F35A66B3F2B
:101D0200EC5B6D3F21FF6E3FB28F703F810D723FE2
:101D12007178733F64D0743F3F15763FEA46773F50
:101D22004D65783F5170793FE2677A3FEB4B7B3FDD
:101D32005C1C7C3F25D97C3F35827D3F81177E3FED
:101D4200FD987E3F9E067F3F5C607F3F2FA67F3FD0
:101D520014D87F3F05F67F3F0000803F1700440004
:101D620071009E00CB00F80025015201FFFF6901BE
:101D7200FFFFFFFFFFFFFFFFFFFFFFFFFFFFFFFF71
:0E1D82003132333435363738392A30230000F9
:00000001FF
